:020000040000FA
:1000000008150020CD0100004B0700004307000049
:10001000470700002D030000C50800000000000095
:100020000000000000000000000000004D0700007C
:1000300031030000000000006B0200004F070000C9
:10004000E7010000E7010000E7010000E701000010
:10005000E7010000E7010000E7010000E701000000
:10006000E7010000E7010000E7010000E7010000F0
:10007000E7010000E7010000E7010000E7010000E0
:10008000E7010000E7010000E7010000E7010000D0
:10009000E7010000E7010000E7010000E7010000C0
:1000A000E7010000E7010000E7010000E7010000B0
:1000B000E7010000E7010000E7010000E7010000A0
:1000C000E7010000E7010000E7010000E701000090
:1000D000E7010000B5080000E7010000E7010000AB
:1000E000E7010000E7010000E7010000E701000070
:1000F000E7010000E7010000E7010000E701000060
:10010000E7010000E7010000E7010000E70100004F
:10011000E7010000E7010000E7010000E70100003F
:10012000E7010000E7010000E7010000E70100002F
:1001300000F002F800F03AF80AA090E8000C8244BF
:100140008344AAF10107DA4501D100F02FF8AFF29C
:10015000090EBAE80F0013F0010F18BFFB1A43F0A5
:1001600001031847D8110000F8110000103A24BF0D
:1001700078C878C1FAD8520724BF30C830C144BF0C
:1001800004680C607047000000230024002500264E
:10019000103A28BF78C1FBD8520728BF30C148BFEA
:1001A0000B6070471FB51FBD10B510BD00F08BF878
:1001B0001146FFF7F7FF00F027FC00F0A9F803B4A1
:1001C000FFF7F2FF03BC00F0DDFB000009488047A9
:1001D00009480047FEE7FEE7FEE7FEE7FEE7FEE729
:1001E000FEE7FEE7FEE7FEE704480549054A064B41
:1001F000704700005F07000031010000080F002079
:10020000081500200811002008110020EFF31080CD
:1002100072B6704780F310887047234908602349FD
:100220004FF00000086022494FF0010008602148AB
:100230004FF47F01D0F8002041EA020101601E481E
:100240004FF08051016061B662B6194A1368012B04
:1002500004D04FF001031360144A1060124A116079
:1002600015484FF0805101607047EFF3108272B66D
:100270000F48016891B14FF0000101600B4801681F
:1002800029B1EFF3098121E9F00F00680160064907
:1002900009680968B1E8F00F81F3098882F31088D2
:1002A0004EF0040E70470000200000201C000020CB
:1002B0002400002020ED00E004ED00E070477047CE
:1002C000704770477047754600F02CF8AE46050041
:1002D0006946534620F00700854618B020B5FFF761
:1002E00083FFBDE820404FF000064FF000074FF0BD
:1002F00000084FF0000B21F00701AC46ACE8C00944
:10030000ACE8C009ACE8C009ACE8C0098D4670474C
:1003100010B50446AFF300802046BDE81040FFF75B
:100320004EBF000000487047A40E002000BFFEE74B
:100330007047000070B50446002594F8210002289B
:1003400003D00420A0630125C1E02068006820F0EC
:100350000E00216808602068006820F00100216814
:1003600008605C492068884252D95A497839206827
:10037000884201D1012047E056496439206888420B
:1003800001D1102040E0534950392068884201D102
:10039000801539E04F493C392068884201D18014EA
:1003A00032E04C4928392068884202D14FF480302D
:1003B0002AE0484914392068884202D14FF480105D
:1003C00022E044492068884201D140041CE04249AF
:1003D0002068884201D1012016E03F49143120688D
:1003E000884201D110200FE03B4928312068884223
:1003F00001D1801508E038493C312068884201D19C
:10040000801401E04FF480303349091F086051E047
:10041000304978392068884201D1012047E02D49D0
:1004200064392068884201D1102040E029495039C0
:100430002068884201D1801539E026493C3920687E
:10044000884201D1801432E022492839206888424C
:1004500002D14FF480302AE01E49143920688842C6
:1004600002D14FF4801022E01A492068884201D15D
:1004700040041CE018492068884201D1012016E0A0
:10048000154914312068884201D110200FE012492B
:1004900028312068884201D1801508E00E493C319E
:1004A0002068884201D1801401E04FF4803009496E
:1004B00080394860012084F8210000BF002084F8C2
:1004C000200000BF606B10B12046616B8847284652
:1004D00070BD000080000240080402407047000028
:1004E0002DE9F0470446206805682068C668206842
:1004F00047694FF00008C14605F00F08B8F1000F3A
:100500000AD105F0200038B106F0200020B12046C5
:1005100000F050F9BDE8F087B8F1000F71D007F096
:10052000010018B906F4907000286AD005F00100A7
:1005300030B106F4807018B1E06B40F00100E06368
:1005400005F0040030B107F0010018B1E06B40F095
:100550000200E06305F0020030B107F0010018B1BD
:10056000E06B40F00400E06305F0080048B106F0DD
:10057000200010B907F0010018B1E06B40F008004E
:10058000E063E06B68B305F0200028B106F02000BE
:1005900010B1204600F00EF920684069C0F38019C0
:1005A000E06B00F0080010B9B9F1000F22D020462E
:1005B00000F0E0F82068406900F04000B0B1206829
:1005C000406920F0400021684861606B50B11848D4
:1005D000616B4863606BFFF7ADFE10B1606B416B00
:1005E00088470CE02046FFF779FF08E02046FFF738
:1005F00075FF04E02046FFF771FF0020E06389E704
:10060000FFE705F0800030B106F0800018B1204609
:1006100000F020F97EE705F0400030B106F0400020
:1006200018B1204600F0B6F874E700BF72E700008A
:100630006107000010B5034693F83A0020282FD137
:1006400001B10AB9012010BD00BF93F8380001289C
:1006500001D10220F7E7012083F8380000BF99623A
:100660009A85DA850020D863222083F83A0000BFFB
:10067000002083F8380000BF1868C06840F480701C
:100680001C68E0601868406940F001001C68606107
:100690001868C06840F020001C68E0600020D2E7C5
:1006A0000220D0E710B504462049206888423BD19B
:1006B0001F48008800F4004088BB1D48008800F4F3
:1006C000804070B11B4800780A2803D000201849E8
:1006D000088024E01648008840F40040144908804F
:1006E0001DE0144800780D2806D11148008840F418
:1006F00080400F49088012E00E4800780C490988B4
:10070000C1F30D010C4A505409480088401C0849A7
:10071000088008460088C72801DD002008800122E3
:1007200004490648FFF786FF10BD0000003801406D
:10073000180000201A0000202C0A0020F40A0020D3
:10074000704700BFFEE700BFFEE77047704710B577
:1007500000F02AFA00F05CFC00F036FA10BD704799
:1007600070B505466C6A0020E085E0842046FFF7FE
:10077000B5FE70BD0168C96821F490710268D1604E
:100780000168496921F0010102685161202180F866
:100790003A10704710B504462068C06820F0400049
:1007A0002168C860202084F839002046FFF7C8FF80
:1007B000002010BD70B5044694F83A00222847D1B5
:1007C000A068B0F5805F0CD1206950B90025A66AF9
:1007D00020684068C0F308003080A06A801CA062D6
:1007E00015E0A56A0026A068B0F5805F03D0A06878
:1007F00028B9206918B920684068287004E020688A
:10080000406800F07F002870A06A401CA062E08D64
:10081000401E80B2E085C8B92068C06820F0200082
:100820002168C8602068C06820F480702168C860B2
:100830002068406920F0010021684861202084F888
:100840003A002046FFF72EFF002070BD0020FCE795
:100850000220FAE7014691F83900212828D188685A
:10086000B0F5805F0BD1086948B90A6A1088C0F3F7
:1008700008000B685860086A801C086205E00B6A73
:10088000581C086218780B685860C88C401E80B2EB
:10089000C88458B90868C06820F080000B68D86028
:1008A0000868C06840F040000B68D86000207047BE
:1008B0000220FCE710B50248FFF712FE10BD000051
:1008C000F40A002000BFFEE7014609B90020704786
:1008D000C8B220B1C8B20E4A105C401CF7E701F460
:1008E0007F4028B10A48C1F30722805C0930EEE757
:1008F00001F47F0028B10648C1F30742805C113043
:10090000E5E7034800EB116000781930DFE70000ED
:100910003C1200002DE9F04704460E461746984663
:10092000DDF8209084F80990607A20F00100607270
:10093000E66127620020A062C4F82480002506E05A
:1009400004F1140101EBC50000F04EF96D1C012DFE
:10095000F6DBBDE8F08710B50246002001460EE048
:1009600002F1140303EBC100D0E900436360D0E956
:10097000003423604060006000BF481C014601292C
:10098000EEDB10BD00BF704700BF012005490860C5
:10099000282000F051FA002002490860282000F0C9
:1009A0004BFAF2E70000002000BF01200549086073
:1009B000142000F041FA002002490860142000F0E1
:1009C0003BFAF2E70400002000BF0120054908605F
:1009D0001E2000F031FA0020024908601E2000F0BD
:1009E0002BFAF2E70800002000BF0120054908604B
:1009F0003C2000F021FA0020024908603C2000F071
:100A00001BFAF2E70C0000203EB5FFF7FFFB37486A
:100A100000684FF47A72B0FBF2F1481EB0F1807FAB
:100A200000D31BE0481E4FF0E022506150170F2208
:100A3000002804DB13071C0E2D4B1C5406E0130783
:100A40001D0E2C4B00F00F04241F1D5500BF00206D
:100A50004FF0E02290610720106100BF00F0DEF946
:100A600000F0A6F900F0F8F901204102224A002323
:100A7000CDE900210290214A21A1254800F008FA81
:100A8000234800F07BFA01204102224A0023CDE9ED
:100A900000210290204A21A1244800F0F9F92348BE
:100AA00000F06CFA02200102214A0023CDE9002166
:100AB0000290204A20A1244800F0EAF9224800F0E0
:100AC0005DFA03204FF40071204A0023CDE9002194
:100AD00002901F4A1FA1234800F0DAF9214800F0D4
:100AE0004DFA00F083F900203EBD00001000002008
:100AF00000E400E018ED00E06C000020890900002F
:100B000072745F666C6167315F74687265616400FE
:100B10006C0800206C020020A909000072745F6656
:100B20006C6167325F74687265616400DC08002084
:100B30006C040020C909000072745F666C61673341
:100B40005F746872656164004C0900206C060020C7
:100B5000E909000072745F666C6167345F746872E3
:100B600065616400BC090020F0B503460C461546DB
:100B7000281D20F0070040380146002203E0094EFE
:100B800041F82260521C102AF9D30C6200274F62F0
:100B90008F62CF620F634F638B634FF08077CF63B9
:100BA000F0BD0000EFBEADDE10B5FFF72FFB044631
:100BB00004480078401C034908702046FFF72AFBD0
:100BC00010BD00005C00002010B5FFF71FFB0446BD
:100BD00004480078401E034908702046FFF71AFBBE
:100BE00010BD00005C00002040600060704702689B
:100BF000516002680A60016048607047D0E90021D6
:100C00005160D0E900121160406000607047000040
:100C1000024600210AE0074800EB011000789042EC
:100C200003D1044800EB01107047491C0229F2DB94
:100C30000020F9E7340000202DE9F04104460D467C
:100C400016462846FFF7E4FF074645F0800020726D
:100C500008223146204600F091F8FFF7D7FA804687
:100C6000381D04F10C010268516002680A600160DD
:100C7000486000BF4046FFF7CDFABDE8F0810000B4
:100C80002DE9F041FFF7C2FA074611480068FFF767
:100C90001BFE451E0F4850F83500A0F114040E4805
:100CA000006884420ED00D490D700B480668046040
:100CB00004F11C0106F11C00FFF7C7FA3846FFF7E4
:100CC000A9FA02E03846FFF7A5FABDE8F081000076
:100CD0002C000020340B00202800002030000020D1
:100CE00070B50446FFF792FA0546012084F84000EB
:100CF00094F834200A4B03EBC20004F1140142685B
:100D0000116042684A604160086000BF0549A06BFD
:100D100009680843034908602846FFF77BFA70BD5D
:100D2000340B00202C00002070B50446FFF76EFA4B
:100D3000054604F11400D0E900215160D0E9001209
:100D400011604060006000BF94F83410094A02EB63
:100D5000C1000168814201D1012100E0002129B1D7
:100D60000548A16B00688843034908602846FFF7DF
:100D700051FA70BD340B00202C00002070B50346E2
:100D8000A2B118460C4600BF14F8016B00F8016BC5
:100D90003EB902E0002500F8015B551E2A1EF9D17C
:100DA00002E0551E2A1EEFD100BF00BF184670BDDD
:100DB0000020014607E0094A02EBC10040600060E4
:100DC00000BF481C01462029F5DB1F20044A107093
:100DD0000020044A1060044A10607047340B002061
:100DE00030000020280000202C00002070B50848AA
:100DF0000068FFF769FD451E064850F83500A0F170
:100E000014040548046004F11C00FFF706FA70BDE5
:100E10002C000020340B00202800002010B50024F6
:100E200005E0044901EBC400FFF7DEFE641C002C62
:100E3000F7D010BD6000002010B50446204600F039
:100E400081F810BD00BF04E002490968491C014A4D
:100E50001160F9E7540000200EB51F204FF4007117
:100E6000064A0023CDE900210290054A05A1074862
:100E700000F00EF8054800F081F80EBD340C00209B
:100E8000450E000069646C6500000000340E00200F
:100E90002DE9FC4704460D4616461F46DDE90A9A31
:100EA000DDF830802A4600212046FFF7C5FE04F118
:100EB00014004060006000BF26626762C4F828909A
:100EC000C4F82CA0D4E90A3C63441A1FD4E90801F1
:100ED000FFF74AFEE06184F8358084F83480002012
:100EE000A063E06384F8400000902346044A214652
:100EF000019004F1440000F0F5F80020BDE8FC8703
:100F0000E30F000070B5044694F8400000F00F00B5
:100F1000022802D04FF0FF3070BDFFF777F9054689
:100F200004F11400FFF76AFE2846FFF773F9204624
:100F3000FFF7D6FE0020EFE7014800687047000089
:100F40002800002031B5FFF761F905460A4804681A
:100F5000204600F029F86A46002104F1440000F020
:100F6000A5F804F1440000F0D5F82846FFF752F93F
:100F7000FFF786FE002038BD2800002010B504468B
:100F8000343460782070217801208840606002202D
:100F90002073343C2046FFF7B5FFFFF7CDFF08B1C3
:100FA000FFF76EFE002010BD70B5044694F84000B7
:100FB00000F00F00012802D04FF0FF3070BDFFF7A6
:100FC00025F90546022084F840002046FFF7ACFED4
:100FD00004F1440000F01AF92846FFF71BF900203D
:100FE000ECE770B5044625466FF00100E86305F1B3
:100FF0001400FFF703FE2846FFF772FEFFF740FEDE
:1010000070BD0000014800687047000058000020D3
:1010100010B504480068401C0249086000F004F85C
:1010200010BD00005800002070B5FFF7EBFF05462B
:10103000FFF7ECF8064628E01B480068A0F114040E
:10104000A06A281A6FF0004188421DD22046FFF79F
:1010500082FCD4E907108847FFF7D4FF0546607A81
:1010600000F0020058B1607A00F0010038B1607AF7
:1010700020F001006072204600F04CF805E0607A34
:1010800020F00100607200E008E00748016881423A
:1010900001D1012100E000210029CDD000BF304660
:1010A000FFF7B8F870BD000060000020034649B1AA
:1010B000012904D0022908D0032910D10AE0586A76
:1010C000106000BF1068586200BF587A20F002001C
:1010D000587200BF587A40F00200587200BF00BF3B
:1010E000002070472DE9F84307460C4615461E467A
:1010F000DDE90889224609213846FFF79DFD434670
:10110000324629463846CDF80090FFF703FCBDE88B
:10111000F88300002DE9F84305460024FFF776F830
:1011200080462846FFF717FC687A20F001006872B5
:101130004046FFF76FF8FFF765FF696A0844A86249
:10114000FFF764F880462F4E009600BF55E019E087
:101150005DF824201168142202EBC402881A826A06
:10116000AB6AD21A00D108E0826AAB6AD21A6FF079
:1011700000439A4200D20CE000BF5DF824000068F2
:101180004DF824005DF8240006EBC401496888424C
:10119000DED100BF2CB15DF824000830611C4DF891
:1011A000210019480068401C174908600846076874
:1011B00005F114010098FFF71AFD022412E007F070
:1011C000030060B9C4F1010305F1140202EBC3018D
:1011D000C4F101025DF82200FFF709FD00E003E021
:1011E000BF08641C012CEAD900BF687A40F00100F6
:1011F00068724046FFF70EF8641C002CA7D0002050
:10120000BDE8F883600000206800002070B5044647
:10121000607A00F0010010B94FF0FF3070BDFEF7AA
:10122000F5FF05462046FFF796FB2846FEF7F2FF3E
:10123000607A20F0010060720020EFE700000100FA
:10124000020001000300010002000100040001008F
:10125000020001000300010002000100050001007E
:10126000020001000300010002000100040001006F
:10127000020001000300010002000100060001005D
:10128000020001000300010002000100040001004F
:10129000020001000300010002000100050001003E
:1012A000020001000300010002000100040001002F
:1012B000020001000300010002000100070001001C
:1012C000020001000300010002000100040001000F
:1012D00002000100030001000200010005000100FE
:1012E00002000100030001000200010004000100EF
:1012F00002000100030001000200010006000100DD
:1013000002000100030001000200010004000100CE
:1013100002000100030001000200010005000100BD
:1013200002000100030001000200010004000100AE
:101330000200010003000100020001005C13000034
:10134000000000206C0000006C010000C8130000C9
:101350006C0000209C1400008801000000000000C8
:1013600000000000000000000000000040787D0147
:10137000000000000000000000000000000000006D
:10138000000000000000000000000000000000005D
:10139000000000003800002038000020700000002D
:1013A000000000000000000000000000000000003D
:1013B000000000000000000000000000000000002D
:0813C000000000000000000025
:0400000500000131C5
:00000001FF
