:020000040800F2
:10000000401B00204501000871150008FB3E000858
:1000100073150008771500087B1500080000000024
:100020000000000000000000000000007F15000834
:100030008115000800000000833E00084D160008EE
:100040005F0100085F0100085F0100085F01000810
:100050005F0100085F0100085F0100085F01000800
:100060005F010008AB130008E11300085F010008FE
:100070005F0100085F0100085F0100085F010008E0
:100080005F0100085F0100085F0100085F010008D0
:100090005F0100085F0100085F0100085F010008C0
:1000A0005F0100085F0100085F0100085F010008B0
:1000B0005F0100085F0100085F0100085F010008A0
:1000C0005F0100085F0100085F0100085F01000890
:1000D0005F010008171400085F0100085F010008B5
:1000E0005F0100085F0100085F0100085F01000870
:1000F0005F0100085F0100085F0100085F01000860
:100100005F0100085F0100085F0100085F0100084F
:100110005F0100085F0100085F0100085F0100083F
:100120005F0100085F0100085F0100085F0100082F
:10013000DFF80CD004F04CF800480047EB1A000838
:10014000401B00200648804706480047FEE7FEE7C0
:10015000FEE7FEE7FEE7FEE7FEE7FEE7FEE7FEE777
:1001600047020008310100080CB500200190009002
:100170006C48006840F480306A49086000BF6948F4
:10018000006800F4003000900198401C0190009835
:1001900018B90198B0F5A06FF1D16248006800F479
:1001A000003010B10120009001E000200090009884
:1001B000012843D15C48006840F010005A490860AB
:1001C0000846006820F0030008600846006840F018
:1001D0000200086053484068524948600846406839
:1001E00048600846406840F48060486008464068BF
:1001F00020F47C1048600846406840F4E8104860ED
:100200000846006840F08070086000BF45480068FC
:1002100000F000700028F9D04248406820F0030048
:10022000404948600846406840F00200486000BF0E
:100230003C48406800F00C000828F9D10CBD10B50E
:10024000FFF792FF10BD10B53648006840F001007E
:1002500034490860084640683449084031494860DC
:1002600008460068324908402E4908600846006880
:1002700020F4802008600846406820F4FE004860B2
:100280004FF41F008860FFF7DAFF4FF00060294944
:10029000086010BD10B5002100200022214B5B68D2
:1002A00003F00C0121B1042906D0082928D107E068
:1002B000214B224C236027E01F4B204C236023E07E
:1002C000184B5B6803F47010164B5B6803F48032C4
:1002D000022303EB904022B9194B4343174C236090
:1002E0000DE0104B5B6803F4003323B1144B434320
:1002F000124C236003E0104B4343104C236003E097
:100300000D4B0E4C236000BF00BF064B5B68C3F370
:1003100003130C4CE15C094B1B68CB40074C23607A
:1003200010BD000000100240002002400000FFF855
:10033000FFFFF6FE08ED00E000127A00000000204A
:1003400000093D000400002031490143314A116099
:10035000704770B5002100230F22C47804B32D4CE0
:10036000246804F4E064C4F5E064210AC1F10403E4
:10037000CA40447804FA03F1847814402143090107
:10038000254C0678A155047804F01F050124AC40E3
:1003900005786D11AD0005F1E025C5F8004109E0D3
:1003A000047804F01F050124AC401C4D067876113A
:1003B00045F8264070BD1A4A0A400243154B1B1FE0
:1003C0001A60704739B1134A121D12680243114B6B
:1003D0001B1D1A6006E00F4A121D126882430D4B66
:1003E0001B1D1A607047042808D14FF0E0210969ED
:1003F00041F004014FF0E022116107E04FF0E021ED
:10040000096921F004014FF0E022116170470000FA
:100410000000FA050CED00E000E400E080E100E0FF
:1004200080FFFF1F01684FF6FE721140016000213E
:10043000016041608160C1608D49884208D18C496A
:100440000839496841F00F01894A083A51608AE049
:1004500087491431884208D185490839496841F0F3
:10046000F001834A083A51607DE081492831884291
:1004700008D17F490839496841F470617C4A083ADB
:10048000516070E07A493C31884208D17849083996
:10049000496841F47041764A083A516063E0744912
:1004A0005031884208D172490839496841F47021B5
:1004B0006F4A083A516056E06D496431884208D16C
:1004C0006B490839496841F47001694A083A51603A
:1004D00049E067497831884208D165490839496857
:1004E00041F07061624A083A51603CE061498842DB
:1004F00006D1011F096841F00F01021F116032E0AF
:100500005C491431884208D15A49091F096841F0F1
:10051000F001584A121F116025E0564928318842DF
:1005200008D15449091F096841F47061514A121FEA
:10053000116018E04F493C31884208D14D49091FEC
:10054000096841F470414B4A121F11600BE04949A0
:100550005031884207D14749091F096841F4702189
:10056000444A121F1160704710B50022026847F616
:10057000F0739A430C6A8B6823430C6923434C69DC
:1005800023438C692343CC6923434C6A23438C6AFD
:1005900023431A430260CB6843600B6883604B6857
:1005A000C36010BD0021016041608160C1600161D4
:1005B00041618161C161016241628162704721B123
:1005C000026842F00102026004E002684FF6FE7326
:1005D0001A40026070471AB103680B43036002E0DF
:1005E00003688B4303607047416070470146486869
:1005F00080B2704701460020002201F080531BB1F9
:100600001C4B083B1A6802E0194B083B1A6802EAC7
:1006100001030BB1012000E00020704700F0805181
:1006200019B11449091F086002E0114908394860EE
:10063000704701460020002201F080531BB10D4B92
:10064000083B1A6802E00A4B083B1A6802EA0103F9
:100650000BB1012000E00020704700F0805119B17B
:100660000449091F086002E00149083948607047E1
:100670000800024008040240002044490860091DA7
:100680000860091D0860091D086041483F49143190
:100690000860704700213D498279002A3AD00A4615
:1006A000126803689A430B461A600A1D12680368B1
:1006B0009A430B1D1A60027911440A6803681A43B1
:1006C0000A60324A0832126803689A432F4B083393
:1006D0001A601A1D126803689A432C4B0C331A6077
:1006E0004279102A0ED11A1F126803681A43274B49
:1006F00008331A601A1D126803681A43234B0C331F
:100700001A600DE02149427911440A6803681A43CE
:100710000A6005E0027911440A6803689A430A6096
:1007200070470021016001710C214171002181712C
:1007300070471649103109680143144A103211609C
:10074000704701460020114A143212680A400AB16B
:10075000012000E0002070470C4914310860704708
:10076000014600200022094B1B6803EA0102074BE7
:1007700014331B680B4013B10AB1012000E00020C4
:1007800070470249143108607047000000040140BE
:10079000FFFF0F0010B50446CC48844208D1012168
:1007A000042000F02DFB0021042000F029FB46E08E
:1007B000C748844208D10121082000F021FB002114
:1007C000082000F01DFB3AE0C248844208D1012114
:1007D000102000F015FB0021102000F011FB2EE08E
:1007E000BD48844208D10121202000F009FB0021EE
:1007F000202000F005FB22E0B848844208D1012106
:10080000402000F0FDFA0021402000F0F9FA16E047
:10081000B348844208D10121802000F0F1FA002180
:10082000802000F0EDFA0AE0AE48844207D10121B1
:10083000801500F0E5FA0021A01500F0E1FA10BDE6
:1008400010B50121084600F0DBFA0021012000F07C
:10085000D7FA10BD2DE9F041024600250026002000
:1008600000230024002791F803C00CF00F0591F835
:1008700003C00CF0100CBCF1000F03D091F802C0C3
:100880004CEA050591F800C0BCF1000F31D01468A6
:1008900000202BE04FF0010C0CFA00F3B1F800C07F
:1008A0000CEA03069E4220D183004FF00F0C0CFA95
:1008B00003F7BC4305FA03FC4CEA040491F803C0B7
:1008C000BCF1280F06D14FF0010C0CFA00FCC2F865
:1008D00014C00AE091F803C0BCF1480F05D14FF0F5
:1008E000010C0CFA00FCC2F810C0401C0828D1D33F
:1008F0001460B1F800C0BCF1FF0F34DD5468002073
:100900002EE000F1080C4FF0010808FA0CF3B1F8E2
:1009100000C00CEA03069E4221D183004FF00F0C69
:100920000CFA03F7BC4305FA03FC4CEA040491F803
:1009300003C0BCF1280F05D100F1080C08FA0CF82F
:10094000C2F8148091F803C0BCF1480F07D100F140
:10095000080C4FF0010808FA0CF8C2F81080401C8F
:100960000828CED35460BDE8F0814FF6FF710180B6
:10097000022181700421C1707047024600209368F3
:100980000B400BB1012000E0002070470146886851
:1009900080B2704702460020D3680B400BB10120A3
:1009A00000E0002070470146C86880B270470161CE
:1009B0007047416170470AB1016100E041617047D1
:1009C000C16070474FF480320A4382618161826165
:1009D00082698269704702460020434B18684FF6CF
:1009E0008073184040EA021008433F4B186070477C
:1009F0003E49C8617047F0B50A4600230024002133
:100A0000002500F00046B6F1004F02D1364EF169E4
:100A100001E0354E7168C0F3034583B200F440161F
:100A2000B6F5401F08D121F070612F4E766826F090
:100A300070662D4F7E6012E000F48016B6F5801FC0
:100A400006D1032606FA05F4A14341F0706106E0E1
:100A5000460D360103FA06F6B14341F0706122B14A
:100A6000460D360103FA06F6314300F00046B6F1B2
:100A7000004F02D11C4EF16101E01B4E7160F0BDD0
:100A800030B500228B071C0F0F2303FA04F2164B1C
:100A900008338C1053F824309343134C08348D10D2
:100AA00044F8253023468C1053F824308C07240F4B
:100AB00000FA04F423430C4C08348D1044F825301C
:100AC00030BD0A49DC310860704700000008014071
:100AD000000C0140001001400014014000180140CA
:100AE000001C0140002001400000014000002042A5
:100AF000DF48006840F00100DD49086008464068B2
:100B0000DC490840DA49486008460068DA4908408C
:100B1000D74908600846006820F48020086008462D
:100B2000406820F4FE0048604FF41F008860704762
:100B3000CF49096821F48031CD4A11601146096816
:100B400021F480211160B0F5803F03D0B0F5802FF3
:100B50000ED106E0C649096841F48031C44A1160EB
:100B600007E0C349096841F4A021C14A116000E0CF
:100B700000BF00BF704710B50146002200230020CF
:100B80004A11012A02D1BA4C236806E0022A02D196
:100B9000B74C236A01E0B64C636A01F01F020124DE
:100BA00094401C400CB1012000E0002010BD38B57D
:100BB000002000900024002500BF3120FFF7DBFF5C
:100BC00005460098401C00900098B0F5A06F01D039
:100BD000002DF2D03120FFF7CEFF08B1012400E054
:100BE0000024204638BD01460020A14A106820F0AC
:100BF000F80040EAC10010607047A04908607047E3
:100C0000024600209A4B586820F47C1042EA010307
:100C10001843974B586070479849086670470146DB
:100C20000020934A506820F003000843506070474A
:100C30008F48406800F00C007047014600208C4A45
:100C4000506820F0F00008435060704701460020D3
:100C5000874A506820F4E0600843506070470146BE
:100C60000020834A506820F4605040EAC100506080
:100C7000704729B17E4A527A02437D4B5A7204E092
:100C80007B4A527A82437A4B5A7270477B49D831F9
:100C90000860704701460020754A506820F44040C3
:100CA0000843506070470021714A20321170704A29
:100CB00082F82010012802D004280AD104E0012182
:100CC0006B4A2032117005E00521694A203211700B
:100CD00000E000BF00BF7047694908607047644981
:100CE000096A0143624A11627047654944390860E4
:100CF000704730B500210022002400235C4D6D6850
:100D000005F00C0121B1042905D0082923D105E003
:100D10005C4D056022E05B4D05601FE0544D6D6841
:100D200005F47012524D6D6805F48034022505EB10
:100D300092421CB9544D554305600BE04C4D6D6813
:100D400005F400351DB1504D5543056002E04D4D91
:100D50005543056002E04B4D056000BF00BF444DA8
:100D60006D6805F0F0010909484D6B5C0568DD40D0
:100D700045603F4D6D6805F4E061090A434D6B5CC9
:100D80004568DD4085603A4D6D6805F46051C90ADB
:100D90003E4D6B5C4568DD40C560354D6D6805F4C2
:100DA0004041890B3A4D6B5CC568B5FBF3F50561B5
:100DB00030BD29B12E4A526902432D4B5A6104E0DD
:100DC0002B4A526982432A4B5A61704729B1284AFB
:100DD00092690243264B9A6104E0254A9269824354
:100DE000234B9A61704729B1214AD2690243204BB3
:100DF000DA6104E01E4AD26982431D4BDA61704712
:100E000029B11B4AD2680243194BDA6004E0184A40
:100E1000D2688243164BDA60704729B1144A1269CE
:100E20000243134B1A6104E0114A12698243104BCA
:100E30001A61704712494039086070470F49C86409
:100E400070470B49C87170470948406A40F080708C
:100E500007494862704701460020054A92680A40E7
:100E60000AB1012000E000207047014988727047F4
:100E7000001002400000FFF8FFFFF6FE00004242B3
:100E80008004424200127A0000093D001400002054
:100E90002400002010B50446FB48844209D10121FA
:100EA0008803FFF7ADFF00214FF48040FFF7A8FF54
:100EB00032E0F648844209D101214804FFF7ADFF32
:100EC00000214FF40030FFF7A8FF25E0F0488442EE
:100ED00009D101218804FFF7A0FF00214FF48020F1
:100EE000FFF79BFF18E0EB48844209D10121C804B9
:100EF000FFF793FF00214FF40020FFF78EFF0BE078
:100F0000E548844208D101210805FFF786FF00214A
:100F10004FF48010FFF781FF10BD2DE9F04786B038
:100F200005460E460024A24600BFA1460027B08910
:100F300000B100BF2F462C8A4CF6FF700440F088A9
:100F400004432C82AC894EF6F3100440B0883189FA
:100F50000843718908430443AC81AC8A4FF6FF40D3
:100F60000440B0890443AC8201A8FFF7C2FEC64822
:100F7000874202D1DDF810A001E0DDF80CA0A889BD
:100F800000F4004040B10AEBCA0000EB0A103168DF
:100F90004900B0FBF1F807E00AEBCA0000EB0A10C9
:100FA00031688900B0FBF1F86420B8FBF0F004016F
:100FB0002009642101FB1089A88900F4004040B198
:100FC000322000EBC900B0FBF1F000F00700044351
:100FD00008E0322000EB09106421B0FBF1F000F0D2
:100FE0000F0004432C8106B0BDE8F0874FF4165182
:100FF000016000218180C18001810C21418100219B
:101000008181704710B502460020108A4FF2FF031D
:1010100018400B884C8823438C882343CC88234377
:101020001843108210BD0021018041808180C18061
:10103000704721B1828942F40052828104E08289A2
:101040004DF6FF731A4082817047F0B503460024C5
:1010500000260025002040F66A17B94200D100BFE3
:101060001846C1F3421401F01F06012707FA06F5DE
:10107000012C01D10C3004E0022C01D1103000E031
:1010800014301AB107682F43076002E00768AF43C6
:101090000760F0BD1AB1838A0B43838202E0838A22
:1010A0008B4383827047028A4FF6F0731A400282A4
:1010B000028A0A430282704782894FF2FF731A4004
:1010C000828182890A438281704721B1828942F0FC
:1010D0000202828104E082894FF6FD731A40828108
:1010E0007047028A4FF6DF731A400282028A0A436F
:1010F0000282704721B1028A42F48042028204E0F7
:10110000028A4BF6FF731A4002827047C1F308024D
:101110008280704701468888C0F308007047818943
:1011200041F0010181817047028BD2B20283028BB0
:1011300042EA012202837047028B02F47F4202835B
:10114000028B0A430283704721B1828A42F0200257
:10115000828204E0828A4FF6DF731A4082827047EF
:1011600021B1828A42F01002828204E0828A4FF624
:10117000EF731A408282704721B1828A42F00802DE
:10118000828204E0828A4FF6F7731A4082827047A7
:1011900021B1828942F40042828103E08289C2F354
:1011A0000E028281704721B1828A42F400628282FB
:1011B00004E0828A4FF2FF731A4082827047828A6B
:1011C0004FF6FB731A408282828A0A4382827047FA
:1011D00021B1828A42F00202828204E0828A4FF6C2
:1011E000FD731A408282704702460020B1F5007FED
:1011F00000D100BF13880B400BB1012000E000209C
:10120000704701F40072B2F5007F00D100BFCA43FD
:101210000280704770B5024600240023002500209C
:1012200040F66A16B14200D100BFC1F3421501F089
:101230001F03012606FA03F3012D02D196893340DC
:1012400006E0022D02D1168A334001E0968A33402F
:101250000C12012606FA04F41688344013B10CB1BE
:10126000012000E0002070BD10B50022002340F6F0
:101270006A14A14200D100BF0A1201249440A3B213
:10128000DC43048010BD00000038014000440040F1
:1012900000480040004C00400050004008B50024C9
:1012A00012E04FF0FF33042269466B48006801F0FA
:1012B00045F8044624B969A0009901F0F0FC03E068
:1012C00021466BA001F0EBFCEBE7002410E04FF0AF
:1012D000FF316F48006800F01BFD044644B96D49BA
:1012E0006DA002F087FF4FF47A716A4802F065FF43
:1012F000EDE71CB520206E4908606E4908606EA0BD
:1013000001F0CDFC00230422114672A000F04EFF34
:10131000514908600846006818B970A001F0BFFC88
:1013200002E073A001F0BBFC0022114675A000F0A2
:10133000CFFC574908600846006818B974A001F04E
:10134000AEFC02E079A001F0AAFC142001214B02BE
:101350000022CDE900107C497CA002F0AFFA7C4964
:1013600008600846006820B10846006802F06DFA7F
:1013700002E04FF0FF301CBD142002210B020022BE
:10138000CDE90010734974A002F098FA744908601E
:101390000846006820B10846006802F056FA02E0EC
:1013A0004FF0FF30E7E70020E5E710B501F08AF8DD
:1013B0000820FFF7D5F980B13D480838006880F073
:1013C00020003B4908390860042266492248006829
:1013D00000F02CFF0820FFF7D4F901F080F810BDD1
:1013E00010B501F06FF81020FFF7BAF980B131485D
:1013F0000838006880F020002E490839086004226F
:1014000059491548006800F011FF1020FFF7B9F99D
:1014100001F065F810BD10B501F054F840F2244118
:101420005248FFF7F7FEA0B121480838006880F065
:1014300020001F49083908601E480838006880F0FD
:1014400020001C490839086000F057F94748FFF7A9
:1014500061FE01F044F810BD30000020B4A5B7A231
:10146000D6D0B6CFB5C4CAC74B45592564210A00AA
:10147000CAFDBEDDBDD3CAD5B3F6B4ED2CB4EDCEF6
:10148000F3B4FAC2EB3A203078256C780A000000F9
:1014900034000020FC100020BDD3CAD5B5BDB5C4B2
:1014A000CAFDBEDDCEAAA3BA2573210A0000000042
:1014B000140C014014180140D5E2CAC7D2BBB8F6DB
:1014C000D6D0B6CFB9DCC0EDCAB5D1E9A3A1A3A1EE
:1014D0000A0A0000746573745F6D7100CFFBCFA2C0
:1014E000B6D3C1D0B4B4BDA8CAA7B0DCA3A10A00CA
:1014F000CFFBCFA2B6D3C1D0B4B4BDA8B3C9B9A6EF
:10150000A3A10A00746573745F73656D0000000029
:10151000B4AEBFDAD5BCD3C3D0C5BAC5C1BFB4B4AD
:10152000BDA8CAA7B0DCA3A10A000000B4AEBFDA10
:10153000D5BCD3C3D0C5BAC5C1BFB4B4BDA8B3C9A7
:10154000B9A6A3A10A0000009D1200086B657900EE
:101550002C000020CB12000875736172740000002B
:1015600028000020380000203C0000200038014006
:10157000704700BFFEE700BFFEE700BFFEE7704711
:1015800070470000354870473548704770B535489A
:1015900000684FF47A72B0FBF2F1B1F1807F00D3B2
:1015A0001DE021F07F40401E4FF0E02250615017B7
:1015B0000F22002807DA13071D0E2B4B00F00F0433
:1015C000241F1D5503E013071C0E284B1C5400BF9D
:1015D00000204FF0E02290610720106100BF00F072
:1015E00077F900F0C0F900F09FF800F03DFAFFF73E
:1015F000CBFF0446FFF7C6FF0546214601F07EFCFF
:1016000070BD10B5044602F020F819E020780A28D1
:101610000AD10D211648FFF779FD00BF802114483B
:10162000FFF7E2FD0028F9D014F8011B1048FFF77E
:101630006DFD00BF80210E48FFF7D6FD0028F9D0D0
:1016400020780028E2D102F00EF810BD10B500F0AD
:1016500039FF00F0DAF900F042FF10BDFC00002075
:10166000FC1000200000002018ED00E000E400E085
:101670000038014008B54FF4C060FEF765FE252034
:101680008DF8000001208DF801008DF802008DF822
:1016900003006846FEF75DFE08BD00B58BB0012172
:1016A0000846FFF786FB854800908548019000209A
:1016B00002904FF47A7003900020049080200590EF
:1016C000002006900790202008904FF44050099089
:1016D00000200A9069467B48FEF746FF4FF4003031
:1016E000FEF79CFF012208217648FEF774FF0121D6
:1016F0007448FEF764FF0BB000BD10B500217148BF
:10170000FEF75DFF4FF40030FEF788FF4FF47A706C
:101710006C495839C86501216A48FEF750FF6A488C
:10172000006800F036FB10BD00B585B0FFF7B5FFCF
:1017300001210420FFF74AFB01218803FFF746FB44
:101740004FF40070ADF8100018208DF8130003203E
:101750008DF8120004A95D48FFF77CF84FF4806013
:10176000ADF8100004208DF8130004A95748FFF7C6
:1017700071F84FF4E13000900020ADF80400ADF8AE
:101780000600ADF80800ADF80C000C20ADF80A001A
:1017900069464A48001FFFF7C0FBFFF76BFF0122B5
:1017A00040F224414548001FFFF74FFC0122402131
:1017B0004248001FFFF76EFC01214048001FFFF761
:1017C00038FC05B000BD70B504460D4629462046DC
:1017D000FFF79CFC00BF80212046FFF705FD002895
:1017E000F9D070BD2DE9F04107460D46164600249C
:1017F00005E0295D3846FFF7E6FF601CC4B2B4423D
:10180000F7DB00BF40213846FFF7EEFC0028F9D097
:10181000BDE8F08170B506460C46002500BF615D4D
:101820003046FFF7D0FF6D1C605D0028F7D100BF88
:1018300040213046FFF7D8FC0028F9D070BD2DE9D3
:10184000F04105460C46260AE7B231462846FFF726
:101850005DFC00BF80212846FFF7C6FC0028F9D0B8
:1018600039462846FFF752FC00BF80212846FFF783
:10187000BBFC0028F9D0BDE8F08170B504460D46E8
:10188000E1B20E48001FFFF741FC00BF80210B486A
:10189000001FFFF7A9FC0028F8D0204670BD10B546
:1018A000044600BF20210548001FFFF79DFC0028CB
:1018B000F8D00248001FFFF72DFC10BD043801408E
:1018C000FC100020580002403400002000080140B5
:1018D00008B501214820FFF779FA2020ADF8000073
:1018E00010208DF8030003208DF8020069460F4890
:1018F000FEF7B0FF2020ADF8000069460C48FEF767
:10190000A9FF0220ADF8000069460848FEF7A2FFD3
:1019100020210648FFF74BF820210548FFF747F83C
:1019200002210248FFF743F808BD0000000C014007
:101930000018014008B54FF4C060FEF705FD09200E
:101940008DF8000001208DF801008DF802008DF85F
:1019500003006846FEF7FDFC0A208DF8000068468B
:10196000FEF7F7FC08BD0EB501214120FFF72EFA66
:10197000FFF7E0FF0820ADF8080048208DF80B00C5
:1019800002A91948FEF766FF03210420FFF778F843
:101990000820009000208DF804000C208DF8050030
:1019A00001208DF806006846FEF774FE1020ADF8A1
:1019B000080048208DF80B0002A90B48FEF74AFFEB
:1019C00004210846FFF75CF81020009000208DF8F5
:1019D00004000C208DF8050001208DF806006846F3
:1019E000FEF758FE0EBD0000001801407047194870
:1019F0000068704770B5044602F02CFA0546154899
:101A00000460284602F02AFA70BD10B5114800683B
:101A1000401C1049086001F0F7FE0446206C401E8F
:101A20002064206C18B9E06B206401F08DFF02F097
:101A3000B5F910BD0146002902DA4FF0FF3008E089
:101A40004FF47A724A4302F2E7324FF47A7392FB10
:101A5000F3F07047400000200020704700207047DE
:101A6000002070470020704710B5234C02E020682A
:101A70008047241D21488442F9D310BD10B51F4C66
:101A800002E020688047241D1D488442F9D310BD20
:101A900010B50446FFF7F2FFFFF72BFC10BD1CB595
:101AA000142002210B020022CDE90010AFF21F0129
:101AB00014A001F003FF0446204601F0C6FE1CBD41
:101AC00010B502F0C7F9FFF761FD01F0FEF802F072
:101AD000A5F901F009FDFFF7E2FF02F0ABF900F014
:101AE00059F801F01BFD002010BD10B502F0B2F94D
:101AF000FFF7E6FF002010BD304400083444000822
:101B0000384400086D61696E0000000070B537E070
:101B100002F0A0F9054600F052F818B32C4800680E
:101B2000A0F1140404F11400D0E900215160D0E9BF
:101B3000001211604060006000BF01F086FD206F60
:101B400010B12046216F8847204601F096FC0128FD
:101B500005D101F088FD284602F080F970BD01F042
:101B600082FD03E0284602F079F9F7E7284602F003
:101B700075F9A06A01F0BAFA204601F06EFC00BFC8
:101B800000F01DF80028C3D100BFE7E701E0FFF730
:101B9000BDFFFCE71FB520200721C2000D4BCDE99A
:101BA0000032CDE9021000230B4A0CA10D4801F0D0
:101BB00011FE0C4801F049FE1FBD0A487047044958
:101BC0000868884201D0012070470020FCE700002F
:101BD000D40000205C1500208D1B00087469646C23
:101BE00065000000E41400204268116042684A6009
:101BF0004160086070472DE9F04105460C4690466B
:101C0000204601F0CFFEB8F1000F03D0B8F1010F6C
:101C100023D105E004F114012846FFF7E5FF1CE09D
:101C20002E680FE0A6F1140794F8350097F83510E8
:101C3000884206DA04F1140107F11400FFF7D4FF1B
:101C400002E03668AE42EDD100BFAE4204D104F1ED
:101C500014012846FFF7C8FF00BF00BF0020BDE801
:101C6000F08170B505460EE002F0F4F806462868EB
:101C7000A0F114044FF0FF302063204601F0C7FDAF
:101C8000304602F0EBF8284600F002FC0028EBD0CA
:101C9000002070BD2DE9F04104460D4616461F4652
:101CA0002A460121204601F088FB204600F0F8FB7F
:101CB000A68367720020BDE8F08110B5044604F1E8
:101CC0001400FFF7CEFF204601F095FB002010BD69
:101CD0002DE9F04105460E4617462946012001F040
:101CE00097FB044614B92046BDE8F081204600F079
:101CF000D7FBA68367722046F6E710B5044604F1C9
:101D00001400FFF7AEFF204601F0A7FB002010BD36
:101D100073B5054602F09EF80646A88B002806DD3E
:101D2000A88B401EA883304602F098F828E001985E
:101D300028B9304602F092F86FF001007CBD01F046
:101D400063FD0446002020636A7A214605F11400F1
:101D5000FFF751FF0198002809DD01AA002104F1D5
:101D6000440001F0FFFF04F1440001F06CFF304635
:101D700002F074F801F0E4FB206B08B1206BDDE7A2
:101D80000020DBE710B5044600212046FFF7C0FF26
:101D900010BD70B50446002502F05CF8064604F15B
:101DA000140000F075FB28B904F1140000F080FB6A
:101DB000012502E0A08B401CA083304602F04EF8C3
:101DC000012D01D101F0BCFB002070BD2DE9F041D7
:101DD00004460E461546012E10D12F4602F03AF861
:101DE000804604F11400FFF73CFFA783404602F051
:101DF00035F801F0A5FB0020BDE8F0814FF0FF3081
:101E0000FAE72DE9F04104460D4616461F46DDF877
:101E100018802A460421204601F0CFFA84F8098070
:101E2000204600F03DFBE661278400206084A0840A
:101E3000E08404F1280000F028FB0020BDE8F081D8
:101E400010B5044604F11400FFF70BFF04F128005D
:101E5000FFF707FF204601F0CEFA002010BD2DE964
:101E6000F04105460E4617462946042001F0D0FAF7
:101E7000044614B92046BDE8F0816772204600F0A0
:101E80000FFB2684218C880001F088F8E061E0696E
:101E900020B9204601F0E1FA0020ECE70020608440
:101EA000A084E08404F1280000F0EFFA2046E2E785
:101EB00010B5044604F11400FFF7D3FE04F1280026
:101EC000FFF7CFFEE06901F011F9204601F0C5FAF5
:101ED000002010BD2DE9F74304460E46002701F00F
:101EE00093FC054601F0B6FF8046608C218C884249
:101EF00007D1029828B9404601F0B0FFF81EBDE8AE
:101F0000FE8339E000202863029828B9404601F09A
:101F1000A5FF6FF00200F2E7627A294604F128007B
:101F2000FFF769FE029800280CDDFFF760FD074609
:101F300002AA002105F1440001F014FF05F144005C
:101F400001F081FE404601F089FF01F0F9FA286BAB
:101F500008B1286BD3E701F07DFF80460298002886
:101F60000ADDFFF744FDC71B0298C01B02900298D0
:101F7000002801DA00200290608C218C8842C1D0B8
:101F8000A18CE06940F82160A08C401CA084A08C4A
:101F9000218C884201DB0020A084608C401C60847E
:101FA00004F1140000F074FA50B904F1140000F0C8
:101FB0007FFA404601F052FF01F0C2FA00209EE78E
:101FC000404601F04BFF002099E770B504460D46EE
:101FD000002229462046FFF77DFF70BD2DE9F7431B
:101FE00004460E46002701F00FFC054601F032FFC3
:101FF0008046608C38B9029828B9404601F02EFF1F
:10200000B81EBDE8FE833AE000202863029830B98C
:10201000404601F023FF6FF001002863F1E7627A88
:10202000294604F11400FFF7E6FD029800280CDDB4
:10203000FFF7DDFC074602AA002105F1440001F08C
:1020400091FE05F1440001F0FEFD404601F006FF5F
:1020500001F076FA286B08B1286BD2E701F0FAFE9E
:102060008046029800280ADDFFF7C1FCC71B0298D2
:10207000C01B02900298002801DA00200290608CB8
:102080000028C1D0E18CE06950F821003060E08C7C
:10209000401CE084E08C218C884201DB0020E0843D
:1020A000608C401E608404F1280000F0F1F950B902
:1020B00004F1280000F0FCF9404601F0CFFE01F0E9
:1020C0003FFA00209DE7404601F0C8FE002098E757
:1020D0002DE9F04104460D461746012D16D101F0B9
:1020E000B9FE064604F11400FFF7BBFD04F1280019
:1020F000FFF7B7FD00206084A084E084304601F043
:10210000ADFE01F01DFA0020BDE8F0814FF0FF3078
:10211000FAE72DE9F05F04460F4690469946DDE95F
:102120000AAB3A460521204601F047F984F809B088
:10213000204600F0B5F9C4F81C8009F1030020F036
:1021400003002084208C001DBAFBF0F06084002086
:10215000A062E0622063002608E0208C001DE16997
:1021600006FB0015206B28602563761C608CB0424E
:10217000F3DC0020A084BDE8F09F10B5044604F114
:102180001400FFF76EFD204601F035F9002010BD68
:1021900010B5044604F11400FFF763FDE06900F098
:1021A000A5FF204601F059F9002010BD2DE9F047A8
:1021B0000746884691469A463946052001F028F997
:1021C000044614B92046BDE8F08784F809A02046EB
:1021D00000F066F908F1030020F003002084A4F861
:1021E0002290218C091D628C01FB02F000F0D6FECA
:1021F000E061E06920B92046FFF7CAFF0020E2E76E
:102200000020A062E0622063002508E0208C001D11
:10221000E16905FB0016206B306026636D1C608C45
:10222000A842F3DC0020A0842046CCE72DE9F04151
:1022300004460F461646208CB04203D24FF0FF30C2
:10224000BDE8F08101F006FE8046256B2DB94046C1
:1022500001F004FE6FF00200F2E7286820634046B8
:1022600001F0FCFD0020286032463946281D00F0B0
:102270009EF901F0EFFD8046E06A08B1E06A056072
:10228000E562A06A00B9A562A08C401CA08404F19C
:10229000140000F0FDF850B904F1140000F008F942
:1022A000404601F0DBFD01F04BF90020C8E7404655
:1022B00001F0D4FD0020C3E72DE9F04104460F46AC
:1022C0001646208CB04203D24FF0FF30BDE8F081BB
:1022D00001F0C0FD8046256B2DB9404601F0BEFDE2
:1022E0006FF00200F2E728682063404601F0B6FD77
:1022F00032463946281D00F05AF901F0ABFD804600
:10230000A06A2860A562E06A00B9E562A08C401C62
:10231000A08404F1140000F0BBF850B904F11400DB
:1023200000F0C6F8404601F099FD01F009F90020DF
:10233000CCE7404601F092FD0020C7E72DE9FF47BA
:1023400004460F4690464FF0000901F05DFA05463D
:1023500001F080FD8246A08C48B9039838B95046F8
:1023600001F07CFD6FF0010004B0BDE8F0873CE0B7
:1023700000202863039830B9504601F06FFD6FF0DC
:1023800001002863F0E7627A294604F11400FFF7A0
:1023900032FC039800280CDDFFF729FB814603AAD5
:1023A000002105F1440001F0DDFC05F1440001F0DD
:1023B0004AFC504601F052FD01F0C2F8286B08B10A
:1023C000286BD1E701F046FD8246039800280CDD1A
:1023D000FFF70DFBA0EB09090398A0EB09000390A0
:1023E0000398002801DA00200390A08C0028BFD0B9
:1023F000A66A3068A062E06AB04201D10020E062C3
:10240000A08C401EA084504601F028FD208C404541
:1024100001D2208C00E040460246311D384600F0D3
:10242000C6F801F017FD8246206B306026635046E7
:1024300001F014FD002097E72DE9F04104460E4617
:102440009046012E1ED101F005FD074604F114004F
:10245000FFF707FC0AE0A56A2868A062E06AA842C4
:1024600001D10020E062206B28602563A06A00286B
:10247000F1D1A084384601F0F1FC01F061F80020B0
:10248000BDE8F0814FF0FF30FAE740600060704730
:1024900001460868884201D1012070470020FCE70E
:1024A00010B5044604F11400FFF7EFFF002010BD43
:1024B00070B504462068A0F11405284601F0A7F97C
:1024C000002070BD10B501F0C5FC04460C48007832
:1024D000401C0B490870204601F0C0FC10BD10B52F
:1024E00001F0B8FC044606480078401E0449087014
:1024F000204601F0B3FC10BD014800787047000091
:102500004400002010B5FFF7F7FF10B1FA4800684B
:1025100010BD01F079F9044614B9F7480068F7E7EF
:10252000206BF5E770B50446FFF7E6FF10B1F248FF
:10253000046070BD01F068F9054615B9EE48046005
:10254000F7E72C6300BFF4E710B5FFF7D5FF08B13C
:10255000E94810BD01F058F9044614B104F1300007
:10256000F7E7E548F5E7F0B50C460546E6B2042A7C
:1025700015D300F0030797B9014646EA062343EA5C
:10258000034304E008C108C108C108C1103A102A79
:10259000F8D201E008C1121F042AFBD20D4601E067
:1025A00005F8016B171EA2F10102F9D1F0BD2DE96A
:1025B000F0410F46164604463D463346102B28D3BD
:1025C00005F0030C04F003084CEA080CBCF1000F02
:1025D0001FD121462A4610E052F804CB41F804CB23
:1025E00052F804CB41F804CB52F804CB41F804CBA9
:1025F00052F804CB41F804CB103B102BECD204E092
:1026000052F804CB41F804CB1B1F042BF8D20C4624
:10261000154603E015F801CB04F801CBB3F1000C2B
:10262000A3F10103F6D1BDE8F08170B50C46014677
:1026300023468B4210D29D188D420DD9114413446C
:1026400005E05D1E2B462E784D1E29462E70151E68
:10265000A2F10102F5D108E003E013F8015B01F8F3
:10266000015B151EA2F10102F7D170BDF0B5034662
:1026700000201C460D4608E026782F78F61B301EF9
:1026800000D004E0641C6D1C521E002AF4D800BF68
:10269000F0BD01460A4600E0521C10780028FBD12C
:1026A000501A7047F0B506460F463846FFF7F1FF5F
:1026B00005460DB93046F0BD3046FFF7EAFF044647
:1026C00009E0641E2A4639463046FFF7CFFF08B9B5
:1026D0003046F0E7761CAC42F3DA0020EBE730B589
:1026E00003460C4600BF13F8011B14F8012B4129C7
:1026F00002DB5A2900DC2031412A02DB5A2A00DCA5
:102700002032914201D10029EDD1881A30BD70B537
:102710000346A2B118460C4600BF14F8016B00F83E
:10272000016B3EB902E0002500F8015B551E2A1E30
:10273000F9D102E0551E2A1EEFD100BF00BF184696
:1027400070BD30B5034600200BE011F8015B1C782A
:10275000641B64B2201E02D113F8015B05B902E0CC
:10276000521E002AF1D100BF30BD024601E0521CCA
:10277000491C107818B110780B789842F7D010786F
:102780000B78C01A704702460B46114600E0491C00
:10279000087810B1881A9842F9D3881A704770B532
:1027A00004462046FFF775FF451C284600F0F6FB5F
:1027B00006460EB9002070BD2A4621463046FFF776
:1027C000F6FE3046F7E770472DE9F04F85B00D462D
:1027D0009C46DDE90F740E9B04F04008B8F1000F31
:1027E00002D0DFF8188101E0DFF81481CDF8008015
:1027F00004F01008B8F1000F01D024F0010404F037
:102800000108B8F1000F02D04FF0300801E04FF09E
:102810002008C246002604F00208B8F1000F11D0CB
:10282000002A02DA2D2652420CE004F00408B8F126
:10283000000F01D02B2605E004F00808B8F1000FC6
:1028400000D02026002142B94FF0300B8846491CA9
:102850000DF1040909F808B01DE01AE0E146B9F1EC
:102860000A0F08D14FF00A0BB2FBFBFE0BFB1E2830
:10287000B2FBFBF202E002F00F08120900BFDDF824
:10288000009019F808B08846491C0DF1040909F8B0
:1028900008B0002AE2D1B94200DD0F46DB1B04F08C
:1028A0001108B8F1000F10D116B1002B00DD5B1E2E
:1028B00006E0A84203D84FF0200880F80080401CB2
:1028C000B3F10008A3F10103F3DC26B1A84201D85B
:1028D00006705B1E401C04F01008B8F1000F0AD10E
:1028E00004E0A84201D880F800A0401CB3F1000821
:1028F000A3F10103F5DC0CE04800002019440008B6
:1029000008440008A84203D84FF0300880F800803F
:10291000401CB8467F1E8845F4DC08E0A84205D874
:102920000DF1040818F8018080F80080401CB1F116
:102930000008A1F10101F1DC06E0A84203D84FF044
:10294000200880F80080401CB3F10008A3F10103C7
:10295000F3DC05B0BDE8F08F0146002009E00B680C
:102960005A1C0A601A7800EB800302EB4302A2F1C2
:1029700030000A681278303A0A2AF0D370472DE9FD
:10298000FF4F89B0804644460A984044461E46455B
:1029900004D24FF0FF36A6EB08000A906FE10B98C7
:1029A0000078252806D0B44202D80B980078207011
:1029B000641C61E1002526E00B98401C0B900B98ED
:1029C00000782D2802D145F010051CE00B98007806
:1029D0002B2802D145F0040515E00B98007820283B
:1029E00002D145F008050EE00B980078232802D1AB
:1029F00045F0200507E00B980078302802D145F01B
:102A0000010500E000E0D7E700BF4FF0FF370B986B
:102A1000007830380A2804D20BA8FFF79DFF07463C
:102A20000EE00B9800782A280AD10B98401C0B90D6
:102A30000C9880C80C90002F02DA7F4245F01005F8
:102A40004FF0FF390B9800782E281CD10B98401CB2
:102A50000B900B98007830380A2804D20BA8FFF7A7
:102A60007BFF81460AE00B9800782A2806D10B9854
:102A7000401C0B900C9850F8049B0C90B9F1000F7F
:102A800001DA4FF00009002004900B9800786828C4
:102A900003D00B9800786C2805D10B98007804902F
:102AA0000B98401C0B900A2005900B9800786F281B
:102AB00075D00CDC632813D004DC252870D058288E
:102AC0006FD18DE064286DD06928F9D18FE070282E
:102AD0006AD0732825D0752878D07828F0D182E084
:102AE00005F0100040B904E0B44201D82020207065
:102AF000641C781E071EF7DC0C9810F8041B0C9061
:102B0000C8B20790B44201D807982070641C04E052
:102B1000B44201D820202070641C781E071EF7DC08
:102B2000AAE00C98006806900C98001D0C9006987E
:102B300008B9B1A006900698FFF7ABFD8346B9F13E
:102B4000000F02DDCB4500DDCB4605F0100048B993
:102B500004E0B44201D820202070641C38467F1E57
:102B60005845F6DC002008900BE0B44202D80698E5
:102B700000782070641C0698401C06900898401C41
:102B8000089008985845F0DB04E0B44201D82020B2
:102B90002070641C38467F1E5845F6DC6CE01CE053
:102BA00015E028E022E0FFE7781C10B9082745F07F
:102BB0000105CDE9007902950C9804C8102331462F
:102BC0000C902046FFF700FE044655E012E0B442A8
:102BD00001D825202070641C4EE0082005901DE0DF
:102BE00045F0400500BF1020059017E000BF45F0FC
:102BF000020500BF12E0B44201D825202070641CF9
:102C00000B98007830B1B44202D80B98007820704D
:102C1000641C02E00B98401E0B902DE000BF04984E
:102C20006C2807D10C9850F804AB0C9005F002000A
:102C3000B8B116E0049868280BD10C9830F8041B42
:102C40001FFA81FA0C9005F0020050B10FFA8AFACF
:102C500007E00C9850F804AB0C9005F0020000B1AE
:102C600000BFCDE900790295524631462046059BCA
:102C7000FFF7AAFD044600BF0B98401C0B900B9871
:102C8000007800287FF48BAEB44201D8207001E0B8
:102C900000203070A4EB08000DB0BDE8F08F0FB439
:102CA00038B505A800907F215548009B049AFFF78E
:102CB00066FE04467F2C00D97F245148FEF7A1FC14
:102CC0000020009038BC5DF814FB08B54DA0FFF75C
:102CD000E6FF4FA0FFF7E3FF56A0032300221946AB
:102CE000009057A0FFF7DBFF5DA0FFF7D8FF08BDFE
:102CF0000FB4F8B504460D4609A8009029462046B1
:102D0000009B089AFFF73BFE0646002000903046E5
:102D1000F8BC5DF814FB37B505460C4622464FF06B
:102D2000FF312846029BFFF72AFE3EBD0FB438B59F
:102D3000044606A800902046009A0599FFF7EBFF8D
:102D4000054600200090284638BC5DF814FB10B5FD
:102D5000044604B910BD2046FEF753FC00BFF9E756
:102D60002DE9F04107460C46E01C20F00304F81C56
:102D700020F0030000EB0408404600F00FF9054680
:102D800065B1601E284008B92E1904E0601E284471
:102D9000611E20EA010646F8045C35462846BDE877
:102DA000F08170B5044654F8045C284600F09EF9A2
:102DB00070BD014609B900207047C8B220B1C8B241
:102DC000324A105C401CF7E701F47F4028B12F48DD
:102DD000C1F30722805C0930EEE701F47F0028B1DF
:102DE0002A48C1F30742805C1130E5E7274800EB31
:102DF000116000781930DFE7284E554C4C2900004F
:102E00005C1600200A205C207C202F0A00000000B5
:102E10002D205254202D20202020205468726561DE
:102E200064204F7065726174696E672053797374A2
:102E3000656D0A004A616E2020372032303234003E
:102E4000202F207C205C202020202025642E25643B
:102E50002E2564206275696C642025730A000000C9
:102E60002032303036202D203230313820436F7000
:102E70007972696768742062792072742D7468723F
:102E8000656164207465616D0A00000008430008F4
:102E900030B5FB4C436824681919884215D04B881B
:102EA0009BB9F84B1B6899420FD0F74B1B688B42BC
:102EB00001D1F54B18604B684360F14B1B68C31A96
:102EC000EF4D4C682D682C44A360ED4C836824685A
:102ED0001A19824211D053887BB9EB4B1B6883428D
:102EE00001D1E94B1A6043685360E54B1B68D31A64
:102EF000E34D44682D682C44A36030BD2DE9F041BA
:102F000005460E46E81C20F0030726F00308B8F13A
:102F1000180F09D9A8F11800B84205D3A8EB07008B
:102F20001838DA49086006E032462946D8A0FFF78B
:102F3000B6FEBDE8F081D248076004684FF4F55052
:102F40002080D24800680C3060600020A060608063
:102F5000CB49606809680844CA4908604FF4F550D5
:102F6000096808800120C74909684880C748006887
:102F70000C30C44909684860C44800680C30C14935
:102F80000968886000230122D0A1D248FEF782FEA2
:102F9000BB480068BC49086000BFCAE72DE9F041A2
:102FA000054615B90020BDE8F081E81C20F00305B6
:102FB000B6480068854201D90020F4E70C2D00D204
:102FC0000C254FF0FF31C348FEF7A2FEAE48006863
:102FD000AB490968461A7EE0A948006884196088F0
:102FE000002874D106F10C006168081AA8426ED35B
:102FF00006F10C006168091A05F11800814230D30E
:1030000006F10C0000EB05089D48006800EB08077E
:103010004FF4F55038800020788060687860BE609A
:10302000C4F80480012060809848796800680C30FA
:10303000814205D09249786809680844C0F8088040
:10304000A548016805F10C000844A3490860A3489D
:1030500000680968884219D29F4800689F49086043
:1030600014E001206080864960680968611A401A8E
:1030700099490968084498490860984800680968AF
:10308000884203D294480068944908604FF4F55090
:1030900020807D480068844212D107E07A480068A9
:1030A00040687749096808447749086076480068AD
:1030B000408828B174480068724909688842EDD197
:1030C0008448FEF766FE04F10C006CE7FFE76C48ED
:1030D0000068304446686D480068401BB0423FF6C7
:1030E0007BAF7C48FEF755FE00205CE770B50546D7
:1030F00005B970BD62480068854203D36148006825
:10310000854200D3F5E7A5F10C044FF0FF3171487B
:10311000FEF7FEFD608818B12088B0F5F55F08D095
:103120006FA0FFF7BCFD23886288214673A0FFF7DC
:10313000B6FD002060804FF4F550208052480068B2
:10314000844201D2504804604D4960680968611AA0
:10315000401A61490968081A5F4908602046FFF76C
:1031600097FE5C48FEF715FE00BFC2E72DE9F05F51
:1031700006460C46E01C20F00304444800688442E4
:1031800002D90020BDE8F09F24B93046FFF7AEFF1A
:103190000020F7E71EB92046FFF700FFF2E74FF0E7
:1031A000FF314C48FEF7B4FD35480068864203D332
:1031B00034480068864204D34648FEF7EAFD3046AC
:1031C000E0E7A6F10C082E480068A8EB0009D8F843
:1031D0000400A0EB0900A0F10C07A74204D13D4870
:1031E000FEF7D7FD3046CDE704F11800B8422DD2E6
:1031F000381B39490968081A3749086009F10C0079
:1032000000EB040A1E48006800EB0A054FF4F55075
:10321000288000206880D8F804006860C5F808900D
:10322000C8F804A01948696800680C30814205D0CC
:103230001349686809680844C0F808A02846FFF7E1
:1032400027FE2448FEF7A5FD30469BE72148FEF700
:10325000A0FD2046FFF7A2FE8346BBF1000F0CD075
:10326000A74201D2384600E0204602463146584681
:10327000FFF79DF93046FFF739FF584682E7000017
:103280004C00002050000020540000205800002076
:103290006D656D20696E69742C206572726F722085
:1032A000626567696E20616464726573732030784B
:1032B00025782C20616E6420656E642061646472E0
:1032C00065737320307825780A00000068656170A6
:1032D00000000000DC1600205C00002060000020E0
:1032E000746F20667265652061206261642064618C
:1032F000746120626C6F636B3A0A00006D656D3A11
:10330000203078253038782C207573656420666C01
:1033100061673A2025642C206D6167696320636FC3
:1033200064653A203078253034780A0070B5044658
:103330000D4604FB05F0FFF731FE06462EB104FBF7
:1033400005F200213046FFF70EF9304670BD10B18E
:10335000054B1B68036011B1044B1B680B6012B175
:10336000034B1B6813607047580000205C0000206E
:10337000600000200268516002680A6001604860D5
:103380007047D0E900215160D0E90012116040601F
:10339000006070477047024600210AE0514800EB88
:1033A00001100078904203D14E4800EB01107047A5
:1033B000491C0629F2DB0020F9E72DE9F04104461B
:1033C0000D4616462846FFF7E6FF074645F0800003
:1033D0002072082231462046FFF799F900F03AFDA5
:1033E000804604F10C01381DFFF7C4FF404600F091
:1033F00035FDBDE8F08170B5044600F02BFD0546B3
:1034000004F10C00FFF7BDFF284600F027FD70BD5A
:103410002DE9F04105460F462846FFF7BCFF06465A
:10342000F068FFF7BBFD044614B90020BDE8F08149
:10343000257200206072082239462046FFF767F99E
:1034400000F008FD804604F10C01301DFFF792FFEB
:10345000404600F003FD2046E8E770B5044600F062
:10346000F9FC054604F10C00FFF78BFF284600F03D
:10347000F5FC2046FFF73AFE70BD0146087A00F0E1
:10348000800008B1012070470020FCE72DE9F041E1
:1034900004460D464FF00008002600270CB10B2D06
:1034A00002DD0020BDE8F08100F0CFF81FB928460A
:1034B000FFF771FF07467E680CE0A6F10C080822B2
:1034C00021464046FFF73DF918B900F0CCF84046D8
:1034D000E8E73668381D8642EFD100F0C4F80020D6
:1034E000E0E700006400002010B500206F4908806C
:1034F000002405E06E4901EBC40000F0D3F8641C21
:10350000082CF7DB07206B49087000206A49086027
:103510006A4908606A4800F0C5F810BD70B5674890
:103520000068FFF746FC451E614850F83500A0F1E1
:1035300014046148046004F11C0000F0C0FC70BD7C
:103540002DE9F04100F086FC07465848008868BB2A
:103550005A480068FFF72DFC461E554850F83600C3
:10356000A0F114045448006884421BD051490E70E5
:103570005148056804605348007848B904F11C01BB
:1035800005F11C0000F06DFC384600F067FC0CE013
:1035900004F11C0105F11C0000F063FC384600F04A
:1035A0005DFC02E0384600F059FC02E0384600F0CD
:1035B00055FCBDE8F08170B5044600F04BFC0546B3
:1035C00014F8340F20F00F0040F0010020706278F2
:1035D000343C374B03EBC20004F114014268116024
:1035E00042684A604160086000BF3449A06B0968C6
:1035F000084332490860284600F030FC70BD70B5C1
:10360000044600F027FC054604F11400D0E900212F
:103610005160D0E9001211604060006000BF94F872
:103620003510234A02EBC1000168814201D101211A
:1036300000E0002129B12148A16B006888431F499F
:103640000860284600F00AFC70BD10B500F002FCCE
:10365000044616480088401C00B2144908802046E1
:1036600000F0FCFB10BD10B500F0F4FB04460F4861
:103670000088401E00B20D4908800846B0F90000DD
:10368000002807DC00200880204600F0E7FBFFF759
:1036900057FF02E0204600F0E1FB10BD0348008820
:1036A00080B270474060006070470000C400002096
:1036B000FC160020CC000020C8000020D000002014
:1036C000D4000020440000200268516002680A60B3
:1036D000016048607047D0E900215160D0E90012D4
:1036E000116040600060704770B5FE48046800F0EB
:1036F000B1FB05462046FFF782FF042084F8340022
:1037000004F1440000F064FA2046FFF7B6FE0128F9
:1037100005D1206F18B92046FFF76DFE04E004F1D3
:103720001401F148FFF7D0FF284600F097FBFFF7A0
:1037300007FF70BD70B5044625466FF00100286391
:1037400005F11400FFF7C7FF2846FFF734FFFFF726
:10375000F7FE70BD2DE9FC5F04468B4615461E46FC
:10376000DDE90C9ADDE90E7804F114004060006098
:1037700000BF1C346560A660C4F80C90C4F810A0AB
:103780002321D4E90302FEF7EEFED4E9033C6344AF
:103790001A1FAFF2AB03D4E9010100F0D3FB2060A4
:1037A000A77667760020E061C4F82080C4F8248002
:1037B000606120766065A0651C3C00902346AFF2F6
:1037C0008B022146019004F1440000F0EAF9002048
:1037D000BDE8FC9F2DE9FF5F05460C4616461F46D7
:1037E000DDE910ABDDE90E89224600212846FFF70E
:1037F000E4FD3B463246214628468DE8000FFFF7A0
:10380000A9FF04B0BDE8F09FB6480068704770B5E6
:10381000044694F8340000F00F00022802D04FF064
:10382000FF3070BD00F016FB054604F11400FFF7F1
:1038300052FF04F1440000F07DFA284600F00EFB30
:103840002046FFF7B8FE0020EBE710B504463434FD
:10385000A07860706178012088406060022004F8E0
:1038600034092046FFF7D3FFFFF7CEFF08B1FFF77B
:1038700067FE002010BD70B5044694F8340000F0D7
:103880000F0010B12046FFF7BAFE04F1440000F02B
:103890009FF9042084F834002046FFF7ACFD206F28
:1038A00050B100F0D7FA054604F114018E48FFF735
:1038B0000BFF284600F0D2FA002070BD2DE9FF5F13
:1038C00006460F4690461D46DDE90EAB3146002008
:1038D000FFF79EFD8146B9F1000F03D1002004B02F
:1038E000BDE8F09F2846FFF759FB044624B9484637
:1038F000FFF7B3FD0020F2E743463A46314648461B
:103900008DE8300CFFF726FF4846E8E770B504461F
:1039100094F8340000F00F0010B12046FFF76FFE5E
:1039200004F1440000F054F9042084F8340000F05D
:1039300091FA054604F114016B48FFF7C5FE2846CD
:1039400000F08CFA002070BD70B500F083FA0546D7
:103950006448046894F8340000F00F0001281CD17A
:10396000D4E90510814218D004F11400FFF7B3FE2A
:1039700094F835205D4B03EBC20004F1140142685A
:10398000116042684A604160086000BF284600F04C
:1039900065FAFFF7D5FD002070BD284600F05EFAFD
:1039A0000020F9E770B5044694F8340000F00F00E9
:1039B000012802D04FF0FF3070BD00F04BFA0546F1
:1039C00094F8340020F00F0040F0020084F8340036
:1039D0002046FFF714FE04F1440000F0ABF928463E
:1039E00000F03CFA0020E7E731B500F033FA054675
:1039F0003C4804682046FFF7D5FF6A46002104F1E1
:103A0000440000F0AFF904F1440000F01CF928462E
:103A100000F024FAFFF794FD206B801C08B9002009
:103A20002063002038BD10B504462046FFF7DCFFB8
:103A300010BD2DE9F04104460E4615463EB3012E59
:103A40002AD0022E2CD100F005FA074694F8340053
:103A500000F00F0001280ED12046FFF7D0FD287896
:103A600084F8350094F8351001208840A063204682
:103A7000FFF7A1FD07E0287884F8350094F83510A9
:103A800001208840A063384600F0E8F909E02046AC
:103A9000FFF7DBFEBDE8F0812046FFF737FFF9E7CF
:103AA00000BF00BF0020F5E72DE9F0410646FFF713
:103AB000ABFE08B1FFF7C9FD0020FFF76CFC044620
:103AC000656816E0A5F10C07082231463846FEF776
:103AD00038FE68B9FFF798FE08B1FFF7C4FD384615
:103AE000BDE8F081C8000020D4000020FC160020B2
:103AF0002D68201D8542E5D1FFF786FE08B1FFF74E
:103B0000B2FD0020ECE700000268516002680A6024
:103B10000160486070472DE9F04704460E4617469D
:103B20009846DDF8209084F80990607A20F0010032
:103B30006072E66127620020A062C4F8248000253C
:103B400006E004F1140101EBC50000F074F96D1CEE
:103B5000012DF6DBBDE8F08770B50446204600F085
:103B60006DF910B14FF0FF3070BD2068A0F1140561
:103B7000A86AF9E710B50246002001460EE002F1FE
:103B8000140303EBC100D0E900436360D0E90034C3
:103B900023604060006000BF481C01460129EEDB45
:103BA00010BD2DE9F84307460C4615461E46DDE9D3
:103BB0000889224609213846FFF7FFFB4346324673
:103BC00029463846CDF80090FFF7A5FFBDE8F883F9
:103BD00070B5044600F03EF905462046FFF7CAFFDF
:103BE000284600F03BF92046FFF705FC002070BD99
:103BF0002DE9F84304460E4617469846DDF8209016
:103C000021460920FFF704FC054615B90020BDE850
:103C1000F88343463A4631462846CDF80090FFF7F0
:103C20007AFF2846F3E770B5044600F013F905461D
:103C30002046FFF79FFF284600F010F92046FFF7C7
:103C40000CFC002070BD2DE9F843054600F002F998
:103C500080462846FFF78EFF687A20F001006872E0
:103C6000404600F0FBF8FDF7C2FE696A0844A8620E
:103C700000F0F0F88046754F009700242AE019E024
:103C80005DF824201168142202EBC402881A826AAB
:103C9000AB6AD21A00D108E0826AAB6AD21A6FF01E
:103CA00000439A4200D20CE000BF5DF82400006897
:103CB0004DF824005DF8240007EBC40149688842F0
:103CC000DED100BF2CB15DF824000830611C4DF836
:103CD0002100641C002CD2D05D480068401C5C4967
:103CE00008600846066805F114010098FFF70CFF0C
:103CF000022412E006F0030060B9C4F1010305F1EB
:103D0000140202EBC301C4F101025DF82200FFF7C7
:103D1000FBFE00E003E0B608641C012CEAD900BFFA
:103D2000687A40F001006872404600F097F8002081
:103D3000BDE8F88370B50446607A00F0010010B960
:103D40004FF0FF3070BD00F085F805462046FFF7C4
:103D500011FF284600F082F8607A20F001006072BE
:103D60000020EFE7034649B1012904D0022908D019
:103D7000032910D10AE0586A10600CE010685862FC
:103D800009E0587A20F00200587204E0587A40F0B6
:103D90000200587200BF00BF0020704770B5FDF7E9
:103DA00026FE054600F056F8064628E0274800683B
:103DB000A0F11404A06A281A6FF0004188421DD2B5
:103DC0002046FFF7D7FED4E907108847FDF70FFE1E
:103DD0000546607A00F0020058B1607A00F00100F8
:103DE00038B1607A20F0010060722046FFF72BFFA7
:103DF00005E0607A20F00100607200E004E0134802
:103E000000F01CF80028D1D000BF304600F026F8A2
:103E100070BD10B50D48FFF79FFE10BD10B5002412
:103E200005E00A4901EBC40000F005F8641C002C11
:103E3000F7D010BD704740600060704701460868C9
:103E4000884201D1012070470020FCE7DC000020FF
:103E5000E4000020EFF3108072B6704780F3108802
:103E60007047324A1368012B04D04FF001031360EE
:103E70002F4A10602F4A11602F484FF08051016087
:103E80007047EFF3108272B62848016891B14FF085
:103E9000000101602648016829B1EFF3098121E999
:103EA000F00F00680160234909680968B1E8F00F64
:103EB00081F3098882F310884EF0040E70471D4983
:103EC00008601B494FF00000086018494FF00100DE
:103ED00008601A484FF47F01D0F8002041EA02013F
:103EE000016015484FF08051016015480068006876
:103EF00080F3088861B662B670471EF0040F14BFE5
:103F0000EFF30880EFF3098020E9F00F40F804EDAB
:103F100014BF80F3088880F3098800B500F038F8F2
:103F20005DF804EB4EF0040E70470000F000002036
:103F3000E8000020EC00002004ED00E020ED00E0AF
:103F400008ED00E0F0B504460D461646301D20F0A1
:103F5000070040380146002203E03F4F41F822703D
:103F6000521C102AF9D30D624FF0000CC1F824C086
:103F7000C1F828C0C1F82CC0C1F830C04B638C63B5
:103F80004FF0807CC1F83CC0F0BD344908607047F8
:103F900070B505462C1D3148006838B128462F49B8
:103FA00009688847064606B970BD00BF2CA0E16BC2
:103FB000FEF775FE2EA0216AFEF771FE30A0616A41
:103FC000FEF76DFE32A0A16AFEF769FE34A0E16A39
:103FD000FEF765FE36A02168FEF761FE38A0616835
:103FE000FEF75DFE3AA0A168FEF759FE3CA0E1682D
:103FF000FEF755FE3EA02169FEF751FE40A0616923
:10400000FEF74DFE42A0A169FEF749FE44A0E1691A
:10401000FEF745FE46A0216BFEF741FE48A0616B0E
:10402000FEF73DFE4AA0A16BFEF739FE287800F0AE
:10403000040038B1FFF7E8FB0646314648A0FEF71A
:104040002EFE02E04EA0FEF72AFE00BFFEE710B5EE
:1040500052A0FEF724FE10BDEFBEADDEF40000203E
:104060007073723A203078253038780A00000000EA
:104070007230303A203078253038780A000000005D
:104080007230313A203078253038780A000000004C
:104090007230323A203078253038780A000000003B
:1040A0007230333A203078253038780A000000002A
:1040B0007230343A203078253038780A0000000019
:1040C0007230353A203078253038780A0000000008
:1040D0007230363A203078253038780A00000000F7
:1040E0007230373A203078253038780A00000000E6
:1040F0007230383A203078253038780A00000000D5
:104100007230393A203078253038780A00000000C3
:104110007231303A203078253038780A00000000BB
:104120007231313A203078253038780A00000000AA
:104130007231323A203078253038780A0000000099
:10414000206C723A203078253038780A0000000060
:104150002070633A203078253038780A000000005B
:1041600068617264206661756C74206F6E2074687B
:10417000726561643A2025730D0A0D0A0000000083
:1041800068617264206661756C74206F6E2068616E
:104190006E646C65720D0A0D0A0000007368757418
:1041A000646F776E2E2E2E0A00000000D2B201E05E
:1041B00000F8012B491EFBD270470022F6E710B52C
:1041C00013460A4604461946FFF7F0FF204610BD85
:1041D000064C074D06E0E06840F0010394E8070054
:1041E00098471034AC42F6D3FBF7A6FF3C440008D6
:1041F0005C4400080FB4054B10B503A9044A0298AB
:1042000000F017F810BC5DF814FB00007B180008E4
:10421000F800002002E008C8121F08C1002AFAD1E5
:1042200070477047002001E001C1121F002AFBD136
:1042300070472DE9F84F9946924688460546002773
:1042400006E025280AD051464A4690476D1C7F1C3F
:1042500028780028F5D13846BDE8F88F002315F8F6
:10426000011F18462E2915D115F8011F04232A29EC
:104270000DD06FF02F022978A1F13004092C09D854
:1042800000EB800002EB400008446D1CF3E758F897
:10429000040B6D1C2A78002ADDD0632A07D0732A0C
:1042A0000FD0104651464A4690477F1C2AE018F826
:1042B000042B8DF8002000218DF801106E4601219D
:1042C00003E058F8046B4FF0FF315A074FF0000439
:1042D00001D409E0641C84420BDA8C42FADB325DC3
:1042E000002AF7D105E0641C8C42FCDB305D00281D
:1042F000F9D1274404E016F8010B51464A4690478D
:10430000641EF8D26D1CA3E700000100020001004A
:10431000030001000200010004000100020001008E
:10432000030001000200010005000100020001007D
:10433000030001000200010004000100020001006E
:10434000030001000200010006000100020001005C
:10435000030001000200010004000100020001004E
:10436000030001000200010005000100020001003D
:10437000030001000200010004000100020001002E
:10438000030001000200010007000100020001001B
:10439000030001000200010004000100020001000E
:1043A00003000100020001000500010002000100FD
:1043B00003000100020001000400010002000100EE
:1043C00003000100020001000600010002000100DC
:1043D00003000100020001000400010002000100CE
:1043E00003000100020001000500010002000100BD
:1043F00003000100020001000400010002000100AE
:104400000300010002000100303132333435363709
:104410003839616263646566003031323334353671
:10442000373839414243444546000000591A0008D4
:104430005D1A0008611A0008651A00085C4400084B
:1044400000000020FC00000014420008584500084D
:10445000FC000020441A00002442000800A24A0484
:104460000000000000000000010203040607080924
:10447000000000000102030401020304060708090A
:104480000204060800000000000000000000000018
:10449000000000000100000000000000000000001B
:1044A000000000000000000000000000000000000C
:1044B00000000000000000000000000000000000FC
:1044C0000000000068000020680000207800000064
:1044D000010000007800002078000020200000008B
:1044E0000400000088000020880000203000000048
:1044F0000500000098000020980000203400000013
:1045000007000000A8000020A800002038000000DC
:1045100009000000B8000020B80000202C000000B6
:10452000000000000000000000000000000000008B
:10453000000000000000000000000000000000007B
:10454000000000000000000000000000000000006B
:08455000000000000000000063
:0400000508000131BD
:00000001FF
