:020000040000FA
:10000000580F0020CD0100004B07000043070000FF
:10001000470700002D030000C50800000000000095
:100020000000000000000000000000004D0700007C
:1000300031030000000000006B0200004F070000C9
:10004000E7010000E7010000E7010000E701000010
:10005000E7010000E7010000E7010000E701000000
:10006000E7010000E7010000E7010000E7010000F0
:10007000E7010000E7010000E7010000E7010000E0
:10008000E7010000E7010000E7010000E7010000D0
:10009000E7010000E7010000E7010000E7010000C0
:1000A000E7010000E7010000E7010000E7010000B0
:1000B000E7010000E7010000E7010000E7010000A0
:1000C000E7010000E7010000E7010000E701000090
:1000D000E7010000B5080000E7010000E7010000AB
:1000E000E7010000E7010000E7010000E701000070
:1000F000E7010000E7010000E7010000E701000060
:10010000E7010000E7010000E7010000E70100004F
:10011000E7010000E7010000E7010000E70100003F
:10012000E7010000E7010000E7010000E70100002F
:1001300000F002F800F03AF80AA090E8000C8244BF
:100140008344AAF10107DA4501D100F02FF8AFF29C
:10015000090EBAE80F0013F0010F18BFFB1A43F0A5
:1001600001031847B40B0000D40B0000103A24BF61
:1001700078C878C1FAD8520724BF30C830C144BF0C
:1001800004680C607047000000230024002500264E
:10019000103A28BF78C1FBD8520728BF30C148BFEA
:1001A0000B6070471FB51FBD10B510BD00F08BF878
:1001B0001146FFF7F7FF00F0A9FB00F0A9F803B420
:1001C000FFF7F2FF03BC00F07FFB00000948804707
:1001D00009480047FEE7FEE7FEE7FEE7FEE7FEE729
:1001E000FEE7FEE7FEE7FEE704480549054A064B41
:1001F000704700005F07000031010000580900202F
:10020000580F0020580B0020580B0020EFF31080EF
:1002100072B6704780F310887047234908602349FD
:100220004FF00000086022494FF0010008602148AB
:100230004FF47F01D0F8002041EA020101601E481E
:100240004FF08051016061B662B6194A1368012B04
:1002500004D04FF001031360144A1060124A116079
:1002600015484FF0805101607047EFF3108272B66D
:100270000F48016891B14FF0000101600B4801681F
:1002800029B1EFF3098121E9F00F00680160064907
:1002900009680968B1E8F00F81F3098882F31088D2
:1002A0004EF0040E704700001800002014000020DB
:1002B0001C00002020ED00E004ED00E070477047D6
:1002C000704770477047754600F02CF8AE46050041
:1002D0006946534620F00700854618B020B5FFF761
:1002E00083FFBDE820404FF000064FF000074FF0BD
:1002F00000084FF0000B21F00701AC46ACE8C00944
:10030000ACE8C009ACE8C009ACE8C0098D4670474C
:1003100010B50446AFF300802046BDE81040FFF75B
:100320004EBF000000487047F408002000BFFEE701
:100330007047000070B50446002594F8210002289B
:1003400003D00420A0630125C1E02068006820F0EC
:100350000E00216808602068006820F00100216814
:1003600008605C492068884252D95A497839206827
:10037000884201D1012047E056496439206888420B
:1003800001D1102040E0534950392068884201D102
:10039000801539E04F493C392068884201D18014EA
:1003A00032E04C4928392068884202D14FF480302D
:1003B0002AE0484914392068884202D14FF480105D
:1003C00022E044492068884201D140041CE04249AF
:1003D0002068884201D1012016E03F49143120688D
:1003E000884201D110200FE03B4928312068884223
:1003F00001D1801508E038493C312068884201D19C
:10040000801401E04FF480303349091F086051E047
:10041000304978392068884201D1012047E02D49D0
:1004200064392068884201D1102040E029495039C0
:100430002068884201D1801539E026493C3920687E
:10044000884201D1801432E022492839206888424C
:1004500002D14FF480302AE01E49143920688842C6
:1004600002D14FF4801022E01A492068884201D15D
:1004700040041CE018492068884201D1012016E0A0
:10048000154914312068884201D110200FE012492B
:1004900028312068884201D1801508E00E493C319E
:1004A0002068884201D1801401E04FF4803009496E
:1004B00080394860012084F8210000BF002084F8C2
:1004C000200000BF606B10B12046616B8847284652
:1004D00070BD000080000240080402407047000028
:1004E0002DE9F0470446206805682068C668206842
:1004F00047694FF00008C14605F00F08B8F1000F3A
:100500000AD105F0200038B106F0200020B12046C5
:1005100000F050F9BDE8F087B8F1000F71D007F096
:10052000010018B906F4907000286AD005F00100A7
:1005300030B106F4807018B1E06B40F00100E06368
:1005400005F0040030B107F0010018B1E06B40F095
:100550000200E06305F0020030B107F0010018B1BD
:10056000E06B40F00400E06305F0080048B106F0DD
:10057000200010B907F0010018B1E06B40F008004E
:10058000E063E06B68B305F0200028B106F02000BE
:1005900010B1204600F00EF920684069C0F38019C0
:1005A000E06B00F0080010B9B9F1000F22D020462E
:1005B00000F0E0F82068406900F04000B0B1206829
:1005C000406920F0400021684861606B50B11848D4
:1005D000616B4863606BFFF7ADFE10B1606B416B00
:1005E00088470CE02046FFF779FF08E02046FFF738
:1005F00075FF04E02046FFF771FF0020E06389E704
:10060000FFE705F0800030B106F0800018B1204609
:1006100000F020F97EE705F0400030B106F0400020
:1006200018B1204600F0B6F874E700BF72E700008A
:100630006107000010B5034693F83A0020282FD137
:1006400001B10AB9012010BD00BF93F8380001289C
:1006500001D10220F7E7012083F8380000BF99623A
:100660009A85DA850020D863222083F83A0000BFFB
:10067000002083F8380000BF1868C06840F480701C
:100680001C68E0601868406940F001001C68606107
:100690001868C06840F020001C68E0600020D2E7C5
:1006A0000220D0E710B504462049206888423BD19B
:1006B0001F48008800F4004088BB1D48008800F4F3
:1006C000804070B11B4800780A2803D000201849E8
:1006D000088024E01648008840F40040144908804F
:1006E0001DE0144800780D2806D11148008840F418
:1006F00080400F49088012E00E4800780C490988B4
:10070000C1F30D010C4A505409480088401C0849A7
:10071000088008460088C72801DD002008800122E3
:1007200004490648FFF786FF10BD0000003801406D
:100730001000002012000020B804002080050020D6
:10074000704700BFFEE700BFFEE77047704710B577
:1007500000F074F900F0C4FA00F080F910BD7047A1
:1007600070B505466C6A0020E085E0842046FFF7FE
:10077000B5FE70BD0168C96821F490710268D1604E
:100780000168496921F0010102685161202180F866
:100790003A10704710B504462068C06820F0400049
:1007A0002168C860202084F839002046FFF7C8FF80
:1007B000002010BD70B5044694F83A00222847D1B5
:1007C000A068B0F5805F0CD1206950B90025A66AF9
:1007D00020684068C0F308003080A06A801CA062D6
:1007E00015E0A56A0026A068B0F5805F03D0A06878
:1007F00028B9206918B920684068287004E020688A
:10080000406800F07F002870A06A401CA062E08D64
:10081000401E80B2E085C8B92068C06820F0200082
:100820002168C8602068C06820F480702168C860B2
:100830002068406920F0010021684861202084F888
:100840003A002046FFF72EFF002070BD0020FCE795
:100850000220FAE7014691F83900212828D188685A
:10086000B0F5805F0BD1086948B90A6A1088C0F3F7
:1008700008000B685860086A801C086205E00B6A73
:10088000581C086218780B685860C88C401E80B2EB
:10089000C88458B90868C06820F080000B68D86028
:1008A0000868C06840F040000B68D86000207047BE
:1008B0000220FCE710B50248FFF712FE10BD000051
:1008C0008005002000BFFEE700BF704700BF012089
:1008D00005490860142000F0A7F9002002490860CB
:1008E000142000F0A1F9F2E70000002000BF012071
:1008F00005490860142000F097F9002002490860BB
:10090000142000F091F9F2E7040000207CB5FFF715
:100910007DFC284800684FF47A72B0FBF2F1481E63
:10092000B0F1807F00D31BE0481E4FF0E022506101
:1009300050170F22002804DB13071C0E1E4B1C54FB
:1009400006E013071D0E1D4B00F00F04241F1D555C
:1009500000BF00204FF0E02290610720106100BF2F
:1009600000F03CF900F074F94FF4007014490023D2
:10097000144ACDE9001014A1174800F08DF916496A
:100980001431164800F07AF84FF40070144900232F
:10099000144ACDE9001014A1174800F07DF916495A
:1009A00014310E48083000F069F800F02DF90020ED
:1009B0007CBD00000800002000E400E018ED00E02D
:1009C00050000020CD08000072745F666C616731D2
:1009D0005F7468726561640050040020C0050020E7
:1009E00050020020ED08000072745F666C6167328F
:1009F0005F7468726561640084040020F0B503468A
:100A00000C461546281D20F00700403801460022FC
:100A100003E0094E41F82260521C102AF9D30C62FF
:100A200000274F628F62CF620F634F638B634FF07B
:100A30008077CF63F0BD0000EFBEADDE10B5FFF7ED
:100A4000E5FB044604480078401C03490870204632
:100A5000FFF7E0FB10BD00004C00002010B5FFF7D1
:100A6000D5FB044604480078401E03490870204620
:100A7000FFF7D0FB10BD00004C0000204268116061
:100A800042684A60416008607047000002460021E9
:100A90000AE0074800EB01100078904203D10448B7
:100AA00000EB01107047491C0229F2DB0020F9E736
:100AB000240000202DE9F04104460D461646284644
:100AC000FFF7E4FF074645F0800020720822314618
:100AD000204600F069F8FFF799FB8046381D04F1C5
:100AE0000C010268516002680A600160486000BF42
:100AF0004046FFF78FFBBDE8F081000070B5264847
:100B000000682649884210D12548006B20B9224848
:100B10000568234C046036E02248006B20B91E486B
:100B20000568204C04602EE070BD1B4800681C491D
:100B3000884211D11B48006B20B917480568194C31
:100B4000046020E014480068006B20B1124805687A
:100B5000124C046017E0E7E70F480068114988422B
:100B600011D10F48006B20B90B4805680C4C04608C
:100B700009E009480068006B20B107480568074C88
:100B8000046000E0D0E704F11C0105F11C00FFF750
:100B90005CFB00BFC8E7000020000020C008002068
:100BA000500400208404002070B50346A2B118460A
:100BB0000C4600BF14F8016B00F8016B3EB902E06F
:100BC000002500F8015B551E2A1EF9D102E0551ED2
:100BD0002A1EEFD100BF00BF184670BD002001469D
:100BE00007E0074A02EBC1004060006000BF481CFC
:100BF00001462029F5DB0020024A10607047000002
:100C0000C00500202000002010B505480068A0F1B4
:100C100014040448046004F11C00FFF7FEFA10BD40
:100C2000C00500202000002070B504460248056879
:100C30002C63FFF763FF70BD2000002000BF04E0BD
:100C400002490968491C014A1160F9E74400002083
:100C50001CB54FF400700A4900230A4ACDE9001080
:100C600009A10B4800F018F80A49094814304A68ED
:100C700010604A6842604860016000BF1CBD00000F
:100C8000C00600203D0C000069646C650000000097
:100C9000C0080020B80600202DE9F04704460D46A4
:100CA00016461F46DDE908892A4600212046FFF73F
:100CB00001FF04F114004060006000BF266267621B
:100CC000C4F82880C4F82C90D4E90A3C63441A1F65
:100CD000D4E90801FFF792FEE0610020BDE8F0874B
:100CE00070B50B480068401C0949086000250AE0FF
:100CF000084850F83500A0F11404206B10B1206BA7
:100D0000401E20636D1C202DF2D3FFF7F7FE70BD4F
:100D100048000020C0050020380D00000000002021
:100D2000500000006C010000880D00005000002001
:100D3000080F000088010000000000000000000013
:100D40000024F4000000000000000000000000008B
:100D50000000000000000000000000000000000093
:100D600028000020280000203400000000000000BF
:100D70000000000000000000000000000000000073
:080D800000000000000000006B
:0400000500000131C5
:00000001FF
