:020000040000FA
:1000000018150020CD0100004B0700004307000039
:10001000470700002D030000C50800000000000095
:100020000000000000000000000000004D0700007C
:1000300031030000000000006B0200004F070000C9
:10004000E7010000E7010000E7010000E701000010
:10005000E7010000E7010000E7010000E701000000
:10006000E7010000E7010000E7010000E7010000F0
:10007000E7010000E7010000E7010000E7010000E0
:10008000E7010000E7010000E7010000E7010000D0
:10009000E7010000E7010000E7010000E7010000C0
:1000A000E7010000E7010000E7010000E7010000B0
:1000B000E7010000E7010000E7010000E7010000A0
:1000C000E7010000E7010000E7010000E701000090
:1000D000E7010000B5080000E7010000E7010000AB
:1000E000E7010000E7010000E7010000E701000070
:1000F000E7010000E7010000E7010000E701000060
:10010000E7010000E7010000E7010000E70100004F
:10011000E7010000E7010000E7010000E70100003F
:10012000E7010000E7010000E7010000E70100002F
:1001300000F002F800F03AF80AA090E8000C8244BF
:100140008344AAF10107DA4501D100F02FF8AFF29C
:10015000090EBAE80F0013F0010F18BFFB1A43F0A5
:10016000010318477812000098120000103A24BFCB
:1001700078C878C1FAD8520724BF30C830C144BF0C
:1001800004680C607047000000230024002500264E
:10019000103A28BF78C1FBD8520728BF30C148BFEA
:1001A0000B6070471FB51FBD10B510BD00F08BF878
:1001B0001146FFF7F7FF00F027FC00F0A9F803B4A1
:1001C000FFF7F2FF03BC00F0DDFB000009488047A9
:1001D00009480047FEE7FEE7FEE7FEE7FEE7FEE729
:1001E000FEE7FEE7FEE7FEE704480549054A064B41
:1001F000704700005F07000031010000180F002069
:10020000181500201811002018110020EFF310809D
:1002100072B6704780F310887047234908602349FD
:100220004FF00000086022494FF0010008602148AB
:100230004FF47F01D0F8002041EA020101601E481E
:100240004FF08051016061B662B6194A1368012B04
:1002500004D04FF001031360144A1060124A116079
:1002600015484FF0805101607047EFF3108272B66D
:100270000F48016891B14FF0000101600B4801681F
:1002800029B1EFF3098121E9F00F00680160064907
:1002900009680968B1E8F00F81F3098882F31088D2
:1002A0004EF0040E70470000200000201C000020CB
:1002B0002400002020ED00E004ED00E070477047CE
:1002C000704770477047754600F02CF8AE46050041
:1002D0006946534620F00700854618B020B5FFF761
:1002E00083FFBDE820404FF000064FF000074FF0BD
:1002F00000084FF0000B21F00701AC46ACE8C00944
:10030000ACE8C009ACE8C009ACE8C0098D4670474C
:1003100010B50446AFF300802046BDE81040FFF75B
:100320004EBF000000487047B80E002000BFFEE737
:100330007047000070B50446002594F8210002289B
:1003400003D00420A0630125C1E02068006820F0EC
:100350000E00216808602068006820F00100216814
:1003600008605C492068884252D95A497839206827
:10037000884201D1012047E056496439206888420B
:1003800001D1102040E0534950392068884201D102
:10039000801539E04F493C392068884201D18014EA
:1003A00032E04C4928392068884202D14FF480302D
:1003B0002AE0484914392068884202D14FF480105D
:1003C00022E044492068884201D140041CE04249AF
:1003D0002068884201D1012016E03F49143120688D
:1003E000884201D110200FE03B4928312068884223
:1003F00001D1801508E038493C312068884201D19C
:10040000801401E04FF480303349091F086051E047
:10041000304978392068884201D1012047E02D49D0
:1004200064392068884201D1102040E029495039C0
:100430002068884201D1801539E026493C3920687E
:10044000884201D1801432E022492839206888424C
:1004500002D14FF480302AE01E49143920688842C6
:1004600002D14FF4801022E01A492068884201D15D
:1004700040041CE018492068884201D1012016E0A0
:10048000154914312068884201D110200FE012492B
:1004900028312068884201D1801508E00E493C319E
:1004A0002068884201D1801401E04FF4803009496E
:1004B00080394860012084F8210000BF002084F8C2
:1004C000200000BF606B10B12046616B8847284652
:1004D00070BD000080000240080402407047000028
:1004E0002DE9F0470446206805682068C668206842
:1004F00047694FF00008C14605F00F08B8F1000F3A
:100500000AD105F0200038B106F0200020B12046C5
:1005100000F050F9BDE8F087B8F1000F71D007F096
:10052000010018B906F4907000286AD005F00100A7
:1005300030B106F4807018B1E06B40F00100E06368
:1005400005F0040030B107F0010018B1E06B40F095
:100550000200E06305F0020030B107F0010018B1BD
:10056000E06B40F00400E06305F0080048B106F0DD
:10057000200010B907F0010018B1E06B40F008004E
:10058000E063E06B68B305F0200028B106F02000BE
:1005900010B1204600F00EF920684069C0F38019C0
:1005A000E06B00F0080010B9B9F1000F22D020462E
:1005B00000F0E0F82068406900F04000B0B1206829
:1005C000406920F0400021684861606B50B11848D4
:1005D000616B4863606BFFF7ADFE10B1606B416B00
:1005E00088470CE02046FFF779FF08E02046FFF738
:1005F00075FF04E02046FFF771FF0020E06389E704
:10060000FFE705F0800030B106F0800018B1204609
:1006100000F020F97EE705F0400030B106F0400020
:1006200018B1204600F0B6F874E700BF72E700008A
:100630006107000010B5034693F83A0020282FD137
:1006400001B10AB9012010BD00BF93F8380001289C
:1006500001D10220F7E7012083F8380000BF99623A
:100660009A85DA850020D863222083F83A0000BFFB
:10067000002083F8380000BF1868C06840F480701C
:100680001C68E0601868406940F001001C68606107
:100690001868C06840F020001C68E0600020D2E7C5
:1006A0000220D0E710B504462049206888423BD19B
:1006B0001F48008800F4004088BB1D48008800F4F3
:1006C000804070B11B4800780A2803D000201849E8
:1006D000088024E01648008840F40040144908804F
:1006E0001DE0144800780D2806D11148008840F418
:1006F00080400F49088012E00E4800780C490988B4
:10070000C1F30D010C4A505409480088401C0849A7
:10071000088008460088C72801DD002008800122E3
:1007200004490648FFF786FF10BD0000003801406D
:10073000180000201A0000203C0A0020040B0020B2
:10074000704700BFFEE700BFFEE77047704710B577
:1007500000F036FA00F0A0FC00F042FA10BD70473D
:1007600070B505466C6A0020E085E0842046FFF7FE
:10077000B5FE70BD0168C96821F490710268D1604E
:100780000168496921F0010102685161202180F866
:100790003A10704710B504462068C06820F0400049
:1007A0002168C860202084F839002046FFF7C8FF80
:1007B000002010BD70B5044694F83A00222847D1B5
:1007C000A068B0F5805F0CD1206950B90025A66AF9
:1007D00020684068C0F308003080A06A801CA062D6
:1007E00015E0A56A0026A068B0F5805F03D0A06878
:1007F00028B9206918B920684068287004E020688A
:10080000406800F07F002870A06A401CA062E08D64
:10081000401E80B2E085C8B92068C06820F0200082
:100820002168C8602068C06820F480702168C860B2
:100830002068406920F0010021684861202084F888
:100840003A002046FFF72EFF002070BD0020FCE795
:100850000220FAE7014691F83900212828D188685A
:10086000B0F5805F0BD1086948B90A6A1088C0F3F7
:1008700008000B685860086A801C086205E00B6A73
:10088000581C086218780B685860C88C401E80B2EB
:10089000C88458B90868C06820F080000B68D86028
:1008A0000868C06840F040000B68D86000207047BE
:1008B0000220FCE710B50248FFF712FE10BD000051
:1008C000040B002000BFFEE7014609B90020704775
:1008D000C8B220B1C8B20E4A105C401CF7E701F460
:1008E0007F4028B10A48C1F30722805C0930EEE757
:1008F00001F47F0028B10648C1F30742805C113043
:10090000E5E7034800EB116000781930DFE70000ED
:10091000DC1200002DE9F04704460E4617469846C3
:10092000DDF8209084F80990607A20F00100607270
:10093000E66127620020A062C4F82480002506E05A
:1009400004F1140101EBC50000F05AF96D1C012DF2
:10095000F6DBBDE8F08710B50246002001460EE048
:1009600002F1140303EBC100D0E900436360D0E956
:10097000003423604060006000BF481C014601292C
:10098000EEDB10BD00BF704700BF012005490860C5
:10099000642000F0EFF8002002490860642000F0B5
:1009A000E9F8F2E70000002000BF012005490860D7
:1009B000642000F0DFF8002002490860642000F0A5
:1009C000D9F8F2E70400002000BF012005490860C3
:1009D0001E2000F03DFA0020024908601E2000F0B1
:1009E00037FAF2E70800002000BF0120054908603F
:1009F0003C2000F02DFA0020024908603C2000F065
:100A000027FAF2E70C0000207FB5FFF7FFFB3A481A
:100A100000684FF47A72B0FBF2F1481EB0F1807FAB
:100A200000D31BE0481E4FF0E022506150170F2208
:100A3000002804DB13071C0E304B1C5406E0130780
:100A40001D0E2F4B00F00F04241F1D5500BF00206A
:100A50004FF0E02290610720106100BF00F0EAF93A
:100A600000F0B2F900F004FA012004214202254B03
:100A7000CDE90032CDE902100023234A23A1274803
:100A800000F014FA254800F08BFA03200421CA0173
:100A9000234BCDE90032CDE902100023214A22A1E7
:100AA000254800F003FA244800F07AFA02200121D8
:100AB0000202224BCDE90032CDE902100023204A88
:100AC00020A1244800F0F2F9224800F069FA02203F
:100AD0000202214BCDE901200093039000231F4A1D
:100AE0001FA1234800F0E2F9214800F059FA00F074
:100AF00089F9002004B070BD1000002000E400E07F
:100B000018ED00E06C0000208909000072745F6637
:100B10006C6167315F746872656164006C08002005
:100B20006C020020A909000072745F666C61673274
:100B30005F74687265616400E00800206C04002046
:100B4000C909000072745F666C6167335F74687214
:100B500065616400540900206C060020E90900006A
:100B600072745F666C6167345F746872656164009B
:100B7000C809002000E0401E0028FCD1704700009A
:100B8000F0B503460C461546281D20F007004038F6
:100B90000146002203E0094E41F82260521C102A4F
:100BA000F9D30C6200274F628F62CF620F634F63ED
:100BB0008B634FF08077CF63F0BD0000EFBEADDEFA
:100BC00010B5FFF723FB044604480078401C034996
:100BD00008702046FFF71EFB10BD00005C000020DF
:100BE00010B5FFF713FB044604480078401E034984
:100BF00008702046FFF70EFB10BD00005C000020CF
:100C00004060006070470268516002680A600160DD
:100C100048607047D0E900215160D0E900121160AE
:100C20004060006070470000024600210AE007486B
:100C300000EB01100078904203D1044800EB011052
:100C40007047491C0229F2DB0020F9E7340000203C
:100C50002DE9F04104460D4616462846FFF7E4FF0D
:100C6000074645F08000207208223146204600F0F9
:100C700091F8FFF7CBFA8046381D04F10C010268A9
:100C8000516002680A600160486000BF4046FFF79B
:100C9000C1FABDE8F08100002DE9F041FFF7B6FA96
:100CA000074611480068FFF70FFE451E0F4850F831
:100CB0003500A0F114040E48006884420ED00D499E
:100CC0000D700B480668046004F11C0106F11C005D
:100CD000FFF7BBFA3846FFF79DFA02E03846FFF708
:100CE00099FABDE8F08100002C000020440B0020A0
:100CF000280000203000002070B50446FFF786FA77
:100D00000546012084F8440094F838200A4B03EB90
:100D1000C20004F114014268116042684A604160F7
:100D2000086000BF0549E06B096808430349086093
:100D30002846FFF76FFA70BD440B00202C000020FE
:100D400070B50446FFF762FA054604F11400D0E9D5
:100D500000215160D0E9001211604060006000BFC6
:100D600094F83810094A02EBC1000168814201D1B0
:100D7000012100E0002129B10548E16B00688843AA
:100D8000034908602846FFF745FA70BD440B002070
:100D90002C00002070B50346A2B118460C4600BFD7
:100DA00014F8016B00F8016B3EB902E0002500F871
:100DB000015B551E2A1EF9D102E0551E2A1EEFD1F5
:100DC00000BF00BF184670BD0020014607E0094A79
:100DD00002EBC1004060006000BF481C01462029B2
:100DE000F5DB1F20044A10700020044A1060044AFA
:100DF00010607047440B00203000002028000020C5
:100E00002C00002070B508480068FFF75DFD451E06
:100E1000064850F83500A0F114040548046004F1B8
:100E20001C00FFF7FAF970BD2C000020440B0020D5
:100E30002800002010B5002405E0044901EBC4009F
:100E4000FFF7DEFE641C002CF7D010BD6000002010
:100E500010B50446204600F087F810BD00BF04E03E
:100E600002490968491C014A1160F9E75400002051
:100E70001FB502201F210202074BCDE90032CDE948
:100E800002100023054A06A1074800F00FF80648A3
:100E900000F086F81FBD0000440C00205D0E00002D
:100EA00069646C6500000000440E00202DE9FC5FC1
:100EB00004460D4616461F46DDE90CABDDE90E89FA
:100EC0002A4600212046FFF7C3FE04F114004060CB
:100ED000006000BF26626762C4F828A0C4F82CB086
:100EE000D4E90A3C63441A1FD4E90801FFF748FE1D
:100EF000E06184F8398084F838800020E063206461
:100F000084F84400C4F83090C4F83490009023462C
:100F1000044A2146019004F1480000F033F9002012
:100F2000BDE8FC9F0710000070B5044694F844002B
:100F300000F00F00022802D04FF0FF3070BDFFF725
:100F400065F9054604F11400FFF764FE2846FFF733
:100F500061F92046FFF7D0FE0020EFE70148006866
:100F6000704700002800002031B5FFF74FF9054613
:100F70000A480468204600F029F86A46002104F176
:100F8000480000F0E3F804F1480000F013F92846A7
:100F9000FFF740F9FFF780FE002038BD2800002051
:100FA00010B50446383460782070217801208840DC
:100FB000606002202073383C2046FFF7B5FFFFF742
:100FC000CDFF08B1FFF768FE002010BD70B50446E4
:100FD00094F8440000F00F00012802D04FF0FF30D9
:100FE00070BDFFF713F90546022084F8440020463F
:100FF000FFF7A6FE04F1480000F058F92846FFF775
:1010000009F90020ECE770B5044625466FF00100B1
:10101000286405F11400FFF7FDFD2846FFF76CFE7C
:10102000FFF73AFE70BD000070B5FFF7EFF8054618
:101030001448046894F8440000F00F0001281CD103
:10104000D4E90510814218D004F11400FFF7E2FD45
:1010500094F838200C4B03EBC20004F114014268F1
:10106000116042684A604160086000BF2846FFF78F
:10107000D1F8FFF711FE002070BD2846FFF7CAF82F
:101080000020F9E728000020440B002001480068F8
:10109000704700005800002010B50A480068401C46
:1010A00008490860FFF75AFF0446606B401E606302
:1010B000606B18B9206B6063FFF7B6FF00F004F8AF
:1010C00010BD00005800002070B5FFF7DFFF054697
:1010D000FFF79CF8064628E01B480068A0F11404BE
:1010E000A06A281A6FF0004188421DD22046FFF7FF
:1010F00032FCD4E907108847FFF7C8FF0546607A3D
:1011000000F0020058B1607A00F0010038B1607A56
:1011100020F001006072204600F04CF805E0607A93
:1011200020F00100607200E008E007480168814299
:1011300001D1012100E000210029CDD000BF3046BF
:10114000FFF768F870BD000060000020034649B159
:10115000012904D0022908D0032910D10AE0586AD5
:10116000106000BF1068586200BF587A20F002007B
:10117000587200BF587A40F00200587200BF00BF9A
:10118000002070472DE9F84307460C4615461E46D9
:10119000DDE90889224609213846FFF759FD434613
:1011A000324629463846CDF80090FFF7B3FBBDE83C
:1011B000F88300002DE9F84305460024FFF726F8E0
:1011C00080462846FFF7C7FB687A20F00100687266
:1011D0004046FFF71FF8FFF759FF696A0844A86205
:1011E000FFF714F880462F4E009600BF55E019E037
:1011F0005DF824201168142202EBC402881A826A66
:10120000AB6AD21A00D108E0826AAB6AD21A6FF0D8
:1012100000439A4200D20CE000BF5DF82400006851
:101220004DF824005DF8240006EBC40149688842AB
:10123000DED100BF2CB15DF824000830611C4DF8F0
:10124000210019480068401C1749086008460768D3
:1012500005F114010098FFF7D6FC022412E007F014
:10126000030060B9C4F1010305F1140202EBC301EC
:10127000C4F101025DF82200FFF7C5FC00E003E0C5
:10128000BF08641C012CEAD900BF687A40F0010055
:1012900068724046FEF7BEFF641C002CA7D00020F9
:1012A000BDE8F883600000206800002070B50446A7
:1012B000607A00F0010010B94FF0FF3070BDFEF70A
:1012C000A5FF05462046FFF746FB2846FEF7A2FF8E
:1012D000607A20F0010060720020EFE7000001005A
:1012E00002000100030001000200010004000100EF
:1012F00002000100030001000200010005000100DE
:1013000002000100030001000200010004000100CE
:1013100002000100030001000200010006000100BC
:1013200002000100030001000200010004000100AE
:10133000020001000300010002000100050001009D
:10134000020001000300010002000100040001008E
:10135000020001000300010002000100070001007B
:10136000020001000300010002000100040001006E
:10137000020001000300010002000100050001005D
:10138000020001000300010002000100040001004E
:10139000020001000300010002000100060001003C
:1013A000020001000300010002000100040001002E
:1013B000020001000300010002000100050001001D
:1013C000020001000300010002000100040001000E
:1013D000020001000300010002000100FC130000F4
:1013E000000000206C0000006C0100006814000088
:1013F0006C000020AC140000880100000000000018
:1014000000000000000000000000000040787D01A6
:1014100000000000000000000000000000000000CC
:1014200000000000000000000000000000000000BC
:101430000000000038000020380000207400000088
:10144000000000000000000000000000000000009C
:10145000000000000000000000000000000000008C
:08146000000000000000000084
:0400000500000131C5
:00000001FF
