:020000040800F2
:1000000050170020450100083D13000897490008DB
:100010003F130008431300084713000800000000C6
:100020000000000000000000000000004B1300086A
:100030004D130008000000001F49000819140008B3
:100040005F0100085F0100085F0100085F01000810
:100050005F0100085F0100085F0100085F01000800
:100060005F0100085F0100085F0100085F010008F0
:100070005F0100085F0100085F0100085F010008E0
:100080005F0100085F0100085F0100085F010008D0
:100090005F0100085F0100085F0100085F010008C0
:1000A0005F0100085F0100085F0100085F010008B0
:1000B0005F0100085F0100085F0100085F010008A0
:1000C0005F0100085F0100085F0100085F01000890
:1000D0005F0100085F0100085F0100085F01000880
:1000E0005F0100085F0100085F0100085F01000870
:1000F0005F0100085F0100085F0100085F01000860
:100100005F0100085F0100085F0100085F0100084F
:100110005F0100085F0100085F0100085F0100083F
:100120005F0100085F0100085F0100085F0100082F
:10013000DFF80CD004F092FD00480047D317000808
:10014000501700200648804706480047FEE7FEE7B4
:10015000FEE7FEE7FEE7FEE7FEE7FEE7FEE7FEE777
:1001600047020008310100080CB500200190009002
:100170006C48006840F480306A49086000BF6948F4
:10018000006800F4003000900198401C0190009835
:1001900018B90198B0F5A06FF1D16248006800F479
:1001A000003010B10120009001E000200090009884
:1001B000012843D15C48006840F010005A490860AB
:1001C0000846006820F0030008600846006840F018
:1001D0000200086053484068524948600846406839
:1001E00048600846406840F48060486008464068BF
:1001F00020F47C1048600846406840F4E8104860ED
:100200000846006840F08070086000BF45480068FC
:1002100000F000700028F9D04248406820F0030048
:10022000404948600846406840F00200486000BF0E
:100230003C48406800F00C000828F9D10CBD10B50E
:10024000FFF792FF10BD10B53648006840F001007E
:1002500034490860084640683449084031494860DC
:1002600008460068324908402E4908600846006880
:1002700020F4802008600846406820F4FE004860B2
:100280004FF41F008860FFF7DAFF4FF00060294944
:10029000086010BD10B5002100200022214B5B68D2
:1002A00003F00C0121B1042906D0082928D107E068
:1002B000214B224C236027E01F4B204C236023E07E
:1002C000184B5B6803F47010164B5B6803F48032C4
:1002D000022303EB904022B9194B4343174C236090
:1002E0000DE0104B5B6803F4003323B1144B434320
:1002F000124C236003E0104B4343104C236003E097
:100300000D4B0E4C236000BF00BF064B5B68C3F370
:1003100003130C4CE15C094B1B68CB40074C23607A
:1003200010BD000000100240002002400000FFF855
:10033000FFFFF6FE08ED00E000127A00000000204A
:1003400000093D000400002010B50446CC4884425A
:1003500008D10121042000F02DFB0021042000F031
:1003600029FB46E0C748844208D10121082000F05B
:1003700021FB0021082000F01DFB3AE0C248844226
:1003800008D10121102000F015FB0021102000F001
:1003900011FB2EE0BD48844208D10121202000F04D
:1003A00009FB0021202000F005FB22E0B848844230
:1003B00008D10121402000F0FDFA0021402000F08A
:1003C000F9FA16E0B348844208D10121802000F0F8
:1003D000F1FA0021802000F0EDFA0AE0AE488442F4
:1003E00007D10121801500F0E5FA0021A01500F0E9
:1003F000E1FA10BD10B50121084600F0DBFA00213A
:10040000012000F0D7FA10BD2DE9F0410246002589
:100410000026002000230024002791F803C00CF0E0
:100420000F0591F803C00CF0100CBCF1000F03D0C5
:1004300091F802C04CEA050591F800C0BCF1000F2C
:1004400031D0146800202BE04FF0010C0CFA00F3BF
:10045000B1F800C00CEA03069E4220D183004FF0A1
:100460000F0C0CFA03F7BC4305FA03FC4CEA040436
:1004700091F803C0BCF1280F06D14FF0010C0CFA23
:1004800000FCC2F814C00AE091F803C0BCF1480FA8
:1004900005D14FF0010C0CFA00FCC2F810C0401C52
:1004A0000828D1D31460B1F800C0BCF1FF0F34DDCF
:1004B000546800202EE000F1080C4FF0010808FA03
:1004C0000CF3B1F800C00CEA03069E4221D1830070
:1004D0004FF00F0C0CFA03F7BC4305FA03FC4CEA8F
:1004E000040491F803C0BCF1280F05D100F1080CF9
:1004F00008FA0CF8C2F8148091F803C0BCF1480F58
:1005000007D100F1080C4FF0010808FA0CF8C2F806
:100510001080401C0828CED35460BDE8F0814FF60F
:10052000FF710180022181700421C1707047024671
:10053000002093680B400BB1012000E000207047C1
:100540000146886880B2704702460020D3680B409D
:100550000BB1012000E0002070470146C86880B25E
:10056000704701617047416170470AB1016100E065
:1005700041617047C16070474FF480320A43826125
:100580008161826182698269704702460020434B23
:1005900018684FF68073184040EA021008433F4B3A
:1005A000186070473E49C8617047F0B50A4600239D
:1005B00000240021002500F00046B6F1004F02D1D2
:1005C000364EF16901E0354E7168C0F3034583B2E0
:1005D00000F44016B6F5401F08D121F070612F4E8F
:1005E000766826F070662D4F7E6012E000F480166B
:1005F000B6F5801F06D1032606FA05F4A14341F0A3
:10060000706106E0460D360103FA06F6B14341F08B
:10061000706122B1460D360103FA06F6314300F04F
:100620000046B6F1004F02D11C4EF16101E01B4EB5
:100630007160F0BD30B500228B071C0F0F2303FA49
:1006400004F2164B08338C1053F824309343134CA8
:1006500008348D1044F8253023468C1053F824308C
:100660008C07240F00FA04F423430C4C08348D103B
:1006700044F8253030BD0A49DC310860704700007D
:1006800000080140000C014000100140001401402E
:1006900000180140001C0140002001400000014002
:1006A00000002042DF48006840F00100DD4908609A
:1006B00008464068DC490840DA4948600846006856
:1006C000DA490840D74908600846006820F48020CD
:1006D00008600846406820F4FE0048604FF41F00A0
:1006E00088607047CF49096821F48031CD4A116094
:1006F0001146096821F480211160B0F5803F03D0D4
:10070000B0F5802F0ED106E0C649096841F480316A
:10071000C44A116007E0C349096841F4A021C14AF5
:10072000116000E000BF00BF704710B50146002215
:10073000002300204A11012A02D1BA4C236806E0A6
:10074000022A02D1B74C236A01E0B64C636A01F079
:100750001F02012494401C400CB1012000E0002045
:1007600010BD38B5002000900024002500BF3120C6
:10077000FFF7DBFF05460098401C00900098B0F59D
:10078000A06F01D0002DF2D03120FFF7CEFF08B1CD
:10079000012400E00024204638BD01460020A14A83
:1007A000106820F0F80040EAC10010607047A049CE
:1007B00008607047024600209A4B586820F47C106D
:1007C00042EA01031843974B5860704798490866FE
:1007D000704701460020934A506820F00300084308
:1007E000506070478F48406800F00C007047014629
:1007F00000208C4A506820F0F00008435060704799
:1008000001460020874A506820F4E06008435060A9
:10081000704701460020834A506820F4605040EA47
:10082000C1005060704729B17E4A527A02437D4B25
:100830005A7204E07B4A527A82437A4B5A7270476A
:100840007B49D8310860704701460020754A5068DE
:1008500020F440400843506070470021714A203224
:100860001170704A82F82010012802D004280AD1A1
:1008700004E001216B4A2032117005E00521694A2C
:100880002032117000E000BF00BF70476949086066
:1008900070476449096A0143624A116270476549B9
:1008A00044390860704730B500210022002400233D
:1008B0005C4D6D6805F00C0121B1042905D00829B3
:1008C00023D105E05C4D056022E05B4D05601FE033
:1008D000544D6D6805F47012524D6D6805F4803406
:1008E000022505EB92421CB9544D554305600BE0BF
:1008F0004C4D6D6805F400351DB1504D55430560F4
:1009000002E04D4D5543056002E04B4D056000BFD0
:1009100000BF444D6D6805F0F0010909484D6B5C5E
:100920000568DD4045603F4D6D6805F4E061090AEA
:10093000434D6B5C4568DD4085603A4D6D6805F45C
:100940006051C90A3E4D6B5C4568DD40C560354D60
:100950006D6805F44041890B3A4D6B5CC568B5FB89
:10096000F3F5056130BD29B12E4A526902432D4B82
:100970005A6104E02B4A526982432A4B5A617047FC
:1009800029B1284A92690243264B9A6104E0254A1C
:1009900092698243234B9A61704729B1214AD269F7
:1009A0000243204BDA6104E01E4AD26982431D4BA8
:1009B000DA61704729B11B4AD2680243194BDA60E9
:1009C00004E0184AD2688243164BDA60704729B1B6
:1009D000144A12690243134B1A6104E0114A126966
:1009E0008243104B1A6170471249403908607047C2
:1009F0000F49C86470470B49C87170470948406A7D
:100A000040F0807007494862704701460020054A5F
:100A100092680A400AB1012000E0002070470149B5
:100A200088727047001002400000FFF8FFFFF6FEDA
:100A3000000042428004424200127A0000093D0058
:100A4000140000202400002010B50446FB48844216
:100A500009D101218803FFF7ADFF00214FF4804049
:100A6000FFF7A8FF32E0F648844209D1012148048B
:100A7000FFF7ADFF00214FF40030FFF7A8FF25E09E
:100A8000F048844209D101218804FFF7A0FF00212A
:100A90004FF48020FFF79BFF18E0EB48844209D118
:100AA0000121C804FFF793FF00214FF40020FFF756
:100AB0008EFF0BE0E548844208D101210805FFF7CD
:100AC00086FF00214FF48010FFF781FF10BD2DE954
:100AD000F04786B005460E460024A24600BFA14658
:100AE0000027B08900B100BF2F462C8A4CF6FF705A
:100AF0000440F08804432C82AC894EF6F310044085
:100B0000B08831890843718908430443AC81AC8AB9
:100B10004FF6FF400440B0890443AC8201A8FFF7C0
:100B2000C2FEC648874202D1DDF810A001E0DDF820
:100B30000CA0A88900F4004040B10AEBCA0000EB09
:100B40000A1031684900B0FBF1F807E00AEBCA006F
:100B500000EB0A1031688900B0FBF1F86420B8FBA3
:100B6000F0F004012009642101FB1089A88900F438
:100B7000004040B1322000EBC900B0FBF1F000F0C2
:100B80000700044308E0322000EB09106421B0FBA9
:100B9000F1F000F00F0004432C8106B0BDE8F087AF
:100BA0004FF41651016000218180C18001810C2128
:100BB000418100218181704710B502460020108AD2
:100BC0004FF2FF0318400B884C8823438C88234343
:100BD000CC8823431843108210BD0021018041803E
:100BE0008180C180704721B1828942F400528281A4
:100BF00004E082894DF6FF731A4082817047F0B598
:100C00000346002400260025002040F66A17B9425A
:100C100000D100BF1846C1F3421401F01F0601279E
:100C200007FA06F5012C01D10C3004E0022C01D1A9
:100C3000103000E014301AB107682F43076002E05B
:100C40000768AF430760F0BD1AB1838A0B43838204
:100C500002E0838A8B4383827047028A4FF6F073E7
:100C60001A400282028A0A430282704782894FF246
:100C7000FF731A40828182890A438281704721B1C1
:100C8000828942F00202828104E082894FF6FD737C
:100C90001A4082817047028A4FF6DF731A4002823F
:100CA000028A0A430282704721B1028A42F48042DA
:100CB000028204E0028A4BF6FF731A4002827047F8
:100CC000C1F308028280704701468888C0F308009B
:100CD0007047818941F0010181817047028BD2B256
:100CE0000283028B42EA012202837047028B02F4E4
:100CF0007F420283028B0A430283704721B1828ABA
:100D000042F02002828204E0828A4FF6DF731A40AA
:100D10008282704721B1828A42F01002828204E00E
:100D2000828A4FF6EF731A408282704721B1828A1D
:100D300042F00802828204E0828A4FF6F7731A407A
:100D40008282704721B1828942F40042828103E0AD
:100D50008289C2F30E028281704721B1828A42F4F5
:100D60000062828204E0828A4FF2FF731A4082821C
:100D70007047828A4FF6FB731A408282828A0A4346
:100D80008282704721B1828A42F00202828204E0AC
:100D9000828A4FF6FD731A40828270470246002015
:100DA000B1F5007F00D100BF13880B400BB10120CB
:100DB00000E00020704701F40072B2F5007F00D11E
:100DC00000BFCA430280704770B50246002400236A
:100DD0000025002040F66A16B14200D100BFC1F3E1
:100DE000421501F01F03012606FA03F3012D02D17B
:100DF0009689334006E0022D02D1168A334001E085
:100E0000968A33400C12012606FA04F41688344000
:100E100013B10CB1012000E0002070BD10B500221C
:100E2000002340F66A14A14200D100BF0A12012437
:100E30009440A3B2DC43048010BD000000380140A0
:100E40000044004000480040004C0040005000407A
:100E500008B5002418E09FA002F04FF84FF0FF33D0
:100E600004226946A048006801F028FB044624B922
:100E70009EA0009902F041F803E02146A1A002F0F3
:100E80003CF8C82003F0A1FAE5E71CB500240020D7
:100E900001900120009031E0A2A002F02EF8002085
:100EA00000F022FB0546012D02D0022D22D110E0D8
:100EB000042201A98C48006801F04CFA04461CB9D0
:100EC0009DA002F01AF803E02146A1A002F015F857
:100ED00010E0042269468448006801F03BFA0446A9
:100EE0001CB9A6A002F009F803E0214698A002F080
:100EF00004F800BF00BF642003F067FACCE721E0EC
:100F0000A4A001F0FAFF4FF0FF31A848006800F0FC
:100F1000E6FDA7480078401CA54908704FF4FA7018
:100F200003F053FAA2484078401CA14948709F48FA
:100F3000006800F04EFE044614B99EA001F0DDFFEB
:100F400003F046F9DCE71DE09FA001F0D6FF4FF06B
:100F5000FF319648006800F0C2FD9548007894493A
:100F60004978884203D19EA001F0C7FF02E0A2A009
:100F700001F0C3FF8D48006800F02BFE4FF47A703B
:100F800003F023FAE0E71CB5A1A001F0B6FFA848E2
:100F900001F0B3FFA74801F0B0FF0023142228217D
:100FA000A5A001F069F9504908600846006818B129
:100FB000A3A001F0A2FF02E0A6A001F09EFF002284
:100FC0000121A9A000F03AFD7849086008460068B0
:100FD00018B1A8A001F091FF02E0ACA001F08DFFD4
:100FE00000220521AFA000F029FDB14908600846A4
:100FF000006818B1AFA001F080FF02E0B3A001F0DB
:101000007CFF142003214FF480730022CDE90010EF
:10101000B449B5A003F08FF8B649086008460068E7
:1010200020B10846006803F030F802E04FF0FF30CE
:101030001CBD14200221CB010022CDE90010AE49D5
:10104000AEA003F078F8B04908600846006820B107
:101050000846006803F019F802E04FF0FF30E7E7B8
:10106000142004218B010022CDE90010A749A8A07B
:1010700003F061F8AA4908600846006820B10846F4
:10108000006803F002F802E04FF0FF30D0E71420D0
:1010900005214FF480730022CDE90010A149A2A0E0
:1010A00003F049F8A44908600846006820B10846E2
:1010B000006802F0EAFF02E04FF0FF30B8E70020DE
:1010C000B6E701B502E00098401E009000980028A5
:1010D000F9D108BDD2D1BDF8C8EBBDD3CAD5CFDF99
:1010E000B3CCA3A10A0000003C000020B1BEB4CEE6
:1010F000BDD3CAD5B5BDB5C4CAFDBEDDCAC7A3BA86
:1011000025640A00CAFDBEDDBDD3CAD5B4EDCEF359
:10111000A3ACB4EDCEF3B4FAC2EB203A203078257C
:101120006C780A00D2D1BDF8C8EBB7A2CBCDCFDF27
:10113000B3CCA3A10A0000004B455930B0B4CFC2D4
:10114000A3ACCAFDBEDD30D2D1B7A2CBCD0A000020
:10115000CAFDBEDDB2BBC4DCB7A2CBCDD6C1CFFBCE
:10116000CFA2B6D3C1D0A3ACB4EDCEF3B4FAC2EBE8
:10117000203A203078256C780A0000004B45593120
:10118000B0B4CFC2A3ACCAFDBEDD31D2D1B7A2CBC1
:10119000CD0A0000D2D1BDF8C8EBD0C5BAC5C1BFD9
:1011A000D5BCD3C3CFDFB3CCA3A10A00400000203D
:1011B00028000020B6FED6B5D0C5BAC5C1BFD2D171
:1011C000CACDB7C5A3A10A00D2D1BDF8C8EBD0C51E
:1011D000BAC5C1BFB5C8B4FDCFDFB3CCA3A10A0067
:1011E000B6FED6B5D0C5BAC5C1BFCFDFB3CCD2D15C
:1011F000CDACB2BDA3A10A00B6FED6B5D0C5BAC566
:10120000C1BFCDACB2BDCAA7B0DCA3A10A0000002B
:10121000D5E2CAC7525454CFFBCFA2B6D3C1D0D364
:10122000EBD0C5BAC5C1BFCAB5D1E9A3A10A0000B8
:101230004C51000808510008746573745F6D7100AB
:10124000CFFBCFA2B6D3C1D0B4B4BDA8B3C9B9A6A1
:10125000A3A10A00CFFBCFA2B6D3C1D0B4B4BDA81E
:10126000CAA7B0DCA3A10A0042696E6172745F7301
:10127000656D0000B6FED6B5D0C5BAC5C1BFB4B461
:10128000BDA8B3C9B9A6A3A10A000000B6FED6B591
:10129000D0C5BAC5C1BFB4B4BDA8CAA7B0DCA3A1AC
:1012A0000A000000436F756E745F73656D00000087
:1012B00044000020BCC6CAFDD0C5BAC5C1BFB4B485
:1012C000BDA8B3C9B9A6A3A10A000000BCC6CAFD47
:1012D000D0C5BAC5C1BFB4B4BDA8CAA7B0DCA3A16C
:1012E0000A0000008B0E000873656E645F746872FC
:1012F000656164002C000020510E00087265637661
:101300005F7468726561640030000020470F000858
:10131000425F776169745F746872656164000000A0
:1013200038000020FF0E0008425F6F63637570791C
:101330005F7468726561640034000020704700BF0C
:10134000FEE700BFFEE700BFFEE770477047000002
:10135000354870473548704770B5354800684FF4D8
:101360007A72B0FBF2F1B1F1807F00D31DE021F081
:101370007F40401E4FF0E022506150170F2200289E
:1013800007DA13071D0E2B4B00F00F04241F1D5509
:1013900003E013071C0E284B1C5400BF00204FF025
:1013A000E02290610720106100BF00F049F800F0D2
:1013B00079F800F0D1F800F0C5F9FFF7CBFF04464B
:1013C000FFF7C6FF0546214601F01EFF70BD10B5B0
:1013D000044602F01DFD19E020780A280AD10D21EB
:1013E0001648FFF76DFC00BF80211448FFF7D6FCBC
:1013F0000028F9D014F8011B1048FFF761FC00BF6A
:1014000080210E48FFF7CAFC0028F9D02078002878
:10141000E2D102F00BFD10BD10B501F07DF900F036
:1014200062F901F088F910BDF8000020F8100020E2
:101430000000002018ED00E000E400E0003801406A
:1014400008B501214820FFF79BFA2020ADF80000E5
:1014500010208DF8030003208DF8020069460F4824
:10146000FEF7D2FF2020ADF8000069460C48FEF7D9
:10147000CBFF0220ADF8000069460848FEF7C4FF24
:1014800020210648FFF76DF820210548FFF769F88D
:1014900002210248FFF765F808BD0000000C01407A
:1014A0000018014008B501214020FFF769FA012129
:1014B0004020FFF765FA01210420FFF761FA1020B0
:1014C000ADF8000048208DF8030069462048FEF77B
:1014D0009BFF0820ADF8000048208DF80300694606
:1014E0001B48FEF791FF08BD70B50446002514B1F6
:1014F00001201849087017480078C8B11021144815
:10150000FFF715F820B108211148FFF710F878B956
:1015100000201049087010210D48FFF708F800B9A5
:10152000012508210A48FFF702F878B902250DE0E5
:1015300010210748FEF7FBFF012807D108210448C6
:10154000FEF7F5FF012801D102490870284670BD59
:10155000001801404800002000B585B0012104209A
:10156000FFF70EFA01218803FFF70AFA4FF4007023
:10157000ADF8100018208DF8130003208DF812002C
:1015800004A94F48FEF740FF4FF48060ADF810000B
:1015900004208DF8130004A94948FEF735FF4FF4E5
:1015A000E13000900020ADF80400ADF80600ADF881
:1015B0000800ADF80C000C20ADF80A00694641485F
:1015C000FFF785FA01213F48FFF70DFB05B000BD8D
:1015D00070B504460D4629462046FFF771FB00BF53
:1015E00080212046FFF7DAFB0028F9D070BD2DE9F5
:1015F000F04107460D461646002405E0295D3846B1
:10160000FFF7E6FF601CC4B2B442F7DB00BF402125
:101610003846FFF7C3FB0028F9D0BDE8F08170B56C
:1016200006460C46002500BF615D3046FFF7D0FF3F
:101630006D1C605D0028F7D100BF40213046FFF7E8
:10164000ADFB0028F9D070BD2DE9F04105460C46F0
:10165000260AE7B231462846FFF732FB00BF802159
:101660002846FFF79BFB0028F9D039462846FFF7AC
:1016700027FB00BF80212846FFF790FB0028F9D008
:10168000BDE8F08170B504460D46E1B20D48FFF7A4
:1016900017FB00BF80210B48FFF780FB0028F9D023
:1016A000204670BD10B5044600BF20210548FFF755
:1016B00075FB0028F9D00348FFF706FB10BD0000BA
:1016C0000008014000380140704719480068704721
:1016D00070B5044603F00CF9054615480460284629
:1016E00003F00AF970BD10B511480068401C10499C
:1016F000086002F09EFC0446206C401E2064206CB2
:1017000018B9E06B206402F063FD03F067F810BDC8
:101710000146002902DA4FF0FF3008E04FF47A72F8
:101720004A4302F2E7324FF47A7392FBF3F07047C8
:101730004C000020002070470020704700207047B8
:101740000020704710B5264C02E020688047241D19
:1017500024488442F9D310BD10B5224C02E0206821
:101760008047241D20488442F9D310BD10B504469B
:10177000FFF7F2FFFFF707FC10BD1CB51420022194
:101780000B020022CDE90010AFF21F0117A002F0FA
:10179000D2FC044624B9D122164917A001F05DFC01
:1017A000204602F072FC1CBD10B503F0A1F8FFF753
:1017B000D3FD01F0B8FB03F057F802F05FFAFFF732
:1017C000DCFF03F05DF800F077F802F073FA002018
:1017D00010BD10B503F08CF8FFF7E6FF002010BD38
:1017E00084520008885200088C5200086D61696EAE
:1017F000000000009E4C000874696420213D2052C6
:10180000545F4E554C4C000070B54BE000BF03F0E8
:101810006FF8064600F09EFF40B1364936A001F051
:101820006CFB662233493EA001F017FC304603F002
:1018300063F800BF03F05CF8054600F052F818B3F7
:1018400038480068A0F1140404F11400D0E9002124
:101850005160D0E9001211604060006000BF02F0EA
:10186000D7FA206F10B12046216F8847204602F03A
:101870005DF9012805D102F0D9FA284603F03CF8B9
:1018800070BD02F0D3FA03E0284603F035F8F7E71D
:10189000284603F031F8A06A01F016FE204602F057
:1018A00024F900BF00F01DF80028AFD100BFE7E722
:1018B00001E0FFF7A9FFFCE71FB520200721C200C8
:1018C000194BCDE90032CDE902100023174A18A1C7
:1018D000194802F089FB184802F0D7FB1FBD1648D3
:1018E000704710490868884201D0012070470020E5
:1018F000FCE70000B24C000846756E6374696F6EB9
:101900005B25735D207368616C6C206E6F74206E54
:1019100065207573656420696E204953520A000082
:1019200030000000D400002070110020B118000821
:101930007469646C65000000F81000204268116052
:1019400042684A604160086070472DE9F0410546F1
:101950000C469046204602F069FCB8F1000F03D017
:10196000B8F1010F23D105E004F114012846FFF777
:10197000E5FF1CE02E680FE0A6F1140794F835008F
:1019800097F83510884206DA04F1140107F11400C3
:10199000FFF7D4FF02E03668AE42EDD100BFAE42A1
:1019A00004D104F114012846FFF7C8FF00BF00BFAF
:1019B0000020BDE8F08170B505460EE002F098FF0A
:1019C00006462868A0F114044FF0FF30206320463B
:1019D00002F032FB304602F08FFF284600F067FE2F
:1019E0000028EBD0002070BD2DE9F04104460D46E3
:1019F00016461F4624B9D822FA49FBA001F02DFB58
:101A00002A460121204601F0F6FF204600F057FE4D
:101A1000A68367720020BDE8F08110B5044624B9A2
:101A2000F522F549F0A001F018FB04F11400FFF7CE
:101A3000C2FF204602F004F8002010BD2DE9F0415D
:101A400005460E46174600BF02F052FF804600F0E2
:101A500081FE48B1E949EAA001F04FFA40F21112C3
:101A6000E649F1A001F0F9FA404602F045FF00BF57
:101A70002946012001F0F8FF044614B92046BDE8CC
:101A8000F081204600F01BFEA68367722046F6E731
:101A900070B5044600BF02F02BFF054600F05AFE69
:101AA00048B1E249D6A001F028FA4FF49872DF4914
:101AB000DDA001F0D2FA284602F01EFF00BF2CB9CB
:101AC0004FF49972D949C8A001F0C7FA04F1140083
:101AD000FFF771FF204602F008F8002070BD2DE9E5
:101AE000F34105462DB940F24D12D149BEA001F097
:101AF000B4FA02F0FDFE064600BF00BFA88B002826
:101B000006DDA88B401EA883304602F0F5FE57E0A4
:101B1000019830B9304602F0EFFE6FF00100BDE8E9
:101B2000FC8100BF02F0E4FE074602F082FA48B9E9
:101B3000BF49C0A001F0E1F940F26D12BC49BAA062
:101B400001F08BFA00BF02F0D3FE804600F002FEE7
:101B500048B1B749AAA001F0D0F940F26D12B449DA
:101B6000B1A001F07AFA404602F0C6FE00BF384646
:101B700002F0C2FE00BF02F05CFA044600202063BF
:101B800000BF00BF6A7A214605F11400FFF7DDFEB1
:101B9000019800280BDD00BF00BF01AA002104F15D
:101BA000440002F0F5FD04F1440002F049FD304626
:101BB00002F0A2FE02F090F8206B08B1206BAEE7B5
:101BC0000020ACE710B5044600212046FFF787FF50
:101BD00010BD70B50446002602F08AFE054600BF1F
:101BE00000BF04F1140000F062FD28B904F11400F4
:101BF00000F06DFD012602E0A08B401CA08328466A
:101C000002F07AFE012E01D102F066F8002070BDCC
:101C10002DE9F04104460E4615462CB94FF4F272F8
:101C2000924971A001F019FA012E10D12F4602F04D
:101C30005FFE804604F11400FFF7BDFEA783404617
:101C400002F05AFE02F048F80020BDE8F0814FF0A3
:101C5000FF30FAE72DE9F04104460D4616461F46CF
:101C6000DDF818802CB940F2F142814981A001F0E1
:101C7000F4F92A460421204601F0BDFE84F80980CB
:101C8000204600F01CFDE661278400206084A084CB
:101C9000E08404F1280000F007FD0020BDE8F08199
:101CA00010B504462CB940F21452764971A001F0E7
:101CB000D4F904F11400FFF77EFE04F12800FFF7C9
:101CC0007AFE204601F0BCFE002010BD2DE9F04157
:101CD00005460E46174600BF02F00AFE804600F099
:101CE00039FD48B1684946A001F007F94FF4A662F2
:101CF00065494DA001F0B1F9404602F0FDFD00BF7D
:101D00002946042001F0B0FE044614B92046BDE87F
:101D1000F0816772204600F0D2FC2684218C880076
:101D200001F0D8FAE061E06920B9204601F0DDFE5B
:101D30000020ECE700206084A084E08404F1280007
:101D400000F0B2FC2046E2E770B5044600BF02F0A6
:101D5000CFFD054600F0FEFC48B14C4928A001F03B
:101D6000CCF840F25B5249492FA001F076F92846A1
:101D700002F0C2FD00BF2CB940F25E5243493DA0C3
:101D800001F06BF904F11400FFF715FE04F12800CF
:101D9000FFF711FEE06901F097FB204601F0A5FE78
:101DA000002070BD2DE9F74F04460F462CB940F2D4
:101DB0008B5237492FA001F050F9002602F039F973
:101DC000054602F095FD8046608C218C884261D1E9
:101DD000029828B9404602F08FFDF01EBDE8FE8F44
:101DE00058E00000C84C000873656D20213D20526A
:101DF000545F4E554C4C0000D44C0008E24C000897
:101E000046756E6374696F6E5B25735D20736861E0
:101E10006C6C206E6F74206E65207573656420692C
:101E20006E204953520A000030000000F04C0008B8
:101E3000FE4C000846756E6374696F6E5B25735DBA
:101E4000207368616C6C206E6F74206265207573FE
:101E50006564206265666F7265207363686564758A
:101E60006C65722073746172740A00000A4D000878
:101E7000194D00086D6220213D2052545F4E554C93
:101E80004C000000244D0008314D00083E4D000874
:101E90004B4D00086AE000202863029830B94046A4
:101EA00002F02AFD6FF00200BDE8FE8F00BF02F0D5
:101EB0001FFD814602F0BDF858B9FE49AFF28C0013
:101EC00001F01BF840F2AE52FA49AFF2A40001F063
:101ED000C4F800BF02F00CFD824600F03BFC58B194
:101EE000F449AFF2E40001F008F840F2AE52F149D3
:101EF000AFF2CC0001F0B1F8504602F0FDFC00BF9B
:101F0000484602F0F9FC00BF627A294604F1280035
:101F1000FFF71BFD029800280EDDFFF7D6FB0646F3
:101F200000BF00BF02AA002105F1440002F030FC0E
:101F300005F1440002F084FB404602F0DDFC01F0B4
:101F4000CBFE286B08B1286BAEE702F0D1FC8046CF
:101F5000029800280ADDFFF7B8FB861B0298801B59
:101F600002900298002801DA00200290608C218CF7
:101F7000884290D0A18CE06940F82170A08C401C70
:101F8000A084A08C218C884201DB0020A084608C7E
:101F9000401C608404F1140000F089FB50B904F186
:101FA000140000F094FB404602F0A6FC01F094FE01
:101FB000002079E7404602F09FFC002074E770B5EE
:101FC00004460D46002229462046FFF7EBFE70BD71
:101FD0002DE9F74F04460F4634B940F21C62B6496A
:101FE000AFF2701001F039F8002602F022F8054631
:101FF00002F07EFC8046608C38B9029828B94046D1
:1020000002F07AFCB01EBDE8FE8F6AE00020286373
:10201000029830B9404602F06FFC6FF0010028636F
:10202000F1E700BF02F064FC814602F002F858B903
:10203000A149AFF2002000F060FF40F241629E49EA
:10204000AFF21C2001F009F800BF02F051FC8246FB
:1020500000F080FB58B19849AFF25C2000F04DFFD2
:1020600040F241629449AFF2402000F0F6FF504642
:1020700002F042FC00BF484602F03EFC00BF627A1C
:10208000294604F11400FFF760FC029800280EDDD9
:10209000FFF71BFB064600BF00BF02AA002105F1A7
:1020A000440002F075FB05F1440002F0C9FA404615
:1020B00002F022FC01F010FE286B08B1286BA2E7A9
:1020C00002F016FC8046029800280ADDFFF7FDFAB0
:1020D000861B0298801B02900298002801DA0020DB
:1020E0000290608C002891D0E18CE06950F82100CA
:1020F0003860E08C401CE084E08C218C884201DB5D
:102100000020E084608C401E608404F1280000F010
:10211000CEFA50B904F1280000F0D9FA404602F096
:10212000EBFB01F0D9FD00206DE7404602F0E4FB37
:10213000002068E72DE9F04104460D46174634B902
:1021400040F29F625D49AFF2D42000F086FF012D7E
:1021500016D102F0CDFB064604F11400FFF72BFC6C
:1021600004F12800FFF727FC00206084A084E084AD
:10217000304602F0C1FB01F0AFFD0020BDE8F08168
:102180004FF0FF30FAE72DE9F05F04460F46904626
:102190009946DDE90AAB2CB940F2DB62484949A017
:1021A00000F05BFF3A460521204601F024FC84F84C
:1021B00009B0204600F083FAC4F81C8009F103003E
:1021C00020F003002084208C001DBAFBF0F0608416
:1021D0000020A062E0622063002508E0208C001D42
:1021E000E16905FB0016206B306026636D1C608C76
:1021F000A842F3DC0020A084BDE8F09F10B504469F
:102200002CB940F20C7233492EA000F026FF04F1E5
:102210001400FFF7D0FB204601F012FC002010BD97
:1022200070B5044600BF02F063FB054600F092FA69
:1022300058B12949AFF2384000F05FFE40F26672B3
:102240002549AFF21C4000F008FF284602F054FB7D
:1022500000BF2CB940F269721F491AA000F0FDFEC0
:1022600004F11400FFF7A7FBE06901F02DF9204607
:1022700001F03BFC002070BD2DE9F05F0746884669
:1022800091469A4600BF02F033FB834600F062FAA3
:1022900058B11249AFF2984000F02FFE40F22C7274
:1022A0000E49AFF27C4000F0D8FE584602F024FB05
:1022B00000BF15E04B4D00085B4D0008664D00085F
:1022C000744D00086D7120213D2052545F4E554CD5
:1022D0004C0000007F4D0008994D00088C4D00080F
:1022E0003946052001F0C0FB044614B92046BDE87C
:1022F000F09F84F809A0204600F0E1F908F10300FE
:1023000020F003002084A4F82290218C091D628C07
:1023100001FB02F000F0DEFFE061E06920B9204639
:10232000FFF77EFF0020E2E70020A062E06220636A
:10233000002508E0208C001DE16905FB0016206BDC
:10234000306026636D1C608CA842F3DC0020A08402
:102350002046CCE72DE9F04104460F46164634B935
:1023600040F28F72E049AFF2A40000F076FE2FB980
:102370004FF4F262DC49DDA000F06FFE2EB940F2AE
:102380009172D949DEA000F068FE208CB04203D2E1
:102390004FF0FF30BDE8F08102F0AAFA8046256BCD
:1023A0002DB9404602F0A8FA6FF00200F2E7286863
:1023B0002063404602F0A0FA0020286032463946E9
:1023C000281D00F022FA02F093FA8046E06A08B174
:1023D000E06A0560E562A06A00B9A562A08C401CB5
:1023E000A08404F1140000F062F950B904F1140063
:1023F00000F06DF9404602F07FFA01F06DFC00201C
:10240000C8E7404602F078FA0020C3E72DE9F04122
:1024100004460F46164634B940F2E772BB49AFF2A4
:102420005C1000F01AFE2FB94FF4FD62B749AFA05F
:1024300000F013FE2EB940F2E972B449B0A000F0EA
:102440000CFE208CB04203D24FF0FF30BDE8F0818B
:1024500002F04EFA8046256B2DB9404602F04CFA48
:102460006FF00200F2E728682063404602F044FA69
:1024700032463946281D00F0C8F902F039FA804684
:10248000A06A2860A562E06A00B9E562A08C401CE1
:10249000A08404F1140000F00AF950B904F114000A
:1024A00000F015F9404602F027FA01F015FC002073
:1024B000CCE7404602F020FA0020C7E72DE9FF4FA5
:1024C00081B004460F46904634B940F63F02904929
:1024D000AFF2102000F0C1FD2FB94FF404628C4917
:1024E00082A000F0BAFDB8F1000F05D140F641021C
:1024F000874983A000F0B1FD4FF0000901F099FD7C
:10250000054602F0F5F98246A08C48B9049838B91E
:10251000504602F0F1F96FF0010005B0BDE8F08F10
:102520006AE000BF02F0E4F9009001F082FD50B9CA
:102530007749AFF2007000F0E0FC40F657027449B2
:1025400071A000F08AFD00BF02F0D2F9834600F0CE
:1025500001F950B16E49AFF2587000F0CEFC40F670
:1025600057026B4968A000F078FD584602F0C4F9A4
:1025700000BF009802F0C0F900BF00202863049853
:1025800030B9504602F0B8F96FF001002863C4E793
:10259000627A294604F11400FFF7D7F9049800285D
:1025A0000EDDFFF792F8814600BF00BF04AA0021AC
:1025B00005F1440002F0ECF805F1440002F040F8A7
:1025C000504602F099F901F087FB286B08B1286B9F
:1025D000A3E702F08DF98246049800280CDDFFF78E
:1025E00074F8A0EB09090498A0EB09000490049882
:1025F000002801DA00200490A08C002891D0A66A5F
:102600003068A062E06AB04201D10020E062A08C94
:10261000401EA084504602F06FF9208C404501D244
:10262000208C00E040460246311D384600F0EDF8AF
:1026300002F05EF98246206B30602663504602F05D
:102640005BF9002069E72DE9F04104460E4690460B
:1026500034B940F6C5022F49AFF2983000F0FDFCC6
:10266000012E1ED102F044F9074604F11400FFF7D1
:10267000A2F90AE0A56A2868A062E06AA84201D12E
:102680000020E062206B28602563A06A0028F1D159
:10269000A084384602F030F901F01EFB0020BDE8AE
:1026A000F0814FF0FF30FAE740600060704701466C
:1026B0000868884201D1012070470020FCE710B56E
:1026C000044604F11400FFF7EFFF002010BD70B5C1
:1026D00004462068A0F1140500BF00BF284601F0A1
:1026E000ABFC002070BD0000A64D00086275666658
:1026F000657220213D2052545F4E554C4C00000025
:1027000073697A6520213D2030000000B14D00083A
:10271000BE4D0008C94D000810B500BF00BF02F053
:10272000E7F804460D480078401C0C490870204624
:1027300002F0E2F810BD10B500BF00BF02F0D8F8FB
:10274000044606480078401E04490870204602F0FE
:10275000D3F810BD014800787047000050000020F9
:1027600010B5FFF7F7FF10B1FA48006810BD01F08F
:1027700060FC044614B9F7480068F7E7206BF5E7FA
:1027800070B50446FFF7E6FF10B1F248046070BD73
:1027900001F04FFC054615B9EE480460F7E72C63DD
:1027A00000BFF4E710B5FFF7D5FF08B1E94810BD49
:1027B00001F03FFC044614B104F13000F7E7E548AE
:1027C000F5E7F0B50C460546E6B2042A15D300F04D
:1027D000030797B9014646EA062343EA034304E0A8
:1027E00008C108C108C108C1103A102AF8D201E096
:1027F00008C1121F042AFBD20D4601E005F8016B47
:10280000171EA2F10102F9D1F0BD2DE9F0410F46EA
:10281000164604463D463346102B28D305F0030CDC
:1028200004F003084CEA080CBCF1000F1FD121464C
:102830002A4610E052F804CB41F804CB52F804CBFE
:1028400041F804CB52F804CB41F804CB52F804CB46
:1028500041F804CB103B102BECD204E052F804CB2F
:1028600041F804CB1B1F042BF8D20C46154603E09D
:1028700015F801CB04F801CBB3F1000CA3F101036F
:10288000F6D1BDE8F08170B50C46014623468B4277
:1028900010D29D188D420DD91144134405E05D1EE0
:1028A0002B462E784D1E29462E70151EA2F10102D0
:1028B000F5D108E003E013F8015B01F8015B151E98
:1028C000A2F10102F7D170BDF0B5034600201C460D
:1028D0000D4608E026782F78F61B301E00D004E065
:1028E000641C6D1C521E002AF4D800BFF0BD0146C6
:1028F0000A4600E0521C10780028FBD1501A70479D
:10290000F0B506460F463846FFF7F1FF05460DB90C
:102910003046F0BD3046FFF7EAFF044609E0641E8A
:102920002A4639463046FFF7CFFF08B93046F0E770
:10293000761CAC42F3DA0020EBE730B503460C46D8
:1029400000BF13F8011B14F8012B412902DB5A299F
:1029500000DC2031412A02DB5A2A00DC203291427D
:1029600001D10029EDD1881A30BD70B50346A2B15E
:1029700018460C4600BF14F8016B00F8016B3EB915
:1029800002E0002500F8015B551E2A1EF9D102E085
:10299000551E2A1EEFD100BF00BF184670BD30B5CE
:1029A000034600200BE011F8015B1C78641B64B245
:1029B000201E02D113F8015B05B902E0521E002A65
:1029C000F1D100BF30BD024601E0521C491C107815
:1029D00018B110780B789842F7D010780B78C01A9D
:1029E000704702460B46114600E0491C087810B1BA
:1029F000881A9842F9D3881A704770B50446204661
:102A0000FFF775FF451C284600F064FC06460EB92A
:102A1000002070BD2A4621463046FFF7F6FE3046BC
:102A2000F7E770472DE9F04F85B00D469C46DDE98C
:102A30000F740E9B04F04008B8F1000F02D0DFF8CD
:102A4000188101E0DFF81481CDF8008004F010084F
:102A5000B8F1000F01D024F0010404F00108B8F12E
:102A6000000F02D04FF0300801E04FF02008C246BE
:102A7000002604F00208B8F1000F11D0002A02DA93
:102A80002D2652420CE004F00408B8F1000F01D0EA
:102A90002B2605E004F00808B8F1000F00D020262E
:102AA000002142B94FF0300B8846491C0DF1040952
:102AB00009F808B01DE01AE0E146B9F10A0F08D1A3
:102AC0004FF00A0BB2FBFBFE0BFB1E28B2FBFBF226
:102AD00002E002F00F08120900BFDDF8009019F8BB
:102AE00008B08846491C0DF1040909F808B0002A0D
:102AF000E2D1B94200DD0F46DB1B04F01108B8F14A
:102B0000000F10D116B1002B00DD5B1E06E0A842BD
:102B100003D84FF0200880F80080401CB3F1000873
:102B2000A3F10103F3DC26B1A84201D806705B1EB5
:102B3000401C04F01008B8F1000F0AD104E0A842CC
:102B400001D880F800A0401CB3F10008A3F10103F4
:102B5000F5DC0CE054000020E84E0008D74E0008D9
:102B6000A84203D84FF0300880F80080401CB846D7
:102B70007F1E8845F4DC08E0A84205D80DF1040862
:102B800018F8018080F80080401CB1F10008A1F124
:102B90000101F1DC06E0A84203D84FF0200880F8DC
:102BA0000080401CB3F10008A3F10103F3DC05B081
:102BB000BDE8F08F0146002009E00B685A1C0A604E
:102BC0001A7800EB800302EB4302A2F130000A689E
:102BD0001278303A0A2AF0D370472DE9FF4F89B0B6
:102BE000804644460A984044461E464504D24FF06B
:102BF000FF36A6EB08000A906FE10B9800782528B5
:102C000006D0B44202D80B9800782070641C61E1B1
:102C1000002526E00B98401C0B900B9800782D287F
:102C200002D145F010051CE00B9800782B2802D14A
:102C300045F0040515E00B980078202802D145F0F6
:102C400008050EE00B980078232802D145F02005F6
:102C500007E00B980078302802D145F0010500E02C
:102C600000E0D7E700BF4FF0FF370B98007830380F
:102C70000A2804D20BA8FFF79DFF07460EE00B9829
:102C800000782A280AD10B98401C0B900C9880C819
:102C90000C90002F02DA7F4245F010054FF0FF390B
:102CA0000B9800782E281CD10B98401C0B900B9889
:102CB000007830380A2804D20BA8FFF77BFF814642
:102CC0000AE00B9800782A2806D10B98401C0B903C
:102CD0000C9850F8049B0C90B9F1000F01DA4FF0FA
:102CE0000009002004900B980078682803D00B9806
:102CF00000786C2805D10B98007804900B98401C44
:102D00000B900A2005900B9800786F2875D00CDC8A
:102D1000632813D004DC252870D058286FD18DE0AB
:102D200064286DD06928F9D18FE070286AD07328A3
:102D300025D0752878D07828F0D182E005F01000F1
:102D400040B904E0B44201D820202070641C781EF1
:102D5000071EF7DC0C9810F8041B0C90C8B2079003
:102D6000B44201D807982070641C04E0B44201D832
:102D700020202070641C781E071EF7DCAAE00C9847
:102D8000006806900C98001D0C90069808B9C1A028
:102D900006900698FFF7ABFD8346B9F1000F02DD00
:102DA000CB4500DDCB4605F0100048B904E0B44245
:102DB00001D820202070641C38467F1E5845F6DC60
:102DC000002008900BE0B44202D8069800782070EA
:102DD000641C0698401C06900898401C08900898AF
:102DE0005845F0DB04E0B44201D820202070641C78
:102DF00038467F1E5845F6DC6CE01CE015E028E004
:102E000022E0FFE7781C10B9082745F00105CDE95D
:102E1000007902950C9804C8102331460C90204686
:102E2000FFF700FE044655E012E0B44201D8252029
:102E30002070641C4EE0082005901DE045F0400520
:102E400000BF1020059017E000BF45F0020500BF4D
:102E500012E0B44201D825202070641C0B98007841
:102E600030B1B44202D80B9800782070641C02E0A4
:102E70000B98401E0B902DE000BF04986C2807D1E2
:102E80000C9850F804AB0C9005F00200B8B116E0B5
:102E9000049868280BD10C9830F8041B1FFA81FAAB
:102EA0000C9005F0020050B10FFA8AFA07E00C9876
:102EB00050F804AB0C9005F0020000B100BFCDE962
:102EC00000790295524631462046059BFFF7AAFD40
:102ED000044600BF0B98401C0B900B98007800280C
:102EE0007FF48BAEB44201D8207001E00020307036
:102EF000A4EB08000DB0BDE8F08F0FB438B505A8FD
:102F000000907F216548009B049AFFF766FE044607
:102F10007F2C00D97F246148FEF759FA00200090E9
:102F200038BC5DF814FB08B55DA0FFF7E6FF5FA0B5
:102F3000FFF7E3FF66A0032300221946009067A075
:102F4000FFF7DBFF6DA0FFF7D8FF08BD0FB4F8B5A2
:102F500004460D4609A8009029462046009B089A81
:102F6000FFF73BFE0646002000903046F8BC5DF8B7
:102F700014FB37B505460C4622464FF0FF31284674
:102F8000029BFFF72AFE3EBD0FB438B5044606A8E3
:102F900000902046009A0599FFF7EBFF05460020B8
:102FA0000090284638BC5DF814FB10B5044604B9FF
:102FB00010BD2046FEF70BFA00BFF9E72DE9F041FE
:102FC00007460C46E01C20F00304F81C20F0030028
:102FD00000EB0408404600F07DF9054665B1601E2F
:102FE000284008B92E1904E0601E2844611E20EA1A
:102FF000010646F8045C35462846BDE8F08170B508
:10300000044654F8045C284600F05EFA70BD0146A0
:1030100009B900207047C8B220B1C8B2424A105C5A
:10302000401CF7E701F47F4028B13F48C1F3072275
:10303000805C0930EEE701F47F0028B13A48C1F323
:103040000742805C1130E5E7374800EB11600078FB
:103050001930DFE7354908607047F8B504460D467A
:103060001646002000903148006858B933462A4679
:1030700021462FA0FFF741FF00BF9DF80000002868
:10308000FBD005E0324629462046284B1B6898476E
:10309000F8BD0000284E554C4C290000701200204D
:1030A0000A205C207C202F0A000000002D205254B2
:1030B000202D2020202020546872656164204F70EC
:1030C00065726174696E672053797374656D0A0067
:1030D000446563203231203230323300202F207C8F
:1030E000205C202020202025642E25642E256420AD
:1030F0006275696C642025730A000000203230304C
:1031000036202D203230313820436F707972696754
:1031100068742062792072742D746872656164200D
:103120007465616D0A000000D74D0008580000204A
:103130002825732920617373657274696F6E206628
:1031400061696C65642061742066756E6374696F73
:103150006E3A25732C206C696E65206E756D626504
:10316000723A2564200A000070B50446F3480068EE
:10317000844204D2A222F249F2A0FFF76EFFF9487E
:103180000068844204D3A322ED49F7A0FFF765FF4E
:10319000608820B1A422EA49FEA0FFF75EFFE7495C
:1031A000606809684518AC4215D0688898B9ED4840
:1031B000006885420FD0FB480068A84201D1F94859
:1031C000046068686060DD480068201ADB4A69684E
:1031D000126811448860D949A06809684618A64257
:1031E00011D0708878B9EF480068A04201D1ED484D
:1031F000066060687060D1480068301ACF4A616824
:1032000012681144886070BD2DE9F04705460E46EE
:10321000E81C20F0030726F0030800BF01F068FB5C
:103220008146FFF797FA40B1DF49E0A0FFF765FE5E
:10323000D322DD49E7A0FFF710FF484601F05CFB11
:1032400000BFB8F1180F09D9A8F11800B84205D38A
:10325000A8EB07001838E049086006E03246294626
:10326000DEA0FFF74AFEBDE8F087B448076000BF64
:1032700000BF04684FF4F5502080D74800680C3038
:1032800060600020A0606080AC4960680968084404
:10329000B44908604FF4F550096808800120B1492D
:1032A00009684880CC4800680C30AE49096848601D
:1032B000C94800680C30AB490968886000230122C6
:1032C000D5A1D748FEF790FB9C480068B549086037
:1032D00000BFC8E72DE9F047054600BF01F008FB35
:1032E0008146FFF737FA48B1CE49B0A0FFF705FE97
:1032F0004FF48B72CB49B7A0FFF7AFFE484601F001
:10330000FBFA00BF15B90020BDE8F087E81C20F0EB
:103310000300A84201D000BF01E000BF00BFE81CCD
:1033200020F00305AC480068854203D900BF00BF08
:103330000020E9E70C2D00D20C254FF0FF31B848F2
:10334000FEF7CDFB974800687C490968461AB0E053
:103350007A4800688419608800287BD106F10C0047
:103360006168081AA84275D306F10C006168091A51
:1033700005F11800814230D306F10C0000EB05087E
:103380006E48006800EB08074FF4F55038800020C5
:10339000788060687860BE60C4F804800120608036
:1033A0008D48796800680C30814205D0634978689F
:1033B00009680844C0F808809B48016805F10C00C2
:1033C000084499490860994800680968884219D2F8
:1033D000954800689549086014E0012060805749CD
:1033E00060680968611A401A8F49096808448E4963
:1033F00008608E4800680968884203D28A480068DD
:103400008A4908604FF4F55020806648006884427D
:1034100024D107E0634800684068484909680844C7
:10342000604908605F480068408828B15D480068CE
:103430004C4909688842EDD15A48006849490968F1
:1034400088420BD057480068408838B140F2831258
:10345000744900E029E076A0FFF7FFFD7048FEF711
:10346000B8FB04F10C0028443E490968884205D99C
:1034700040F287126B497848FFF7EFFD04F0030034
:1034800028B14FF4C47267497448FFF7E6FD04F0B1
:10349000030028B140F28912624971A0FFF7DDFDF7
:1034A00000BF00BF04F10C002EE724480068304440
:1034B000466849480068401BB0423FF649AF58484B
:1034C000FEF787FB00201FE770B5054600BF01F03F
:1034D0000FFA0646FFF73EF948B16D4933A0FFF7F2
:1034E0000CFD40F229226A493AA0FFF7B6FD3046AA
:1034F00001F002FA00BF05B970BD05F0030028B164
:1035000040F22D22624963A0FFF7A7FD0B48006837
:10351000854203D313480068854205D340F22E222A
:103520005B496948FFF799FD04480068854203D369
:103530000C4800688542C9E0C9E000005C0000203A
:10354000F94E00082872745F75696E74385F7420D4
:103550002A296D656D203E3D20686561705F70743D
:1035600072000000600000202872745F75696E743C
:10357000385F74202A296D656D203C202872745FA5
:1035800075696E74385F74202A29686561705F659B
:103590006E6400006D656D2D3E75736564203D3D64
:1035A0002030000064000020044F000846756E6360
:1035B00074696F6E5B25735D207368616C6C206E3F
:1035C0006F74206E65207573656420696E204953A1
:1035D000520A000030000000680000206D656D2078
:1035E000696E69742C206572726F722062656769FA
:1035F0006E206164647265737320307825782C20A6
:10360000616E6420656E642061646472657373200A
:10361000307825780A0000006865617000000000BD
:10362000F0120020184F00086C00002070000020ED
:1036300028286C66726565203D3D20686561705F75
:10364000656E6429207C7C2028216C667265652D5E
:103650003E757365642929003852000890510008AE
:1036600028282872745F75696E7433325F74296D0F
:10367000656D292026202852545F414C49474E5FF2
:1036800053495A45202D20312929203D3D20300025
:10369000374F000828282872745F75696E743332BA
:1036A0005F7429726D656D292026202852545F4170
:1036B0004C49474E5F53495A45202D203129292036
:1036C0003D3D203000000000DC51000802D300BF67
:1036D00000BF11E7A5F10C0400BF00BF4FF0FF31A0
:1036E0008C48FEF7FCF9608818B12088B0F5F55FCA
:1036F00008D089A0FFF701FC2388628821468DA0AD
:10370000FFF7FBFB608828B940F24D22954996A04F
:10371000FFF7A3FC2088B0F5F55F05D040F24E22FC
:10372000904994A0FFF799FC002060804FF4F55079
:10373000208097480068844201D2954804609549EA
:1037400060680968611A401A93490968081A924921
:1037500008602046FFF708FD6E48FEF73AFA00BF02
:10376000CAE62DE9F84F06460C4600BF01F0C0F846
:103770000090FEF7EFFF58B18849AFF2D010FFF785
:10378000BCFB40F2AD128549AFF2B810FFF765FC03
:10379000009801F0B1F800BFE01C20F0030480485D
:1037A0000068844204D900BF00BF0020BDE8F88F44
:1037B00024B93046FFF788FE0020F7E71EB92046FF
:1037C000FFF788FDF2E74FF0FF315248FEF787F927
:1037D00070480068864203D372480068864204D36A
:1037E0004C48FEF7F6F93046E0E7A6F10C086948C8
:1037F0000068A8EB0009D8F80400A0EB0900A0F1CC
:103800000C07A74204D14348FEF7E3F93046CDE761
:1038100004F11800B8422DD2381B5F490968081A14
:103820005D49086009F10C0000EB040A5948006882
:1038300000EB0A054FF4F550288000206880D8F886
:1038400004006860C5F80890C8F804A05448696886
:1038500000680C30814205D04E4968680968084408
:10386000C0F808A02846FFF77FFC2A48FEF7B1F908
:1038700030469BE72748FEF7ACF92046FFF72AFDC4
:103880008346BBF1000F0CD0A74201D2384600E0BE
:103890002046024631465846FEF7B7FF3046FFF74E
:1038A00013FE584682E72DE9F04104460D4600BF5D
:1038B00001F01EF80746FEF74DFF58B13A49AFF246
:1038C0001430FFF71AFB40F212223749AFF2FC2006
:1038D000FFF7C3FB384601F00FF800BF04FB05F00B
:1038E000FFF7F8FC06462EB104FB05F20021304636
:1038F000FEF767FF3046BDE8F08110B1284B1B682A
:10390000036011B1244B1B680B6012B1274B1B687D
:1039100013607047F0120020746F20667265652096
:103920006120626164206461746120626C6F636B0A
:103930003A0A00006D656D3A203078253038782CD1
:10394000207573656420666C61673A2025642C20BD
:103950006D6167696320636F64653A203078253054
:1039600034780A00374F00086D656D2D3E7573651C
:10397000640000006D656D2D3E6D61676963203DDB
:103980003D20484541505F4D4147494300000000FC
:10399000640000205C0000206C000020224F000822
:1039A00068000020600000202D4F000870000020FB
:1039B0000268516002680A60016048607047D0E99F
:1039C00000215160D0E90012116040600060704732
:1039D0007047024600210AE0804800EB01100078A1
:1039E000904203D17D4800EB01107047491C052926
:1039F000F2DB0020F9E72DE9F04104460D461646BA
:103A00002846FFF7E6FF07462FB94FF48372744943
:103A100074A0FFF722FB45F0800020720822314697
:103A20002046FEF7A2FF00F063FF804604F10C0180
:103A3000381DFFF7BDFF404600F05EFFBDE8F08196
:103A400070B504462CB94FF494726C496CA0FFF722
:103A500004FB00F04DFF054604F10C00FFF7AFFF3B
:103A6000284600F049FF70BD2DE9F04706460F4695
:103A700000BF00F03DFF8146FEF76CFE48B165498E
:103A800065A0FFF73AFA40F2451262496CA0FFF7D1
:103A9000E4FA484600F030FF00BF3046FFF799FFD8
:103AA00005462DB940F251125A494EA0FFF7D5FAFA
:103AB000E868FFF70FFC044614B90020BDE8F08762
:103AC000267200206072082239462046FEF74DFF1C
:103AD00000F00EFF804604F10C01281DFFF768FF7F
:103AE000404600F009FF2046E8E770B504462CB9CF
:103AF00040F28712534942A0FFF7AFFA207A00F054
:103B0000800028B14FF4C4724E494FA0FFF7A5FAC8
:103B100000F0EEFE054604F10C00FFF750FF2846CA
:103B200000F0EAFE2046FFF7CFFC70BD10B504465A
:103B30002CB94FF4D6724F4931A0FFF78EFA207A94
:103B400000F0800008B1012010BD0020FCE72DE945
:103B5000F04705460E464FF00008002700240DB13F
:103B60000B2E02DD0020BDE8F08700BF00F0C0FE94
:103B70008146FEF7EFFD48B13F4927A0FFF7BDF9A9
:103B800040F2CB123C492EA0FFF767FA484600F0FE
:103B9000B3FE00BF00F03CF954B93046FFF719FFFF
:103BA00004462CB940F20F2233490EA0FFF755FA14
:103BB00067680CE0A7F10C08082229464046FEF78A
:103BC000EEFE18B900F032F94046CCE73F68201D00
:103BD0008742EFD100F02AF90020C4E774000020EA
:103BE0003F4F0008696E666F726D6174696F6E2079
:103BF000213D2052545F4E554C4C00004E4F000862
:103C00006F626A65637420213D2052545F4E554CAB
:103C10004C0000005F4F000846756E6374696F6E5C
:103C20005B25735D207368616C6C206E6F74206E11
:103C300065207573656420696E204953520A00003F
:103C400030000000724F000821286F626A656374BB
:103C50002D3E7479706520262052545F4F626A654C
:103C600063745F436C6173735F5374617469632938
:103C700000000000834F00089D4F000810B5002091
:103C80007B49088000BF00BF002405E0794901EBB3
:103C9000C40000F0EAF8641C082CF7DB0720764922
:103CA000087000207549086075490860754800F083
:103CB000DCF810BD70B572480068FFF7A8F9451E22
:103CC0006C4850F83500A0F114046C48046004F10D
:103CD0001C0000F042FE70BD2DE9F04100F008FE2E
:103CE00007466348008888BB65480068FFF78FF97E
:103CF000461E604850F83600A0F114045F48006882
:103D000084421FD05C490E705C480568046000BFA7
:103D100000BF5D48007848B904F11C0105F11C00A2
:103D200000F0EDFD384600F0E7FD0EE000BF00BFFB
:103D300004F11C0105F11C0000F0E1FD384600F023
:103D4000DBFD02E0384600F0D7FD03E0FFE7384630
:103D500000F0D2FDBDE8F08170B504462CB94FF4F7
:103D600091724A494AA0FFF778F900F0C1FD054673
:103D700014F8340F20F00F0040F00100207062783A
:103D8000343C3C4B03EBC20004F114014268116067
:103D900042684A604160086000BF00BF00BF384908
:103DA000A06B0968084336490860284600F0A4FD66
:103DB00070BD70B504462CB94FF4A872394934A0CF
:103DC000FFF74BF900F094FD054600BF00BF04F17A
:103DD0001400D0E900215160D0E900121160406068
:103DE000006000BF94F83510224A02EBC100016860
:103DF000814201D1012100E0002129B12048A16BBD
:103E0000006888431E490860284600F075FD70BDB3
:103E100010B500F06DFD044615480088401C00B246
:103E200013490880204600F067FD10BD10B500F072
:103E30005FFD04460E480088401E00B20C49088011
:103E40000846B0F90000002807DC00200880204662
:103E500000F052FDFFF740FF02E0204600F04CFD6D
:103E600010BD0348008880B2704740600060704712
:103E7000C400002010130020CC000020C800002047
:103E8000D0000020D400002050000020AC4F0008DB
:103E900074687265616420213D2052545F4E554C18
:103EA0004C000000C64F00080268516002680A60BA
:103EB000016048607047D0E900215160D0E90012EC
:103EC000116040600060704770B5FE48046800F003
:103ED0000FFD05462046FFF76CFF042084F83400F0
:103EE00004F1440000F064FB2046FFF71FFE0128A8
:103EF00005D1206F18B92046FFF7A2FD04E004F1B8
:103F00001401F148FFF7D0FF284600F0F5FCFFF759
:103F1000E3FE70BD70B505462C462CB940F2D122A7
:103F2000EA49EBA0FFF799F894F8340000F00F008D
:103F3000022805D040F2D222E449EAA0FFF78DF82A
:103F40006FF00100206304F11400FFF7B4FF204676
:103F5000FFF702FFFFF7C0FE70BD2DE9FC5F0446CE
:103F60008B4616461F46DDE90C9ADDE90E5804F132
:103F700014004060006000BF26626762C4F82890A9
:103F8000C4F82CA02321D4E90A02FEF71AFCD4E9D4
:103F90000A3C63441A1FAFF2CF03D4E9080100F0D2
:103FA0001FFDE061082D04DB9E22DD49DDA0FFF747
:103FB00054F83034A57165710020A060C4F80C80FD
:103FC000C4F810802060207120646064303C009050
:103FD0002346AFF2BF022146019004F1440000F0F5
:103FE000CAFA0020BDE8FC9F2DE9FF5F04460D469C
:103FF000174698460EAE96E8400E24B9EE22D249F6
:10400000B3A0FFF72AF826B9EF22CF49CFA0FFF7D8
:1040100024F82A4600212046FFF7EDFC43463A46A5
:10402000294620468DE8400EFFF797FF04B0BDE813
:10403000F09FA4480068704770B504462CB940F260
:10404000A522C849A2A0FFF708F800BF00BF94F856
:10405000340000F00F00022804D000BF00BF4FF072
:10406000FF3070BD00F044FC054604F11400FFF77A
:1040700022FF04F1440000F06CFB284600F03CFCF9
:104080002046FFF769FE0020EBE710B504462CB987
:104090004FF48A72B4498EA0FEF7DFFF94F8340023
:1040A00000F00F0028B140F21512AF49AFA0FEF7A3
:1040B000D4FF94F8360084F8350094F835100120C8
:1040C0008840A06300BF00BF022084F8340020466F
:1040D000FFF7B2FFFFF7ADFF08B1FFF7FDFD0020CE
:1040E00010BD70B504462CB94FF4A072AD4978A04C
:1040F000FEF7B3FF94F8340000F00F0010B1204633
:10410000FFF757FE04F1440000F052FA042084F84F
:1041100034002046FFF794FC206F50B100F0E8FB1C
:10412000054604F114016848FFF7BEFE284600F07A
:10413000E3FB002070BD2DE9FF5F06460F46904669
:104140001D46DDE90EAB31460020FFF78DFC8146B0
:10415000B9F1000F03D1002004B0BDE8F09F28465C
:10416000FFF7B8F8044624B94846FFF7BEFC002024
:10417000F2E743463A46314648468DE8300CFFF7B1
:10418000ECFE4846E8E770B504462CB94FF4D1720E
:1041900085494FA0FEF761FF94F8340000F00F004E
:1041A00010B12046FFF705FE04F1440000F000FACC
:1041B000042084F8340000F09BFB054604F1140150
:1041C0004148FFF771FE284600F096FB002070BDC5
:1041D00070B500F08DFB05463A48046894F8340049
:1041E00000F00F0001281CD1D4E90510814218D03D
:1041F00004F11400FFF75FFE94F835206B4B03EBDE
:10420000C20004F114014268116042684A604160D2
:10421000086000BF284600F06FFBFFF75DFD00203F
:1042200070BD284600F068FB0020F9E770B5044631
:104230002CB940F27B225E4925A0FEF70EFF00BF9D
:1042400000BF94F8340000F00F00012804D000BF34
:1042500000BF4FF0FF3070BD00F04AFB054694F8F8
:10426000340020F00F0040F0020084F834002046B3
:10427000FFF79FFD04F1440000F06BFA284600F0C0
:104280003BFB0020E7E731B500F032FB05460D4867
:1042900004682CB94FF4FD7246490DA0FEF7DDFE0F
:1042A0002046FFF7C3FF6A46002104F1440000F0F6
:1042B0006FFA04F1440000F0C3F9284600F01CFB3B
:1042C0007AE00000C8000020D400002078500008E8
:1042D00074687265616420213D2052545F4E554CD4
:1042E0004C000000287468726561642D3E7374612F
:1042F0007420262052545F5448524541445F535421
:1043000041545F4D41534B29203D3D2052545F5451
:1043100048524541445F53555350454E44000000B8
:10432000E04F00087072696F72697479203C205206
:10433000545F5448524541445F5052494F5249548A
:10434000595F4D4158000000F04F000873746163DD
:104350006B5F737461727420213D2052545F4E551F
:104360004C4C000067500008FF4F0008287468722A
:104370006561642D3E7374617420262052545F542D
:1043800048524541445F535441545F4D41534B297A
:10439000203D3D2052545F5448524541445F494EB0
:1043A000495400001150000822500008101300204A
:1043B0005550000833500008FFF78EFC206B801C1E
:1043C00008B900202063002038BD10B504462046FF
:1043D000FFF759FF10BD2DE9F04104460E46154682
:1043E00034B940F22D223549AFF21C10FEF735FEEC
:1043F0003EB3012E2AD0022E2CD100F079FA0746C6
:1044000094F8340000F00F0001280ED12046FFF789
:10441000D0FC287884F8350094F8351001208840C5
:10442000A0632046FFF798FC07E0287884F8350061
:1044300094F8351001208840A063384600F05CFAFB
:1044400009E02046FFF721FEBDE8F0812046FFF796
:104450009AFEF9E700BF00BF0020F5E72DE9F04123
:104460000646FFF7E6FD08B1FFF7D2FC0020FFF794
:10447000B0FA04462CB940F2F722114911A0FEF718
:10448000ECFD656810E0A5F10C07082231463846BE
:10449000FEF785FA38B9FFF7CCFD08B1FFF7C6FC87
:1044A0003846BDE8F0812D68201D8542EBD1FFF72D
:1044B000C0FD08B1FFF7BAFC0020F2E74350000846
:1044C0008A500008696E666F726D6174696F6E2044
:1044D000213D2052545F4E554C4C00000268516003
:1044E00002680A600160486070472DE9F0470446A1
:1044F0000E4617469846DDF8209084F80990607AB9
:1045000020F001006072E66127620020A062C4F81A
:104510002480002506E004F1140101EBC50000F041
:10452000B0F96D1C012DF6DBBDE8F08770B50446CF
:10453000204600F0A9F910B14FF0FF3070BD20689F
:10454000A0F11405A86AF9E710B50246002001465B
:104550000EE002F1140303EBC100D0E900436360F5
:10456000D0E9003423604060006000BF481C014671
:104570000129EEDB10BD2DE9F84304460D46164631
:104580001F46DDE9088924B9BC22C349C3A0FEF750
:1045900064FD2A4609212046FFF72DFA43463A4694
:1045A00031462046CDF80090FFF79FFFBDE8F88325
:1045B00070B5044624B9D122BD49B8A0FEF74DFD1F
:1045C00000F096F905462046FFF7BEFF284600F0AA
:1045D00093F92046FFF734FA002070BD2DE9F84327
:1045E00004460E4617469846DDF8209021460920DD
:1045F000FFF73AFA054615B90020BDE8F8834346AF
:104600003A4631462846CDF80090FFF76EFF28461F
:10461000F3E770B504462CB94FF48772A5499FA003
:10462000FEF71BFD00F064F905462046FFF78CFFFE
:10463000284600F061F92046FFF757FA002070BDC8
:104640002DE9F84305462DB94FF498729A4993A085
:10465000FEF703FD00F04CF980462846FFF774FF93
:10466000687A20F001006872404600F045F96FF06A
:104670000041686A884205D34FF4A0728E498FA02A
:10468000FEF7EBFCFDF721F8696A0844A86200F028
:104690002FF98046924E009600242AE019E05DF83A
:1046A00024201168142202EBC402881A826AAB6AC1
:1046B000D21A00D108E0826AAB6AD21A6FF00043C6
:1046C0009A4200D20CE000BF5DF8240000684DF86B
:1046D00024005DF8240006EBC40149688842DED15D
:1046E00000BF2CB15DF824000830611C4DF821009A
:1046F000641C002CD2D07B480068401C79490860BB
:104700000846076805F114010098FFF7E7FE022448
:1047100012E007F0030060B9C4F1010305F11402CF
:1047200002EBC301C4F101025DF82200FFF7D6FEDF
:1047300000E003E0BF08641C012CEAD900BF687ADE
:1047400040F001006872404600F0D6F80020BDE855
:10475000F88370B504462CB94FF4D47262494FA067
:10476000FEF77BFC607A00F0010010B94FF0FF30DB
:1047700070BD00F0BDF805462046FFF7E5FE28466F
:1047800000F0BAF8607A20F0010060720020EFE7D4
:1047900070B504460E4615462CB940F2C91253496D
:1047A0003EA0FEF75AFC4EB1012E04D0022E08D0D6
:1047B000032E10D10AE0606A28600CE0286860626D
:1047C00009E0607A20F00200607204E0607A40F054
:1047D0000200607200BF00BF002070BD70B500BF56
:1047E00000BFFCF772FF054600F082F806462AE09B
:1047F0003B480068A0F11404A06A281A6FF0004139
:1048000088421FD22046FFF79FFED4E90710884751
:10481000FCF75BFF054600BF00BF607A00F00200B6
:1048200058B1607A00F0010038B1607A20F00100E0
:1048300060722046FFF704FF05E0607A20F0010077
:10484000607200E004E0264800F01EF80028CFD097
:1048500000BF304600F050F800BF00BF70BD10B57B
:104860001F48FFF763FE10BD10B5002405E01C498A
:1048700001EBC40000F005F8641C002CF7D010BD5B
:10488000704740600060704701460868884201D167
:10489000012070470020FCE79950000874696D659D
:1048A0007220213D2052545F4E554C4C00000000B8
:1048B000A7500008B7500008C750000874696D651C
:1048C000722D3E696E69745F7469636B203C20527F
:1048D000545F5449434B5F4D4158202F2032000014
:1048E000DC000020E4000020D6500008E45000085E
:1048F000EFF3108072B6704780F310887047324A29
:104900001368012B04D04FF0010313602F4A10608D
:104910002F4A11602F484FF0805101607047EFF32C
:10492000108272B62848016891B14FF00001016011
:104930002648016829B1EFF3098121E9F00F0068E9
:104940000160234909680968B1E8F00F81F309881B
:1049500082F310884EF0040E70471D4908601B4911
:104960004FF00000086018494FF0010008601A4835
:104970004FF47F01D0F8002041EA020101601548A0
:104980004FF08051016015480068006880F3088886
:1049900061B662B670471EF0040F14BFEFF30880D3
:1049A000EFF3098020E9F00F40F804ED14BF80F325
:1049B000088880F3098800B500F038F85DF804EB4A
:1049C0004EF0040E70470000F0000020E8000020C8
:1049D000EC00002004ED00E020ED00E008ED00E038
:1049E000F0B504460D461646301D20F0070040384D
:1049F0000146002203E0424F41F82270521C102A67
:104A0000F9D30D624FF0000CC1F824C0C1F828C0E2
:104A1000C1F82CC0C1F830C04B638C634FF0807C70
:104A2000C1F83CC0F0BD37490860704770B5054615
:104A30002C1D3448006838B1284632490968884737
:104A4000064606B970BD00BF2FA0E16BFEF755FA10
:104A500031A0216AFEF751FA33A0616AFEF74DFAE0
:104A600035A0A16AFEF749FA37A0E16AFEF745FAD8
:104A700039A02168FEF741FA3BA06168FEF73DFAD4
:104A80003DA0A168FEF739FA3FA0E168FEF735FACC
:104A900041A02169FEF731FA43A06169FEF72DFAC2
:104AA00045A0A169FEF729FA47A0E169FEF725FABA
:104AB00049A0216BFEF721FA4BA0616BFEF71DFAAE
:104AC0004DA0A16BFEF719FA287800F0040038B168
:104AD000FFF7AFFA064631464BA0FEF70EFA02E0AA
:104AE00051A0FEF70AFA00BFFEE710B555A0FEF789
:104AF00004FA4FF4B072574957A0FEF7AEFA10BD52
:104B0000EFBEADDEF40000207073723A20307825DD
:104B10003038780A000000007230303A20307825B2
:104B20003038780A000000007230313A20307825A1
:104B30003038780A000000007230323A2030782590
:104B40003038780A000000007230333A203078257F
:104B50003038780A000000007230343A203078256E
:104B60003038780A000000007230353A203078255D
:104B70003038780A000000007230363A203078254C
:104B80003038780A000000007230373A203078253B
:104B90003038780A000000007230383A203078252A
:104BA0003038780A000000007230393A2030782519
:104BB0003038780A000000007231303A2030782511
:104BC0003038780A000000007231313A2030782500
:104BD0003038780A000000007231323A20307825EF
:104BE0003038780A00000000206C723A20307825B6
:104BF0003038780A000000002070633A20307825B1
:104C00003038780A000000006861726420666175BF
:104C10006C74206F6E207468726561643A2025732D
:104C20000D0A0D0A0000000068617264206661755B
:104C30006C74206F6E2068616E646C65720D0A0D75
:104C40000A00000073687574646F776E2E2E2E0A4A
:104C500000000000F550000830000000064C074D31
:104C600006E0E06840F0010394E80700984710343C
:104C7000AC42F6D3FBF760FA90520008B05200083D
:104C800002E008C8121F08C1002AFAD17047704715
:104C9000002001E001C1121F002AFBD1704772748D
:104CA0005F6170706C69636174696F6E5F696E6972
:104CB000740072745F7468726561645F69646C65C6
:104CC0005F6578637574650072745F73656D5F69A5
:104CD0006E69740072745F73656D5F64657461639F
:104CE000680072745F73656D5F63726561746500FF
:104CF00072745F73656D5F64656C65746500727472
:104D00005F73656D5F74616B650072745F73656D71
:104D10005F636F6E74726F6C0072745F6D625F6957
:104D20006E69740072745F6D625F6465746163685C
:104D30000072745F6D625F637265617465007274A6
:104D40005F6D625F64656C6574650072745F6D624F
:104D50005F73656E645F776169740072745F6D6222
:104D60005F726563760072745F6D625F636F6E740D
:104D7000726F6C0072745F6D715F696E697400723E
:104D8000745F6D715F6465746163680072745F6DF8
:104D9000715F6372656174650072745F6D715F64E9
:104DA000656C6574650072745F6D715F73656E64C8
:104DB0000072745F6D715F757267656E74007274F6
:104DC0005F6D715F726563760072745F6D715F63B2
:104DD0006F6E74726F6C000000010002000100032E
:104DE00000010002000100040001000200010003B4
:104DF00000010002000100050001000200010003A3
:104E00000001000200010004000100020001000393
:104E10000001000200010006000100020001000381
:104E20000001000200010004000100020001000373
:104E30000001000200010005000100020001000362
:104E40000001000200010004000100020001000353
:104E50000001000200010007000100020001000340
:104E60000001000200010004000100020001000333
:104E70000001000200010005000100020001000322
:104E80000001000200010004000100020001000313
:104E90000001000200010006000100020001000301
:104EA00000010002000100040001000200010003F3
:104EB00000010002000100050001000200010003E2
:104EC00000010002000100040001000200010003D3
:104ED00000010002000100303132333435363738FA
:104EE0003961626364656600303132333435363798
:104EF000383941424344454600706C75675F686FBE
:104F00006C65730072745F73797374656D5F686547
:104F100061705F696E69740072745F6D616C6C6F53
:104F2000630072745F7265616C6C6F630072745FB2
:104F300063616C6C6F630072745F667265650072AA
:104F4000745F6F626A6563745F696E69740072741E
:104F50005F6F626A6563745F646574616368007241
:104F6000745F6F626A6563745F616C6C6F636174B8
:104F7000650072745F6F626A6563745F64656C6517
:104F800074650072745F6F626A6563745F69735FF2
:104F900073797374656D6F626A6563740072745FB0
:104FA0006F626A6563745F66696E640072745F73D2
:104FB00063686564756C655F696E736572745F7450
:104FC00068726561640072745F7363686564756CB0
:104FD000655F72656D6F76655F74687265616400A8
:104FE0005F72745F7468726561645F696E69740092
:104FF00072745F7468726561645F696E697400726F
:10500000745F7468726561645F73746172747570E3
:105010000072745F7468726561645F646574616373
:10502000680072745F7468726561645F64656C6562
:1050300074650072745F7468726561645F736C6537
:1050400065700072745F7468726561645F636F6E2F
:1050500074726F6C0072745F7468726561645F7300
:10506000757370656E640072745F746872656164F4
:105070005F726573756D650072745F7468726561E7
:10508000645F74696D656F75740072745F746872C3
:105090006561645F66696E640072745F74696D65F2
:1050A000725F696E69740072745F74696D65725FB6
:1050B0006465746163680072745F74696D65725FC2
:1050C00064656C6574650072745F74696D65725FA8
:1050D00073746172740072745F74696D65725F736A
:1050E000746F700072745F74696D65725F636F6E68
:1050F00074726F6C0072745F68775F6370755F7352
:10510000687574646F776E00BDD3CAD5CFDFB3CC3A
:10511000BDD3CAD5B5BDCFFBCFA2B6D3C1D0BAF3EC
:10512000BBE1D4DAB4AEBFDAB4F2D3A1A3ACCDAC58
:10513000B2BDB3C9B9A6D3EBBCC6CAFDBDE1B9FBCC
:10514000BBE1B4F2D3A1A3A10A000000B0B4CFC266
:105150004B455931BBF2D5DF4B455932B7A2CBCDC8
:10516000B6D3C1D0CFFBCFA2A3ACB2A2C7D2CAB52F
:10517000CFD6CDACB2BDB6FED6B5D0C5BAC5C1BFCF
:10518000BACDBCC6CAFDD0C5BAC5C1BFA3A10A006D
:105190002872745F75696E7433325F7429282872BF
:1051A000745F75696E74385F74202A296D656D208F
:1051B0002B2053495A454F465F5354525543545F31
:1051C0004D454D2920252052545F414C49474E5FA3
:1051D00053495A45203D3D20300000002872745F3D
:1051E00075696E74385F74202A29726D656D203E72
:1051F0003D202872745F75696E74385F74202A29A7
:10520000686561705F707472202626202872745F52
:1052100075696E74385F74202A29726D656D203C43
:10522000202872745F75696E74385F74202A29684B
:105230006561705F656E64002872745F75696E7475
:1052400033325F74296D656D202B2053495A454FC9
:10525000465F5354525543545F4D454D202B2073A8
:10526000697A65203C3D202872745F75696E7433DD
:10527000325F7429686561705F656E6400000000CC
:1052800035170008391700083D17000841170008B6
:10529000B052000800000020F8000000804C000818
:1052A000A8530008F800002058160000904C000891
:1052B00000A24A04000000000000000001020304F4
:1052C00006070809000000000102030401020304AC
:1052D000060708090204060800000000000000009C
:1052E00000000000000000000000000000000000BE
:1052F00000000000000000000100000000000000AD
:10530000000000000000000000000000000000009D
:10531000000000000000000000000000000000008D
:10532000000000000000000078000020780000204D
:1053300078000000010000008800002088000020A4
:1053400020000000040000009800002098000020C9
:105350003000000005000000A8000020A800002088
:105360003400000009000000B8000020B800002050
:105370002C00000000000000000000000000000001
:10538000000000000000000000000000000000001D
:10539000000000000000000000000000000000000D
:0853A000000000000000000005
:0400000508000131BD
:00000001FF
