:020000040000FA
:10000000D00C0020CD010000530700004B0700007A
:100010004F0700001D030000C5080000000000009D
:100020000000000000000000000000005507000074
:1000300021030000000000005D02000057070000DF
:10004000E7010000E7010000E7010000E701000010
:10005000E7010000E7010000E7010000E701000000
:10006000E7010000E7010000E7010000E7010000F0
:10007000E7010000E7010000E7010000E7010000E0
:10008000E7010000E7010000E7010000E7010000D0
:10009000E7010000E7010000E7010000E7010000C0
:1000A000E7010000E7010000E7010000E7010000B0
:1000B000E7010000E7010000E7010000E7010000A0
:1000C000E7010000E7010000E7010000E701000090
:1000D000E7010000B5080000E7010000E7010000AB
:1000E000E7010000E7010000E7010000E701000070
:1000F000E7010000E7010000E7010000E701000060
:10010000E7010000E7010000E7010000E70100004F
:10011000E7010000E7010000E7010000E70100003F
:10012000E7010000E7010000E7010000E70100002F
:1001300000F002F800F03AF80AA090E8000C8244BF
:100140008344AAF10107DA4501D100F02FF8AFF29C
:10015000090EBAE80F0013F0010F18BFFB1A43F0A5
:10016000010318473C0900005C090000103A24BF55
:1001700078C878C1FAD8520724BF30C830C144BF0C
:1001800004680C607047000000230024002500264E
:10019000103A28BF78C1FBD8520728BF30C148BFEA
:1001A0000B6070471FB51FBD10B510BD00F083F880
:1001B0001146FFF7F7FF00F0ADFB00F0A1F803B424
:1001C000FFF7F2FF03BC00F07FFB00000948804707
:1001D00009480047FEE7FEE7FEE7FEE7FEE7FEE729
:1001E000FEE7FEE7FEE7FEE704480549054A064B41
:1001F000704700005F07000031010000D0060020BA
:10020000D00C0020D0080020D0080020224908602F
:1002100022494FF00000086021494FF001000860BA
:1002200020484FF47F01D0F8002041EA020101602C
:100230001D484FF08051016061B662B6184A1368DC
:10024000012B04D04FF001031360144A1060124ACE
:10025000116015484FF0805101607047EFF3108234
:1002600072B60F48016891B14FF0000101600B4870
:10027000016829B1EFF3098121E9F00F00680160FD
:10028000054909680968B1E8F00F81F3098882F32C
:1002900010884EF0040E7047200000201C00002043
:1002A0002400002020ED00E004ED00E070477047DE
:1002B000704770477047754600F02CF8AE46050051
:1002C0006946534620F00700854618B020B5FFF771
:1002D0008BFFBDE820404FF000064FF000074FF0C5
:1002E00000084FF0000B21F00701AC46ACE8C00954
:1002F000ACE8C009ACE8C009ACE8C0098D4670475D
:1003000010B50446AFF300802046BDE81040FFF76B
:1003100056BF0000004870476C06002000BFFEE793
:100320007047000070B50446002594F821000228AB
:1003300003D00420A0630125C1E02068006820F0FC
:100340000E00216808602068006820F00100216824
:1003500008605C492068884252D95A497839206837
:10036000884201D1012047E056496439206888421B
:1003700001D1102040E0534950392068884201D112
:10038000801539E04F493C392068884201D18014FA
:1003900032E04C4928392068884202D14FF480303D
:1003A0002AE0484914392068884202D14FF480106D
:1003B00022E044492068884201D140041CE04249BF
:1003C0002068884201D1012016E03F49143120689D
:1003D000884201D110200FE03B4928312068884233
:1003E00001D1801508E038493C312068884201D1AC
:1003F000801401E04FF480303349091F086051E058
:10040000304978392068884201D1012047E02D49E0
:1004100064392068884201D1102040E029495039D0
:100420002068884201D1801539E026493C3920688E
:10043000884201D1801432E022492839206888425C
:1004400002D14FF480302AE01E49143920688842D6
:1004500002D14FF4801022E01A492068884201D16D
:1004600040041CE018492068884201D1012016E0B0
:10047000154914312068884201D110200FE012493B
:1004800028312068884201D1801508E00E493C31AE
:100490002068884201D1801401E04FF4803009497E
:1004A00080394860012084F8210000BF002084F8D2
:1004B000200000BF606B10B12046616B8847284662
:1004C00070BD00008000024008040240034800683C
:1004D000034909780844014908607047100000206A
:1004E00018000020704700002DE9F04704462068FE
:1004F00005682068C668206847694FF00008C14653
:1005000005F00F08B8F1000F0AD105F0200038B14E
:1005100006F0200020B1204600F04CF9BDE8F0873D
:10052000B8F1000F71D007F0010018B906F490700F
:1005300000286AD005F0010030B106F4807018B1CF
:10054000E06B40F00100E06305F0040030B107F01B
:10055000010018B1E06B40F00200E06305F002001A
:1005600030B107F0010018B1E06B40F00400E06327
:1005700005F0080048B106F0200010B907F00100AE
:1005800018B1E06B40F00800E063E06B68B305F081
:10059000200028B106F0200010B1204600F00AF932
:1005A00020684069C0F38019E06B00F0080010B9C2
:1005B000B9F1000F22D0204600F0DCF82068406935
:1005C00000F04000B0B12068406920F04000216890
:1005D0004861606B50B11848616B4863606BFFF70E
:1005E000A1FE10B1606B416B88470CE02046FFF71D
:1005F00079FF08E02046FFF775FF04E02046FFF78B
:1006000071FF0020E06389E7FFE705F0800030B16B
:1006100006F0800018B1204600F01CF97EE705F0D6
:10062000400030B106F0400018B1204600F0B2F8AA
:1006300074E700BF72E700006107000010B50346D1
:1006400093F83A0020282FD101B10AB9012010BD3A
:1006500000BF93F83800012801D10220F7E70120FC
:1006600083F8380000BF99629A85DA850020D86344
:10067000222083F83A0000BF002083F8380000BF32
:100680001868C06840F480701C68E06018684069B1
:1006900040F001001C6860611868C06840F02000EC
:1006A0001C68E0600020D2E70220D0E710B50446C5
:1006B0002049206888423BD11F48008800F4004050
:1006C00088BB1D48008800F4804070B11B4800784A
:1006D0000A2803D000201849088024E01648008822
:1006E00040F40040144908801DE0144800780D28AB
:1006F00006D11148008840F480400F49088012E07C
:100700000E4800780C490988C1F30D010C4A505479
:1007100009480088401C0849088008460088C72806
:1007200001DD00200880012204490648FFF786FF0A
:1007300010BD0000003801400C0000200E00002019
:10074000640400202C050020704700BFFEE700BFB6
:10075000FEE77047704710B5FFF7B8FE10BD704751
:1007600070B505466C6A0020E085E0842046FFF7FE
:10077000B9FE70BD0168C96821F490710268D1604A
:100780000168496921F0010102685161202180F866
:100790003A10704710B504462068C06820F0400049
:1007A0002168C860202084F839002046FFF7CCFF7C
:1007B000002010BD70B5044694F83A00222847D1B5
:1007C000A068B0F5805F0CD1206950B90025A66AF9
:1007D00020684068C0F308003080A06A801CA062D6
:1007E00015E0A56A0026A068B0F5805F03D0A06878
:1007F00028B9206918B920684068287004E020688A
:10080000406800F07F002870A06A401CA062E08D64
:10081000401E80B2E085C8B92068C06820F0200082
:100820002168C8602068C06820F480702168C860B2
:100830002068406920F0010021684861202084F888
:100840003A002046FFF732FF002070BD0020FCE791
:100850000220FAE7014691F83900212828D188685A
:10086000B0F5805F0BD1086948B90A6A1088C0F3F7
:1008700008000B685860086A801C086205E00B6A73
:10088000581C086218780B685860C88C401E80B2EB
:10089000C88458B90868C06820F080000B68D86028
:1008A0000868C06840F040000B68D86000207047BE
:1008B0000220FCE710B50248FFF716FE10BD00004D
:1008C0002C05002000BFFEE700BF704700BF0120DD
:1008D00006490860642000F04FF8002003490860D2
:1008E000642000F049F800F075F8F0E700000020FF
:1008F00000BF012006490860642000F03DF8002098
:1009000003490860642000F037F800F063F8F0E76E
:100910000400002008B500F07FF84FF400700F4B82
:1009200000220F4900900F4800F09CF80D49143147
:100930000D4800F047F84FF400700C4B00220C49B2
:1009400000900C4800F08EF80A491431064808302F
:1009500000F038F800F076F8002008BD2C000020E8
:10096000CD0800002C0400206C0500202C02002083
:10097000F10800004804002000E0401E0028FCD1DF
:1009800070470000F0B503460C461546281D20F0C0
:10099000070040380146002203E0094E41F822607A
:1009A000521C102AF9D30C6200274F628F62CF626B
:1009B0000F634F638B634FF08077CF63F0BD000010
:1009C000EFBEADDE4268116042684A604160086077
:1009D0007047000070B50E48006814380D4909686A
:1009E000884208D10B48056809488068A0F11404C2
:1009F0000848046007E00748056805480068A0F15A
:100A000014040448046021462846FFF717FC70BD13
:100A10006C050020280000200020014607E0074A5E
:100A200002EBC1004060006000BF481C0146202965
:100A3000F5DB0020024A1060704700006C050020C2
:100A40002800002010B505480068A0F114040448EF
:100A500004602046FFF7DAFB10BD00006C050020A3
:100A6000280000202DE9F04104460D4616461F4699
:100A7000DDF8188004F114004060006000BF65607C
:100A8000A660E760C4F81080D4E9033C63441A1FF1
:100A9000D4E90101FFF776FF20600020BDE8F08176
:100AA000C00A0000000000202C0000006C010000C3
:100AB000EC0A00002C000020A40C000088010000BB
:100AC0000000000000000000000000000000000026
:100AD0000000000010000000010000000000000005
:0C0AE0000000000000000000000000000A
:0400000500000131C5
:00000001FF
