:020000040800F2
:100000003888002045010008151200081B50000820
:10001000171200081B1200081F1200080000000041
:100020000000000000000000000000002312000893
:100030002512000800000000A34F0008F11200087C
:100040005F0100085F0100085F0100085F01000810
:100050005F0100085F0100085F0100085F01000800
:100060005F0100085F0100085F0100085F010008F0
:100070005F0100085F0100085F0100085F010008E0
:100080005F0100085F0100085F0100085F010008D0
:100090005F0100085F0100085F0100085F010008C0
:1000A0005F0100085F0100085F0100085F010008B0
:1000B0005F0100085F0100085F0100085F010008A0
:1000C0005F0100085F0100085F0100085F01000890
:1000D0005F0100085F0100085F0100085F01000880
:1000E0005F0100085F0100085F0100085F01000870
:1000F0005F0100085F0100085F0100085F01000860
:100100005F0100085F0100085F0100085F0100084F
:100110005F0100085F0100085F0100085F0100083F
:100120005F0100085F0100085F0100085F0100082F
:10013000DFF80CD005F0D4F800480047A9160008F5
:10014000388800200648804706480047FEE7FEE75B
:10015000FEE7FEE7FEE7FEE7FEE7FEE7FEE7FEE777
:1001600047020008310100080CB500200190009002
:100170006C48006840F480306A49086000BF6948F4
:10018000006800F4003000900198401C0190009835
:1001900018B90198B0F5A06FF1D16248006800F479
:1001A000003010B10120009001E000200090009884
:1001B000012843D15C48006840F010005A490860AB
:1001C0000846006820F0030008600846006840F018
:1001D0000200086053484068524948600846406839
:1001E00048600846406840F48060486008464068BF
:1001F00020F47C1048600846406840F4E8104860ED
:100200000846006840F08070086000BF45480068FC
:1002100000F000700028F9D04248406820F0030048
:10022000404948600846406840F00200486000BF0E
:100230003C48406800F00C000828F9D10CBD10B50E
:10024000FFF792FF10BD10B53648006840F001007E
:1002500034490860084640683449084031494860DC
:1002600008460068324908402E4908600846006880
:1002700020F4802008600846406820F4FE004860B2
:100280004FF41F008860FFF7DAFF4FF00060294944
:10029000086010BD10B5002100200022214B5B68D2
:1002A00003F00C0121B1042906D0082928D107E068
:1002B000214B224C236027E01F4B204C236023E07E
:1002C000184B5B6803F47010164B5B6803F48032C4
:1002D000022303EB904022B9194B4343174C236090
:1002E0000DE0104B5B6803F4003323B1144B434320
:1002F000124C236003E0104B4343104C236003E097
:100300000D4B0E4C236000BF00BF064B5B68C3F370
:1003100003130C4CE15C094B1B68CB40074C23607A
:1003200010BD000000100240002002400000FFF855
:10033000FFFFF6FE08ED00E000127A00000000204A
:1003400000093D000400002010B50446CC4884425A
:1003500008D10121042000F02DFB0021042000F031
:1003600029FB46E0C748844208D10121082000F05B
:1003700021FB0021082000F01DFB3AE0C248844226
:1003800008D10121102000F015FB0021102000F001
:1003900011FB2EE0BD48844208D10121202000F04D
:1003A00009FB0021202000F005FB22E0B848844230
:1003B00008D10121402000F0FDFA0021402000F08A
:1003C000F9FA16E0B348844208D10121802000F0F8
:1003D000F1FA0021802000F0EDFA0AE0AE488442F4
:1003E00007D10121801500F0E5FA0021A01500F0E9
:1003F000E1FA10BD10B50121084600F0DBFA00213A
:10040000012000F0D7FA10BD2DE9F0410246002589
:100410000026002000230024002791F803C00CF0E0
:100420000F0591F803C00CF0100CBCF1000F03D0C5
:1004300091F802C04CEA050591F800C0BCF1000F2C
:1004400031D0146800202BE04FF0010C0CFA00F3BF
:10045000B1F800C00CEA03069E4220D183004FF0A1
:100460000F0C0CFA03F7BC4305FA03FC4CEA040436
:1004700091F803C0BCF1280F06D14FF0010C0CFA23
:1004800000FCC2F814C00AE091F803C0BCF1480FA8
:1004900005D14FF0010C0CFA00FCC2F810C0401C52
:1004A0000828D1D31460B1F800C0BCF1FF0F34DDCF
:1004B000546800202EE000F1080C4FF0010808FA03
:1004C0000CF3B1F800C00CEA03069E4221D1830070
:1004D0004FF00F0C0CFA03F7BC4305FA03FC4CEA8F
:1004E000040491F803C0BCF1280F05D100F1080CF9
:1004F00008FA0CF8C2F8148091F803C0BCF1480F58
:1005000007D100F1080C4FF0010808FA0CF8C2F806
:100510001080401C0828CED35460BDE8F0814FF60F
:10052000FF710180022181700421C1707047024671
:10053000002093680B400BB1012000E000207047C1
:100540000146886880B2704702460020D3680B409D
:100550000BB1012000E0002070470146C86880B25E
:10056000704701617047416170470AB1016100E065
:1005700041617047C16070474FF480320A43826125
:100580008161826182698269704702460020434B23
:1005900018684FF68073184040EA021008433F4B3A
:1005A000186070473E49C8617047F0B50A4600239D
:1005B00000240021002500F00046B6F1004F02D1D2
:1005C000364EF16901E0354E7168C0F3034583B2E0
:1005D00000F44016B6F5401F08D121F070612F4E8F
:1005E000766826F070662D4F7E6012E000F480166B
:1005F000B6F5801F06D1032606FA05F4A14341F0A3
:10060000706106E0460D360103FA06F6B14341F08B
:10061000706122B1460D360103FA06F6314300F04F
:100620000046B6F1004F02D11C4EF16101E01B4EB5
:100630007160F0BD30B500228B071C0F0F2303FA49
:1006400004F2164B08338C1053F824309343134CA8
:1006500008348D1044F8253023468C1053F824308C
:100660008C07240F00FA04F423430C4C08348D103B
:1006700044F8253030BD0A49DC310860704700007D
:1006800000080140000C014000100140001401402E
:1006900000180140001C0140002001400000014002
:1006A00000002042DF48006840F00100DD4908609A
:1006B00008464068DC490840DA4948600846006856
:1006C000DA490840D74908600846006820F48020CD
:1006D00008600846406820F4FE0048604FF41F00A0
:1006E00088607047CF49096821F48031CD4A116094
:1006F0001146096821F480211160B0F5803F03D0D4
:10070000B0F5802F0ED106E0C649096841F480316A
:10071000C44A116007E0C349096841F4A021C14AF5
:10072000116000E000BF00BF704710B50146002215
:10073000002300204A11012A02D1BA4C236806E0A6
:10074000022A02D1B74C236A01E0B64C636A01F079
:100750001F02012494401C400CB1012000E0002045
:1007600010BD38B5002000900024002500BF3120C6
:10077000FFF7DBFF05460098401C00900098B0F59D
:10078000A06F01D0002DF2D03120FFF7CEFF08B1CD
:10079000012400E00024204638BD01460020A14A83
:1007A000106820F0F80040EAC10010607047A049CE
:1007B00008607047024600209A4B586820F47C106D
:1007C00042EA01031843974B5860704798490866FE
:1007D000704701460020934A506820F00300084308
:1007E000506070478F48406800F00C007047014629
:1007F00000208C4A506820F0F00008435060704799
:1008000001460020874A506820F4E06008435060A9
:10081000704701460020834A506820F4605040EA47
:10082000C1005060704729B17E4A527A02437D4B25
:100830005A7204E07B4A527A82437A4B5A7270476A
:100840007B49D8310860704701460020754A5068DE
:1008500020F440400843506070470021714A203224
:100860001170704A82F82010012802D004280AD1A1
:1008700004E001216B4A2032117005E00521694A2C
:100880002032117000E000BF00BF70476949086066
:1008900070476449096A0143624A116270476549B9
:1008A00044390860704730B500210022002400233D
:1008B0005C4D6D6805F00C0121B1042905D00829B3
:1008C00023D105E05C4D056022E05B4D05601FE033
:1008D000544D6D6805F47012524D6D6805F4803406
:1008E000022505EB92421CB9544D554305600BE0BF
:1008F0004C4D6D6805F400351DB1504D55430560F4
:1009000002E04D4D5543056002E04B4D056000BFD0
:1009100000BF444D6D6805F0F0010909484D6B5C5E
:100920000568DD4045603F4D6D6805F4E061090AEA
:10093000434D6B5C4568DD4085603A4D6D6805F45C
:100940006051C90A3E4D6B5C4568DD40C560354D60
:100950006D6805F44041890B3A4D6B5CC568B5FB89
:10096000F3F5056130BD29B12E4A526902432D4B82
:100970005A6104E02B4A526982432A4B5A617047FC
:1009800029B1284A92690243264B9A6104E0254A1C
:1009900092698243234B9A61704729B1214AD269F7
:1009A0000243204BDA6104E01E4AD26982431D4BA8
:1009B000DA61704729B11B4AD2680243194BDA60E9
:1009C00004E0184AD2688243164BDA60704729B1B6
:1009D000144A12690243134B1A6104E0114A126966
:1009E0008243104B1A6170471249403908607047C2
:1009F0000F49C86470470B49C87170470948406A7D
:100A000040F0807007494862704701460020054A5F
:100A100092680A400AB1012000E0002070470149B5
:100A200088727047001002400000FFF8FFFFF6FEDA
:100A3000000042428004424200127A0000093D0058
:100A4000140000202400002010B50446FB48844216
:100A500009D101218803FFF7ADFF00214FF4804049
:100A6000FFF7A8FF32E0F648844209D1012148048B
:100A7000FFF7ADFF00214FF40030FFF7A8FF25E09E
:100A8000F048844209D101218804FFF7A0FF00212A
:100A90004FF48020FFF79BFF18E0EB48844209D118
:100AA0000121C804FFF793FF00214FF40020FFF756
:100AB0008EFF0BE0E548844208D101210805FFF7CD
:100AC00086FF00214FF48010FFF781FF10BD2DE954
:100AD000F04786B005460E460024A24600BFA14658
:100AE0000027B08900B100BF2F462C8A4CF6FF705A
:100AF0000440F08804432C82AC894EF6F310044085
:100B0000B08831890843718908430443AC81AC8AB9
:100B10004FF6FF400440B0890443AC8201A8FFF7C0
:100B2000C2FEC648874202D1DDF810A001E0DDF820
:100B30000CA0A88900F4004040B10AEBCA0000EB09
:100B40000A1031684900B0FBF1F807E00AEBCA006F
:100B500000EB0A1031688900B0FBF1F86420B8FBA3
:100B6000F0F004012009642101FB1089A88900F438
:100B7000004040B1322000EBC900B0FBF1F000F0C2
:100B80000700044308E0322000EB09106421B0FBA9
:100B9000F1F000F00F0004432C8106B0BDE8F087AF
:100BA0004FF41651016000218180C18001810C2128
:100BB000418100218181704710B502460020108AD2
:100BC0004FF2FF0318400B884C8823438C88234343
:100BD000CC8823431843108210BD0021018041803E
:100BE0008180C180704721B1828942F400528281A4
:100BF00004E082894DF6FF731A4082817047F0B598
:100C00000346002400260025002040F66A17B9425A
:100C100000D100BF1846C1F3421401F01F0601279E
:100C200007FA06F5012C01D10C3004E0022C01D1A9
:100C3000103000E014301AB107682F43076002E05B
:100C40000768AF430760F0BD1AB1838A0B43838204
:100C500002E0838A8B4383827047028A4FF6F073E7
:100C60001A400282028A0A430282704782894FF246
:100C7000FF731A40828182890A438281704721B1C1
:100C8000828942F00202828104E082894FF6FD737C
:100C90001A4082817047028A4FF6DF731A4002823F
:100CA000028A0A430282704721B1028A42F48042DA
:100CB000028204E0028A4BF6FF731A4002827047F8
:100CC000C1F308028280704701468888C0F308009B
:100CD0007047818941F0010181817047028BD2B256
:100CE0000283028B42EA012202837047028B02F4E4
:100CF0007F420283028B0A430283704721B1828ABA
:100D000042F02002828204E0828A4FF6DF731A40AA
:100D10008282704721B1828A42F01002828204E00E
:100D2000828A4FF6EF731A408282704721B1828A1D
:100D300042F00802828204E0828A4FF6F7731A407A
:100D40008282704721B1828942F40042828103E0AD
:100D50008289C2F30E028281704721B1828A42F4F5
:100D60000062828204E0828A4FF2FF731A4082821C
:100D70007047828A4FF6FB731A408282828A0A4346
:100D80008282704721B1828A42F00202828204E0AC
:100D9000828A4FF6FD731A40828270470246002015
:100DA000B1F5007F00D100BF13880B400BB10120CB
:100DB00000E00020704701F40072B2F5007F00D11E
:100DC00000BFCA430280704770B50246002400236A
:100DD0000025002040F66A16B14200D100BFC1F3E1
:100DE000421501F01F03012606FA03F3012D02D17B
:100DF0009689334006E0022D02D1168A334001E085
:100E0000968A33400C12012606FA04F41688344000
:100E100013B10CB1012000E0002070BD10B500221C
:100E2000002340F66A14A14200D100BF0A12012437
:100E30009440A3B2DC43048010BD000000380140A0
:100E40000044004000480040004C0040005000407A
:100E500000242AE04FF0FF317B48006800F0ECFEF0
:100E600004461CB979A002F030FB02E07CA002F03D
:100E70002CFB80480078401C7E490870642003F0F9
:100E8000E6FD7C484078401C7A4948706E4800680E
:100E900000F0C6FF04461CB977A002F016FB02E082
:100EA00079A002F012FB03F0D5FCD3E71AE04FF073
:100EB000FF316548006800F0BFFE6E4800786D495C
:100EC0004978884203D174A002F0FFFA02E077A0CB
:100ED00002F0FBFA5C48006800F0A2FF4FF47A7061
:100EE00003F0B5FDE3E71EE0002000F069FA0446D8
:100EF000012C02D0022C12D108E0012171480068B7
:100F000001F08FF870A002F0E0FA08E002216D48CD
:100F1000006801F086F86FA002F0D7FA00BF00BFAA
:100F2000142003F094FDDFE71CB524E001A84FF086
:100F3000FF330522032100906248006801F0D1F8D8
:100F40000198012802D00198022808D164A002F07B
:100F5000BCFA6D48006880F020006B490860019879
:100F6000032808D169A002F0B0FA6748006880F051
:100F7000200065490860D9E71CB502F0BCFA6FA0F3
:100F800002F0A3FA74A002F0A0FA20205E49083112
:100F9000086079490860002178A000F0F6FD2A4930
:100FA00008600846006818B177A002F08EFA02E0E7
:100FB0007BA002F08AFA01217FA000F0DDFF414909
:100FC00008600846006818B17EA002F07EFA02E0D0
:100FD00080A002F07AFA142001214B020022CDE910
:100FE0000010804980A003F0E8FB834908600846B0
:100FF000006820B10846006803F089FB02E04FF06A
:10100000FF301CBD142001214B020022CDE900104D
:101010007A497BA003F0D1FB7D490860084600684F
:1010200020B10846006803F072FB02E04FF0FF3089
:10103000E7E70020E5E701B502E00098401E0090D8
:1010400000980028F9D108BD3C000020D1A7C9FABA
:1010500041D2D1C8A1D3C3B5E7D7EAA3A10A000002
:10106000B5E7D7EAD5FDD4DACAB9D3C3D6D0A3A1A0
:101070000A00000028000020B5E7D7EAD2D1B9E97C
:10108000BBB9A3A10A000000B5E7D7EAB9E9BBB92B
:10109000CAA7B0DCA3A10A00BBA5B3E2D0C5BAC5FC
:1010A000C1BFD2D1CDACB2BDA3A10A00BBA5B3E2F2
:1010B000D0C5BAC5C1BFCDACB2BDCAA7B0DCA3A173
:1010C0000A000000400000204B455930B0B4CFC2A8
:1010D000A3A10A004B455931B0B4CFC2A3A10A0065
:1010E000BBF2C4A3CABDA3A14B455930BBF24B45CB
:1010F0005931B0B4CFC2A3ACBBF1C8A1CAC2BCFEC7
:10110000B3C9B9A6210A00000C0C0140D3EBC4A35B
:10111000CABDA3A14B455930BACD4B455931B6BCD8
:10112000D2D1BEADB0B4CFC2B9FDA3ACBBF1C8A1A2
:10113000CAC2BCFEB3C9B9A6210A0000D5E2CAC71B
:10114000525454BBA5B3E2C1BFBACDCAC2BCFECA99
:10115000B5D1E9A3A10A0000CDACB2BDB3C9B9A60F
:10116000D4F2CAE4B3F6A1B0CDACB2BDB3C9B9A64E
:10117000A3A1A1B10A000000141801406472696CB7
:101180006C5F6D7578000000BBA5B3E2D0C5BAC531
:10119000C1BFB4B4BDA8B3C9B9A6A3A10A000000D9
:1011A000BBA5B3E2D0C5BAC5C1BFB4B4BDA8CAA778
:1011B000B0DCA3A10A0000006170706C655F657609
:1011C00074000000CAC2BCFEB4B4BDA8B3C9B9A6BD
:1011D000A3A10A00CAC2BCFEB4B4BDA8CAA7B0DCB1
:1011E000A3A10A00E70E000873656E645F6576745C
:1011F0005F7468726561640034000020290F000884
:10120000726563765F6576745F74687265616400A9
:1012100038000020704700BFFEE700BFFEE700BFB8
:10122000FEE7704770470000354870473548704703
:1012300070B5354800684FF47A72B0FBF2F1B1F145
:10124000807F00D31DE021F07F40401E4FF0E02260
:10125000506150170F22002807DA13071D0E2B4B81
:1012600000F00F04241F1D5503E013071C0E284B2C
:101270001C5400BF00204FF0E02290610720106155
:1012800000BF00F049F800F079F800F0D1F800F064
:10129000C5F9FFF7CBFF0446FFF7C6FF0546214619
:1012A00002F09AFA70BD10B5044603F0C7F819E0D1
:1012B00020780A280AD10D211648FFF701FD00BF4A
:1012C00080211448FFF76AFD0028F9D014F8011BAB
:1012D0001048FFF7F5FC00BF80210E48FFF75EFDC8
:1012E0000028F9D020780028E2D103F0B5F810BD2D
:1012F00010B501F0F9FC00F062F901F004FD10BD39
:1013000014010020148100200000002018ED00E0EE
:1013100000E400E00038014008B501214820FFF753
:101320002FFB2020ADF8000010208DF803000320D3
:101330008DF8020069460F48FFF766F82020ADF8E7
:10134000000069460C48FFF75FF80220ADF8000086
:1013500069460848FFF758F820210648FFF701F9C9
:1013600020210548FFF7FDF802210248FFF7F9F8B0
:1013700008BD0000000C01400018014008B5012123
:101380004020FFF7FDFA01214020FFF7F9FA012183
:101390000420FFF7F5FA1020ADF8000048208DF882
:1013A000030069462048FFF72FF80820ADF8000039
:1013B00048208DF8030069461B48FFF725F808BD53
:1013C00070B50446002514B101201849087017486B
:1013D0000078C8B110211448FFF7A9F820B10821FE
:1013E0001148FFF7A4F878B90020104908701021BF
:1013F0000D48FFF79CF800B9012508210A48FFF7BE
:1014000096F878B902250DE010210748FFF78FF80C
:10141000012807D108210448FFF789F8012801D1E4
:1014200002490870284670BD0018014044000020A1
:1014300000B585B001210420FFF7A2FA012188033D
:10144000FFF79EFA4FF40070ADF8100018208DF8E9
:10145000130003208DF8120004A94F48FEF7D4FFB3
:101460004FF48060ADF8100004208DF8130004A93B
:101470004948FEF7C9FF4FF4E13000900020ADF875
:101480000400ADF80600ADF80800ADF80C000C2023
:10149000ADF80A0069464148FFF719FB01213F48B2
:1014A000FFF7A1FB05B000BD70B504460D46294607
:1014B0002046FFF705FC00BF80212046FFF76EFCA9
:1014C0000028F9D070BD2DE9F04107460D461646BB
:1014D000002405E0295D3846FFF7E6FF601CC4B232
:1014E000B442F7DB00BF40213846FFF757FC002825
:1014F000F9D0BDE8F08170B506460C46002500BF66
:10150000615D3046FFF7D0FF6D1C605D0028F7D1AC
:1015100000BF40213046FFF741FC0028F9D070BDE4
:101520002DE9F04105460C46260AE7B23146284629
:10153000FFF7C6FB00BF80212846FFF72FFC0028DD
:10154000F9D039462846FFF7BBFB00BF802128466B
:10155000FFF724FC0028F9D0BDE8F08170B50446FF
:101560000D46E1B20D48FFF7ABFB00BF80210B48F1
:10157000FFF714FC0028F9D0204670BD10B50446D2
:1015800000BF20210548FFF709FC0028F9D00348D7
:10159000FFF79AFB10BD0000000801400038014031
:1015A000704719480068704770B5044603F0E2FCC4
:1015B000054615480460284603F0E0FC70BD10B5F0
:1015C00011480068401C1049086003F074F8044694
:1015D000A06C401EA064A06C18B9606CA06403F0FD
:1015E00039F903F03DFC10BD0146002902DA4FF045
:1015F000FF3008E04FF47A724A4302F2E7324FF4C8
:101600007A7392FBF3F07047480000200020704787
:1016100000207047002070470020704710B5264C0E
:1016200002E020688047241D24488442F9D310BD7D
:1016300010B5224C02E020688047241D20488442D7
:10164000F9D310BD10B50446FFF7F2FFFFF794FC85
:1016500010BD1CB514200A214FF400730022CDE9FF
:101660000010AFF21F0117A003F0A7F8044624B939
:10167000D122164916A001F0D8FF204603F047F802
:101680001CBD10B503F076FCFFF7D2FD03F02EFC75
:1016900002F007FEFFF7DDFF03F034FC00F078F8FE
:1016A00002F01BFE002010BD10B503F063FCFFF735
:1016B000E8FF002010BD00006459000868590008C8
:1016C0006C5900086D61696E00000000225300082B
:1016D00074696420213D2052545F4E554C4C0000EB
:1016E00070B54BE000BF03F045FC064601F01AFB65
:1016F00040B1364936A001F0E8FE662233493EA0EB
:1017000001F093FF304603F039FC00BF03F032FCD8
:10171000054600F052F818B338480068A0F11404E8
:1017200004F11400D0E900215160D0E900121160E9
:101730004060006000BF02F081FEA06F10B1204643
:10174000A16F8847204602F0D9FC012805D102F09C
:1017500083FE284603F012FC70BD02F07DFE03E01C
:10176000284603F00BFCF7E7284603F007FCA06AC5
:1017700002F092F9204602F0A0FC00BF00F01DF834
:101780000028AFD100BFE7E701E0FFF7A9FFFCE7C2
:101790001FB520201F21C200194BCDE90032CDE931
:1017A00002100023174A18A1194802F05FFF1848D9
:1017B00002F0ADFF1FBD1648704710490868884207
:1017C00001D0012070470020FCE7000036530008DC
:1017D00046756E6374696F6E5B25735D2073686117
:1017E0006C6C206E6F74206E652075736564206963
:1017F0006E204953520A000030000000F000002023
:1018000094810020891700087469646C65000000E9
:10181000148100204268116042684A60416008609B
:1018200070472DE9F04105460C469046204603F0EE
:101830003FF8B8F1000F03D0B8F1010F23D105E054
:1018400004F114012846FFF7E5FF1CE02E680FE0C5
:10185000A6F1140794F8350097F83510884206DA97
:1018600004F1140107F11400FFF7D4FF02E0366819
:10187000AE42EDD100BFAE4204D104F114012846BE
:10188000FFF7C8FF00BF00BF0020BDE8F08170B5C2
:1018900005460EE003F06EFB06462868A0F114042E
:1018A0004FF0FF302063204602F008FF304603F07F
:1018B00065FB284601F0FAF90028EBD0002070BD46
:1018C0002DE9F04104460D4616461F4624B9D8229C
:1018D000FC49FDA001F0A9FE2A460121204602F0A4
:1018E00072FB204601F0EAF9A68367720020BDE88A
:1018F000F08110B5044624B9F522F749F2A001F0B1
:1019000094FE04F11400FFF7C2FF204602F080FBB2
:10191000002010BD2DE9F04105460E46174600BFD8
:1019200003F028FB804601F0FDF948B1EB49ECA03B
:1019300001F0CBFD40F21112E849F3A001F075FE71
:10194000404603F01BFB00BF2946012002F074FB58
:10195000044614B92046BDE8F081204601F0AEF9F6
:10196000A68367722046F6E770B5044600BF03F011
:1019700001FB054601F0D6F948B1E449D8A001F0D1
:10198000A4FD4FF49872E149DFA001F04EFE284615
:1019900003F0F4FA00BF2CB94FF49972DB49CAA0E6
:1019A00001F043FE04F11400FFF771FF204602F03E
:1019B00084FB002070BD2DE9F34105462DB940F2AE
:1019C0004D12D349C0A001F030FE03F0D3FA064611
:1019D00000BF00BFA88B002806DDA88B401EA8838F
:1019E000304603F0CBFA57E0019830B9304603F0A7
:1019F000C5FA6FF00100BDE8FC8100BF03F0BAFA40
:101A0000074602F058FE48B9C149C2A001F05DFD89
:101A100040F26D12BE49BCA001F007FE00BF03F00A
:101A2000A9FA804601F07EF948B1B949ACA001F0AD
:101A30004CFD40F26D12B649B3A001F0F6FD4046F0
:101A400003F09CFA00BF384603F098FA00BF02F09A
:101A500032FE04460020206300BF00BF6A7A2146A0
:101A600005F11400FFF7DDFE019800280BDD00BF33
:101A700000BF01AA002104F14C0003F0CBF904F1EE
:101A80004C0003F01FF9304603F078FA02F037FCFF
:101A9000206B08B1206BAEE70020ACE710B5044620
:101AA00000212046FFF787FF10BD70B504460026D1
:101AB00003F060FA054600BF00BF04F1140001F016
:101AC000F5F828B904F1140001F000F9012602E04C
:101AD000A08B401CA083284603F050FA012E01D1B0
:101AE00002F00DFC002070BD2DE9F04104460E46C9
:101AF00015462CB94FF4F272944973A001F095FD8C
:101B0000012E10D12F4603F035FA804604F114005F
:101B1000FFF7BDFEA783404603F030FA02F0EFFB6B
:101B20000020BDE8F0814FF0FF30FAE770B50446C1
:101B30000D4616462CB940F20F22854985A001F0CA
:101B400074FD2A460221204602F03DFA204601F0AB
:101B5000B5F80120A08300202062FF20A07700209C
:101B6000E077667270BD10B504462CB940F22E22A3
:101B70007D4978A001F059FD04F11400FFF787FEBC
:101B8000204602F045FA002010BD2DE9F04105463F
:101B90000E4600BF03F0EEF9074601F0C3F848B166
:101BA00072494FA001F091FC40F249226F4956A0C2
:101BB00001F03BFD384603F0E1F900BF2946022061
:101BC00002F03AFA044614B92046BDE8F0812046F6
:101BD00001F074F80120A08300202062FF20A0778C
:101BE0000020E07766722046EFE770B5044600BF3C
:101BF00003F0C0F9054601F095F848B15C4938A0FA
:101C000001F063FC40F26A2259493FA001F00DFD4A
:101C1000284603F0B3F900BF2CB94FF41B725449A6
:101C20004CA001F002FD04F11400FFF730FE204645
:101C300002F043FA002070BD2DE9F341044600BFD5
:101C400003F098F9074602F036FD48B9494931A03A
:101C500001F03BFC4FF4227246492BA001F0E5FC59
:101C600000BF03F087F9804601F05CF848B14149B4
:101C70001BA001F02AFC4FF422723E4922A001F081
:101C8000D4FC404603F07AF900BF384603F076F9F9
:101C900000BF2CB940F28A2236492EA001F0C5FCC3
:101CA00002F009FD054603F065F9064600BF00BFD6
:101CB00000202863206AA8425ED1E07F401CE077C4
:101CC000A9E000004C53000873656D20213D2052AF
:101CD000545F4E554C4C00005853000866530008A2
:101CE00046756E6374696F6E5B25735D2073686102
:101CF0006C6C206E6F74206E65207573656420694E
:101D00006E204953520A000030000000745300084E
:101D10008253000846756E6374696F6E5B25735D50
:101D2000207368616C6C206E6F742062652075731F
:101D30006564206265666F726520736368656475AB
:101D40006C65722073746172740A00008E5300080F
:101D50009D5300086D7574657820213D2052545FB5
:101D60004E554C4C00000000AB530008BB5300081C
:101D7000CB530008DB53000800BFA08B00280ADD0E
:101D8000A08B401EA083256295F83500A077E07FE8
:101D9000401CE0773FE0019848B96FF001002863EC
:101DA000304603F0EBF86FF00100BDE8FC8100BFA6
:101DB00000BF95F83500216A91F83510884205DAA0
:101DC00005F135020221206A02F047FE627A2946B7
:101DD00004F11400FFF725FD019800280BDD00BF7A
:101DE00000BF01AA002105F14C0003F013F805F132
:101DF0004C0002F067FF304603F0C0F802F07FFAB3
:101E0000286B28B1286B093000B9B6E7286BCCE7FE
:101E100003F0B0F80646304603F0B0F80020C4E7FF
:101E20002DE9F0470446002600BF03F0A3F88046E2
:101E300002F041FC58B9FA49AFF2281001F045FB15
:101E400040F21132F649AFF2401001F0EEFB00BF54
:101E500003F090F8814600F065FF58B1F049AFF209
:101E6000801001F032FB40F21132ED49AFF2681000
:101E700001F0DBFB484603F081F800BF404603F069
:101E80007DF800BF02F017FC054603F073F8074623
:101E900000BF00BF206AA84209D04FF0FF3028637E
:101EA000384603F06BF84FF0FF30BDE8F087E07F75
:101EB000401EE077E07F08BBA07F216A91F83510D3
:101EC000884205D004F11E020221206A02F0C5FDFD
:101ED00004F1140000F0EAFE88B96069A0F114056D
:101EE00000BF00BF256295F83500A077E07F401C59
:101EF000E07704F1140000F0E9FE012606E0A08B73
:101F0000401CA08300202062FF20A077384603F009
:101F100035F8012E01D102F0F2F90020C5E70346A1
:101F20004FF0FF30704770B504460D4616462CB989
:101F300040F27F32BB49BCA001F077FB2A46032167
:101F4000204602F040F86672204600F0B7FE0020FE
:101F5000E06170BD10B504462CB940F29B32B74920
:101F6000B1A001F062FB04F11400FFF790FC2046E1
:101F700002F04EF8002010BD2DE9F04105460E4656
:101F800000BF02F0F7FF074600F0CCFE58B1AC49A5
:101F9000AFF2B42001F099FA4FF46D72A849AFF294
:101FA000982001F042FB384602F0E8FF00BF2946C6
:101FB000032002F041F8044614B92046BDE8F08140
:101FC0006672204600F07AFE0020E0612046F5E7C8
:101FD00070B504462CB940F2D2329A4992A001F071
:101FE00024FB00BF02F0C6FF054600F09BFE58B17F
:101FF0009449AFF2143001F068FA4FF475729149C8
:10200000AFF2FC2001F011FB284602F0B7FF00BF41
:1020100004F11400FFF73BFC204602F04EF80020CC
:1020200070BD2DE9F04704460F462CB940F2F3325B
:1020300085497DA001F0F9FA1FB94FF0FF30BDE8E6
:10204000F0874FF0000802F095FF8246E0693843C0
:10205000E06104F1140000F029FEC0BB666932E0C3
:10206000A6F114054FF0FF3995F8400000F001008B
:1020700040B1E86BE1690840E96B884211D14FF04B
:1020800000090EE095F8400000F0020048B1E86B4E
:10209000E169084028B1E86BE1690840E8634FF066
:1020A00000093668B9F1000F0DD195F8400000F035
:1020B000040018B1E069E96B8843E061284602F04A
:1020C000FDFA4FF0010804F114008642C8D15046D1
:1020D00002F054FFB8F1010F01D102F010F9002015
:1020E000ADE72DE9FF4F81B005460E461746DDF8F6
:1020F000388000BF02F03EFF009002F0DCFA58B9D1
:102100005249AFF2F03001F0E0F940F253424F494A
:10211000AFF20C4001F089FA00BF02F02BFF8346BA
:1021200000F000FE58B14949AFF24C4001F0CDF942
:1021300040F253424549AFF2304001F076FA58463A
:1021400002F01CFF00BF009802F018FF00BF2DB97D
:1021500040F256423D4934A001F067FA26B94FF0EB
:10216000FF3005B0BDE8F08F4FF0FF3902F0A3FA61
:1021700004460020206302F0FDFE824607F00100C5
:1021800030B1E8693040B04212D14FF000090FE0A1
:1021900007F0020028B1E869304048B14FF000096B
:1021A00006E040F274422949AFF2A44001F03DFA42
:1021B000B9F1000F0DD1B8F1000F03D0E86930403C
:1021C000C8F8000007F0040040B3E869B043E861D4
:1021D00047E0049818B96FF00100206341E0E6631E
:1021E00084F840706A7A214605F11400FFF719FB64
:1021F0000498002809DD04AA002104F14C0002F033
:1022000009FE04F14C0002F05DFD504602F0B6FEFE
:1022100002F075F8206BD8B1206BA2E721E0000036
:10222000E9530008FA5300086576656E7420213D75
:102230002052545F4E554C4C0000000008540008DA
:102240001854000828540008385400084654000860
:1022500002F090FE8246B8F1000F02D0E06BC8F8A1
:102260000000504602F08AFE206B7AE72DE9F0412B
:1022700004460D46174634B940F2C442FC49AFF259
:10228000580001F0D2F9012D10D102F073FE06467C
:1022900004F11400FFF7FBFA0020E061304602F081
:1022A0006DFE02F02CF80020BDE8F0814FF0FF3009
:1022B000FAE72DE9F04104460D4616461F46DDF8C3
:1022C00018802CB940F2F142EA49EBA001F0ADF9D7
:1022D0002A460421204601F076FE84F80980204633
:1022E00000F0ECFCE661278400206084A084E08498
:1022F00004F1280000F0D7FC0020BDE8F08110B503
:1023000004462CB940F21452DF49DBA001F08DF9EC
:1023100004F11400FFF7BBFA04F12800FFF7B7FA45
:10232000204601F075FE002010BD2DE9F041054664
:102330000E46174600BF02F01DFE804600F0F2FC7C
:1023400058B1D249AFF2686001F0BFF84FF4A6620D
:10235000CE49AFF24C6001F068F9404602F00EFE43
:1023600000BF2946042001F067FE044614B9204648
:10237000BDE8F0816772204600F0A0FC2684218C25
:10238000880001F08FFAE061E06920B9204601F091
:1023900094FE0020ECE700206084A084E08404F137
:1023A000280000F080FC2046E2E770B5044600BF3C
:1023B00002F0E0FD054600F0B5FC58B1B449AFF2BB
:1023C000E06001F082F840F25B52B149AFF2C860C0
:1023D00001F02BF9284602F0D1FD00BF2CB940F2E4
:1023E0005E52AB49A4A001F020F904F11400FFF7FC
:1023F0004EFA04F12800FFF74AFAE06901F04CFBBD
:10240000204601F05AFE002070BD2DE9F74F04462A
:102410000F462CB940F28B529E4997A001F005F966
:10242000002602F048F9054602F0A4FD8046608CC3
:10243000218C884207D1029828B9404602F09EFDBF
:10244000F01EBDE8FE8F69E000202863029828B9DD
:10245000404602F093FD6FF00200F2E700BF02F089
:1024600089FD814602F027F958B98A49AFF25C70BC
:1024700001F02BF840F2AE528649AFF2747001F0D1
:10248000D4F800BF02F076FD824600F04BFC58B154
:102490008049AFF2B47001F018F840F2AE527D49B5
:1024A000AFF29C7001F0C1F8504602F067FD00BF2A
:1024B000484602F063FD00BF627A294604F1280015
:1024C000FFF7AFF9029800280EDDFFF76AF806461D
:1024D00000BF00BF02AA002105F14C0002F09AFCE7
:1024E00005F14C0002F0EEFB404602F047FD01F022
:1024F00006FF286B08B1286BA3E702F03BFD80467E
:10250000029800280ADDFFF74CF8861B0298801B12
:1025100002900298002801DA00200290608C218C41
:10252000884291D0A18CE06940F82170A08C401CB9
:10253000A084A08C218C884201DB0020A084608CC8
:10254000401C608404F1140000F0B0FB50B904F1A9
:10255000140000F0BBFB404602F010FD01F0CFFE7E
:1025600000206EE7404602F009FD002069E770B5E3
:1025700004460D46002229462046FFF746FF70BD5F
:102580002DE9F74F04460F462CB940F21C62424930
:1025900039A001F04AF8002602F08DF8054602F055
:1025A000E9FC8046608C38B9029828B9404602F0B0
:1025B000E5FCB01EBDE8FE8F81E000202863029894
:1025C00030B9404602F0DAFC6FF001002863F1E711
:1025D00000BF02F0CFFC814602F06DF858B92E49D9
:1025E000AFF6D00000F071FF40F241622A49AFF629
:1025F000E80001F01AF800BF02F0BCFC824600F0CF
:1026000091FB58B12449AFF6281000F05EFF40F26C
:1026100041622149AFF6101001F007F8504602F070
:10262000ADFC00BF484602F0A9FC00BF627A294613
:1026300004F11400FFF7F5F8029800280EDDFEF70C
:10264000B0FF064600BF00BF02AA002105F14C0002
:1026500002F0E0FB05F14C0002F034FB404602F0D2
:102660008DFC01F04CFE286BC0B1286BA2E7000086
:1026700054540008655400086D6220213D205254D6
:102680005F4E554C4C000000705400087D5400080B
:102690008A54000897540008A754000802F06AFC06
:1026A0008046029800280ADDFEF77BFF861B029811
:1026B000801B02900298002801DA00200290608CB2
:1026C00000283FF47AAFE18CE06950F821003860CF
:1026D000E08C401CE084E08C218C884201DB0020EF
:1026E000E084608C401E608404F1280000F0DEFA73
:1026F00050B904F1280000F0E9FA404602F03EFC2F
:1027000001F0FDFD002055E7404602F037FC0020B7
:1027100050E72DE9F04104460D46174634B940F222
:102720009F62FE49AFF2B00000F07FFF012D16D18D
:1027300002F020FC064604F11400FFF7A8F804F1AB
:102740002800FFF7A4F800206084A084E0843046CD
:1027500002F014FC01F0D3FD0020BDE8F0814FF041
:10276000FF30FAE72DE9F05F04460F4690469946A0
:10277000DDE90AAB2CB940F2DB62E949E9A000F0DF
:1027800054FF3A460521204601F01DFC84F809B0AB
:10279000204600F093FAC4F81C8009F1030020F0F1
:1027A00003002084208C001DBAFBF0F06084002020
:1027B000A062E0622063002508E0208C001DE16932
:1027C00005FB0016206B306026636D1C608CA842F0
:1027D000F3DC0020A084BDE8F09F10B504462CB9BE
:1027E00040F20C72D349CFA000F01FFF04F1140097
:1027F000FFF74DF8204601F00BFC002010BD70B52E
:10280000044600BF02F0B6FB054600F08BFA58B153
:10281000C949AFF6343000F058FE40F26672C6493E
:10282000AFF61C3000F001FF284602F0A7FB00BF06
:102830002CB940F26972C049BAA000F0F6FE04F16A
:102840001400FFF724F8E06901F026F9204601F0B2
:1028500034FC002070BD2DE9F05F074688469146A4
:102860009A4600BF02F086FB834600F05BFA58B13F
:10287000B249AFF6943000F028FE40F22C72AF4916
:10288000AFF67C3000F0D1FE584602F077FB00BF77
:102890003946052001F0D0FB044614B92046BDE8B6
:1028A000F09F84F809A0204600F008FA08F1030020
:1028B00020F003002084A4F82290218C091D628C52
:1028C00001FB02F000F0EEFFE061E06920B9204674
:1028D000FFF795FF0020E2E70020A062E06220639E
:1028E000002508E0208C001DE16905FB0016206B27
:1028F000306026636D1C608CA842F3DC0020A0844D
:102900002046CCE72DE9F04104460F4616462CB987
:1029100040F28F728A4983A000F087FE2FB94FF4EE
:10292000F262874987A000F080FE2EB940F29172D2
:10293000834989A000F079FE208CB04203D24FF089
:10294000FF30BDE8F08102F015FB8046256B2DB904
:10295000404602F013FB6FF00200F2E728682063A4
:10296000404602F00BFB0020286032463946281D05
:1029700000F033FA02F0FEFA8046E06A08B1E06A3D
:102980000560E562A06A00B9A562A08C401CA08425
:1029900004F1140000F08AF950B904F1140000F0B9
:1029A00095F9404602F0EAFA01F0A9FC0020C8E7D8
:1029B000404602F0E3FA0020C3E72DE9F041044667
:1029C0000F4616462CB940F2E772664955A000F052
:1029D0002CFE2FB94FF4FD6262495AA000F025FE8B
:1029E0002EB940F2E9725F495BA000F01EFE208C18
:1029F000B04203D24FF0FF30BDE8F08102F0BAFAE6
:102A00008046256B2DB9404602F0B8FA6FF00200FF
:102A1000F2E728682063404602F0B0FA32463946B1
:102A2000281D00F0DAF902F0A5FA8046A06A2860B5
:102A3000A562E06A00B9E562A08C401CA08404F1A4
:102A4000140000F033F950B904F1140000F03EF91D
:102A5000404602F093FA01F052FC0020CCE74046D9
:102A600002F08CFA0020C7E72DE9FF4F81B0044641
:102A70000F4690462CB940F63F023B4929A000F092
:102A8000D4FD2FB94FF4046237492EA000F0CDFDDC
:102A9000B8F1000F05D140F6410233492EA000F0F5
:102AA000C4FD4FF0000901F006FE054602F062FA8F
:102AB0008246A08C48B9049838B9504602F05EFAB4
:102AC0006FF0010005B0BDE8F08F93E000BF02F0A9
:102AD00051FA009001F0EFFD50B92349AFF6CC5008
:102AE00000F0F3FC40F657021F491DA000F09DFDC9
:102AF00000BF02F03FFA834600F014F950B11A49C2
:102B0000AFF6246000F0E1FC40F65702164914A02D
:102B100000F08BFD584602F031FA27E0B25400086D
:102B2000C05400086D7120213D2052545F4E554C19
:102B30004C000000CB540008E5540008D8540008AD
:102B4000F254000862756666657220213D20525479
:102B50005F4E554C4C00000073697A6520213D2082
:102B600030000000FD5400080A55000800BF00981E
:102B700002F004FA00BF00202863049830B95046E0
:102B800002F0FCF96FF0010028639BE7627A2946A6
:102B900004F11400FEF745FE049800280EDDFEF750
:102BA00000FD814600BF00BF04AA002105F14C00D2
:102BB00002F030F905F14C0002F084F8504602F0C2
:102BC000DDF901F09CFB286B08B1286B7AE702F075
:102BD000D1F98246049800280CDDFEF7E2FCA0EB58
:102BE00009090498A0EB090004900498002801DA70
:102BF00000200490A08C00283FF468AFA66A3068DB
:102C0000A062E06AB04201D10020E062A08C401EC8
:102C1000A084504602F0B2F9208C404501D2208CAD
:102C200000E040460246311D384600F0D6F802F07A
:102C3000A1F98246206B30602663504602F09EF96F
:102C400000203FE72DE9F04104460E46904634B996
:102C500040F6C5022349AFF2341000F0E6FC012E25
:102C60001ED102F087F9074604F11400FEF70FFEAB
:102C70000AE0A56A2868A062E06AA84201D10020A3
:102C8000E062206B28602563A06A0028F1D1A0844F
:102C9000384602F073F901F032FB0020BDE8F08104
:102CA0004FF0FF30FAE74060006070470146086867
:102CB000884201D1012070470020FCE710B504468E
:102CC00004F11400FFF7EFFF002010BD70B50446BB
:102CD0002068A0F1140500BF00BF284601F0EEFCFB
:102CE000002070BD1555000810B500BF00BF02F0F0
:102CF00041F904460D480078401C0C4908702046F4
:102D000002F03CF910BD10B500BF00BF02F032F96F
:102D1000044606480078401E04490870204602F028
:102D20002DF910BD01480078704700004C000020CC
:102D300010B5FFF7F7FF10B1FA48006810BD01F0B9
:102D4000BAFC044614B9F7480068F7E7206BF5E7CA
:102D500070B50446FFF7E6FF10B1F248046070BD9D
:102D600001F0A9FC054615B9EE480460F7E72C63AD
:102D700000BFF4E710B5FFF7D5FF08B1E94810BD73
:102D800001F099FC044614B104F13000F7E7E5487E
:102D9000F5E7F0B50C460546E6B2042A15D300F077
:102DA000030797B9014646EA062343EA034304E0D2
:102DB00008C108C108C108C1103A102AF8D201E0C0
:102DC00008C1121F042AFBD20D4601E005F8016B71
:102DD000171EA2F10102F9D1F0BD2DE9F0410F4615
:102DE000164604463D463346102B28D305F0030C07
:102DF00004F003084CEA080CBCF1000F1FD1214677
:102E00002A4610E052F804CB41F804CB52F804CB28
:102E100041F804CB52F804CB41F804CB52F804CB70
:102E200041F804CB103B102BECD204E052F804CB59
:102E300041F804CB1B1F042BF8D20C46154603E0C7
:102E400015F801CB04F801CBB3F1000CA3F1010399
:102E5000F6D1BDE8F08170B50C46014623468B42A1
:102E600010D29D188D420DD91144134405E05D1E0A
:102E70002B462E784D1E29462E70151EA2F10102FA
:102E8000F5D108E003E013F8015B01F8015B151EC2
:102E9000A2F10102F7D170BDF0B5034600201C4637
:102EA0000D4608E026782F78F61B301E00D004E08F
:102EB000641C6D1C521E002AF4D800BFF0BD0146F0
:102EC0000A4600E0521C10780028FBD1501A7047C7
:102ED000F0B506460F463846FFF7F1FF05460DB937
:102EE0003046F0BD3046FFF7EAFF044609E0641EB5
:102EF0002A4639463046FFF7CFFF08B93046F0E79B
:102F0000761CAC42F3DA0020EBE730B503460C4602
:102F100000BF13F8011B14F8012B412902DB5A29C9
:102F200000DC2031412A02DB5A2A00DC20329142A7
:102F300001D10029EDD1881A30BD70B50346A2B188
:102F400018460C4600BF14F8016B00F8016B3EB93F
:102F500002E0002500F8015B551E2A1EF9D102E0AF
:102F6000551E2A1EEFD100BF00BF184670BD30B5F8
:102F7000034600200BE011F8015B1C78641B64B26F
:102F8000201E02D113F8015B05B902E0521E002A8F
:102F9000F1D100BF30BD024601E0521C491C10783F
:102FA00018B110780B789842F7D010780B78C01AC7
:102FB000704702460B46114600E0491C087810B1E4
:102FC000881A9842F9D3881A704770B5044620468B
:102FD000FFF775FF451C284600F064FC06460EB955
:102FE000002070BD2A4621463046FFF7F6FE3046E7
:102FF000F7E770472DE9F04F85B00D469C46DDE9B7
:103000000F740E9B04F04008B8F1000F02D0DFF8F7
:10301000188101E0DFF81481CDF8008004F0100879
:10302000B8F1000F01D024F0010404F00108B8F158
:10303000000F02D04FF0300801E04FF02008C246E8
:10304000002604F00208B8F1000F11D0002A02DABD
:103050002D2652420CE004F00408B8F1000F01D014
:103060002B2605E004F00808B8F1000F00D0202658
:10307000002142B94FF0300B8846491C0DF104097C
:1030800009F808B01DE01AE0E146B9F10A0F08D1CD
:103090004FF00A0BB2FBFBFE0BFB1E28B2FBFBF250
:1030A00002E002F00F08120900BFDDF8009019F8E5
:1030B00008B08846491C0DF1040909F808B0002A37
:1030C000E2D1B94200DD0F46DB1B04F01108B8F174
:1030D000000F10D116B1002B00DD5B1E06E0A842E8
:1030E00003D84FF0200880F80080401CB3F100089E
:1030F000A3F10103F3DC26B1A84201D806705B1EE0
:10310000401C04F01008B8F1000F0AD104E0A842F6
:1031100001D880F800A0401CB3F10008A3F101031E
:10312000F5DC0CE05000002034560008235600085F
:10313000A84203D84FF0300880F80080401CB84601
:103140007F1E8845F4DC08E0A84205D80DF104088C
:1031500018F8018080F80080401CB1F10008A1F14E
:103160000101F1DC06E0A84203D84FF0200880F806
:103170000080401CB3F10008A3F10103F3DC05B0AB
:10318000BDE8F08F0146002009E00B685A1C0A6078
:103190001A7800EB800302EB4302A2F130000A68C8
:1031A0001278303A0A2AF0D370472DE9FF4F89B0E0
:1031B000804644460A984044461E464504D24FF095
:1031C000FF36A6EB08000A906FE10B9800782528DF
:1031D00006D0B44202D80B9800782070641C61E1DC
:1031E000002526E00B98401C0B900B9800782D28AA
:1031F00002D145F010051CE00B9800782B2802D175
:1032000045F0040515E00B980078202802D145F020
:1032100008050EE00B980078232802D145F0200520
:1032200007E00B980078302802D145F0010500E056
:1032300000E0D7E700BF4FF0FF370B980078303839
:103240000A2804D20BA8FFF79DFF07460EE00B9853
:1032500000782A280AD10B98401C0B900C9880C843
:103260000C90002F02DA7F4245F010054FF0FF3935
:103270000B9800782E281CD10B98401C0B900B98B3
:10328000007830380A2804D20BA8FFF77BFF81466C
:103290000AE00B9800782A2806D10B98401C0B9066
:1032A0000C9850F8049B0C90B9F1000F01DA4FF024
:1032B0000009002004900B980078682803D00B9830
:1032C00000786C2805D10B98007804900B98401C6E
:1032D0000B900A2005900B9800786F2875D00CDCB5
:1032E000632813D004DC252870D058286FD18DE0D6
:1032F00064286DD06928F9D18FE070286AD07328CE
:1033000025D0752878D07828F0D182E005F010001B
:1033100040B904E0B44201D820202070641C781E1B
:10332000071EF7DC0C9810F8041B0C90C8B207902D
:10333000B44201D807982070641C04E0B44201D85C
:1033400020202070641C781E071EF7DCAAE00C9871
:10335000006806900C98001D0C90069808B9C1A052
:1033600006900698FFF7ABFD8346B9F1000F02DD2A
:10337000CB4500DDCB4605F0100048B904E0B4426F
:1033800001D820202070641C38467F1E5845F6DC8A
:10339000002008900BE0B44202D806980078207014
:1033A000641C0698401C06900898401C08900898D9
:1033B0005845F0DB04E0B44201D820202070641CA2
:1033C00038467F1E5845F6DC6CE01CE015E028E02E
:1033D00022E0FFE7781C10B9082745F00105CDE988
:1033E000007902950C9804C8102331460C902046B1
:1033F000FFF700FE044655E012E0B44201D8252054
:103400002070641C4EE0082005901DE045F040054A
:1034100000BF1020059017E000BF45F0020500BF77
:1034200012E0B44201D825202070641C0B9800786B
:1034300030B1B44202D80B9800782070641C02E0CE
:103440000B98401E0B902DE000BF04986C2807D10C
:103450000C9850F804AB0C9005F00200B8B116E0DF
:10346000049868280BD10C9830F8041B1FFA81FAD5
:103470000C9005F0020050B10FFA8AFA07E00C98A0
:1034800050F804AB0C9005F0020000B100BFCDE98C
:1034900000790295524631462046059BFFF7AAFD6A
:1034A000044600BF0B98401C0B900B980078002836
:1034B0007FF48BAEB44201D8207001E00020307060
:1034C000A4EB08000DB0BDE8F08F0FB438B505A827
:1034D00000907F216548009B049AFFF766FE044632
:1034E0007F2C00D97F246148FDF7DDFE002000908D
:1034F00038BC5DF814FB08B55DA0FFF7E6FF5FA0E0
:10350000FFF7E3FF66A0032300221946009067A09F
:10351000FFF7DBFF6DA0FFF7D8FF08BD0FB4F8B5CC
:1035200004460D4609A8009029462046009B089AAB
:10353000FFF73BFE0646002000903046F8BC5DF8E1
:1035400014FB37B505460C4622464FF0FF3128469E
:10355000029BFFF72AFE3EBD0FB438B5044606A80D
:1035600000902046009A0599FFF7EBFF05460020E2
:103570000090284638BC5DF814FB10B5044604B929
:1035800010BD2046FDF78FFE00BFF9E72DE9F041A1
:1035900007460C46E01C20F00304F81C20F0030052
:1035A00000EB0408404600F07DF9054665B1601E59
:1035B000284008B92E1904E0601E2844611E20EA44
:1035C000010646F8045C35462846BDE8F08170B532
:1035D000044654F8045C284600F05EFA70BD0146CB
:1035E00009B900207047C8B220B1C8B2424A105C85
:1035F000401CF7E701F47F4028B13F48C1F30722A0
:10360000805C0930EEE701F47F0028B13A48C1F34D
:103610000742805C1130E5E7374800EB1160007825
:103620001930DFE7354908607047F8B504460D46A4
:103630001646002000903148006858B933462A46A3
:1036400021462FA0FFF741FF00BF9DF80000002892
:10365000FBD005E0324629462046284B1B68984798
:10366000F8BD0000284E554C4C29000094820020E3
:103670000A205C207C202F0A000000002D205254DC
:10368000202D2020202020546872656164204F7016
:1036900065726174696E672053797374656D0A0091
:1036A000446563203233203230323300202F207CB7
:1036B000205C202020202025642E25642E256420D7
:1036C0006275696C642025730A0000002032303076
:1036D00036202D203230313820436F70797269677F
:1036E00068742062792072742D7468726561642038
:1036F0007465616D0A000000235500085400002025
:103700002825732920617373657274696F6E206652
:1037100061696C65642061742066756E6374696F9D
:103720006E3A25732C206C696E65206E756D62652E
:10373000723A2564200A000070B50446F348006818
:10374000844204D2A222F249F2A0FFF76EFFF948A8
:103750000068844204D3A322ED49F7A0FFF765FF78
:10376000608820B1A422EA49FEA0FFF75EFFE74986
:10377000606809684518AC4215D0688898B9ED486A
:10378000006885420FD0FB480068A84201D1F94883
:10379000046068686060DD480068201ADB4A696878
:1037A000126811448860D949A06809684618A64281
:1037B00011D0708878B9EF480068A04201D1ED4877
:1037C000066060687060D1480068301ACF4A61684E
:1037D00012681144886070BD2DE9F04705460E4619
:1037E000E81C20F0030726F0030800BF01F0C2FB2D
:1037F0008146FFF797FA40B1DF49E0A0FFF765FE89
:10380000D322DD49E7A0FFF710FF484601F0B6FBE1
:1038100000BFB8F1180F09D9A8F11800B84205D3B4
:10382000A8EB07001838E049086006E03246294650
:10383000DEA0FFF74AFEBDE8F087B448076000BF8E
:1038400000BF04684FF4F5502080D74800680C3062
:1038500060600020A0606080AC496068096808442E
:10386000B44908604FF4F550096808800120B14957
:1038700009684880CC4800680C30AE490968486047
:10388000C94800680C30AB490968886000230122F0
:10389000D5A1D748FEF714F89C480068B5490860E0
:1038A00000BFC8E72DE9F047054600BF01F062FB05
:1038B0008146FFF737FA48B1CE49B0A0FFF705FEC1
:1038C0004FF48B72CB49B7A0FFF7AFFE484601F02B
:1038D00055FB00BF15B90020BDE8F087E81C20F0BB
:1038E0000300A84201D000BF01E000BF00BFE81CF8
:1038F00020F00305AC480068854203D900BF00BF33
:103900000020E9E70C2D00D20C254FF0FF31B8481C
:10391000FEF751F8974800687C490968461AB0E0FC
:103920007A4800688419608800287BD106F10C0071
:103930006168081AA84275D306F10C006168091A7B
:1039400005F11800814230D306F10C0000EB0508A8
:103950006E48006800EB08074FF4F55038800020EF
:10396000788060687860BE60C4F804800120608060
:103970008D48796800680C30814205D063497868C9
:1039800009680844C0F808809B48016805F10C00EC
:10399000084499490860994800680968884219D222
:1039A000954800689549086014E0012060805749F7
:1039B00060680968611A401A8F49096808448E498D
:1039C00008608E4800680968884203D28A48006807
:1039D0008A4908604FF4F5502080664800688442A8
:1039E00024D107E0634800684068484909680844F2
:1039F000604908605F480068408828B15D480068F9
:103A00004C4909688842EDD15A480068494909681B
:103A100088420BD057480068408838B140F2831282
:103A2000744900E029E076A0FFF7FFFD7048FEF73B
:103A30003CF804F10C0028443E490968884205D945
:103A400040F287126B497848FFF7EFFD04F003005E
:103A500028B14FF4C47267497448FFF7E6FD04F0DB
:103A6000030028B140F28912624971A0FFF7DDFD21
:103A700000BF00BF04F10C002EE72448006830446A
:103A8000466849480068401BB0423FF649AF584875
:103A9000FEF70BF800201FE770B5054600BF01F0E8
:103AA00069FA0646FFF73EF948B16D4933A0FFF7C2
:103AB0000CFD40F229226A493AA0FFF7B6FD3046D4
:103AC00001F05CFA00BF05B970BD05F0030028B134
:103AD00040F22D22624963A0FFF7A7FD0B48006862
:103AE000854203D313480068854205D340F22E2255
:103AF0005B496948FFF799FD04480068854203D394
:103B00000C4800688542C9E0C9E000005800002068
:103B1000455600082872745F75696E74385F7420AA
:103B20002A296D656D203E3D20686561705F707467
:103B3000720000005C0000202872745F75696E746A
:103B4000385F74202A296D656D203C202872745FCF
:103B500075696E74385F74202A29686561705F65C5
:103B60006E6400006D656D2D3E75736564203D3D8E
:103B700020300000600000205056000846756E633B
:103B800074696F6E5B25735D207368616C6C206E69
:103B90006F74206E65207573656420696E204953CB
:103BA000520A000030000000640000206D656D20A6
:103BB000696E69742C206572726F72206265676924
:103BC0006E206164647265737320307825782C20D0
:103BD000616E6420656E6420616464726573732035
:103BE000307825780A0000006865617000000000E8
:103BF0001483002064560008680000206C00002038
:103C000028286C66726565203D3D20686561705F9F
:103C1000656E6429207C7C2028216C667265652D88
:103C20003E7573656429290018590008705800080A
:103C300028282872745F75696E7433325F74296D39
:103C4000656D292026202852545F414C49474E5F1C
:103C500053495A45202D20312929203D3D2030004F
:103C60008356000828282872745F75696E74333291
:103C70005F7429726D656D292026202852545F419A
:103C80004C49474E5F53495A45202D203129292060
:103C90003D3D203000000000BC58000802D300BFAA
:103CA00000BF11E7A5F10C0400BF00BF4FF0FF31CA
:103CB0008C48FDF780FE608818B12088B0F5F55F6C
:103CC00008D089A0FFF701FC2388628821468DA0D7
:103CD000FFF7FBFB608828B940F24D22954996A07A
:103CE000FFF7A3FC2088B0F5F55F05D040F24E2227
:103CF000904994A0FFF799FC002060804FF4F550A4
:103D0000208097480068844201D295480460954914
:103D100060680968611A401A93490968081A92494B
:103D200008602046FFF708FD6E48FDF7BEFE00BFA5
:103D3000CAE62DE9F84F06460C4600BF01F01AF915
:103D40000090FEF7EFFF58B18849AFF2D010FFF7AF
:103D5000BCFB40F2AD128549AFF2B810FFF765FC2D
:103D6000009801F00BF900BFE01C20F0030480482C
:103D70000068844204D900BF00BF0020BDE8F88F6E
:103D800024B93046FFF788FE0020F7E71EB9204629
:103D9000FFF788FDF2E74FF0FF315248FDF70BFEC9
:103DA00070480068864203D372480068864204D394
:103DB0004C48FDF77AFE3046E0E7A6F10C0869486A
:103DC0000068A8EB0009D8F80400A0EB0900A0F1F6
:103DD0000C07A74204D14348FDF767FE3046CDE704
:103DE00004F11800B8422DD2381B5F490968081A3F
:103DF0005D49086009F10C0000EB040A59480068AD
:103E000000EB0A054FF4F550288000206880D8F8B0
:103E100004006860C5F80890C8F804A054486968B0
:103E200000680C30814205D04E4968680968084432
:103E3000C0F808A02846FFF77FFC2A48FDF735FEAA
:103E400030469BE72748FDF730FE2046FFF72AFD66
:103E50008346BBF1000F0CD0A74201D2384600E0E8
:103E60002046024631465846FEF7B7FF3046FFF778
:103E700013FE584682E72DE9F04104460D4600BF87
:103E800001F078F80746FEF74DFF58B13A49AFF216
:103E90001430FFF71AFB40F212223749AFF2FC2030
:103EA000FFF7C3FB384601F069F800BF04FB05F0DB
:103EB000FFF7F8FC06462EB104FB05F20021304660
:103EC000FEF767FF3046BDE8F08110B1284B1B6854
:103ED000036011B1244B1B680B6012B1274B1B68A8
:103EE0001360704714830020746F2066726565202C
:103EF0006120626164206461746120626C6F636B35
:103F00003A0A00006D656D3A203078253038782CFB
:103F1000207573656420666C61673A2025642C20E7
:103F20006D6167696320636F64653A20307825307E
:103F300034780A00835600086D656D2D3E757365F3
:103F4000640000006D656D2D3E6D61676963203D05
:103F50003D20484541505F4D414749430000000026
:103F60006000002058000020680000206E56000805
:103F7000640000205C000020795600086C000020DE
:103F80000268516002680A60016048607047D0E9C9
:103F900000215160D0E9001211604060006070475C
:103FA0007047024600210AE0804800EB01100078CB
:103FB000904203D17D4800EB01107047491C07294E
:103FC000F2DB0020F9E72DE9F04104460D461646E4
:103FD0002846FFF7E6FF07462FB94FF4837274496E
:103FE00074A0FFF722FB45F08000207208223146C2
:103FF0002046FEF7A2FF00F0BDFF804604F10C0151
:10400000381DFFF7BDFF404600F0B8FFBDE8F08166
:1040100070B504462CB94FF494726C496CA0FFF74C
:1040200004FB00F0A7FF054604F10C00FFF7AFFF0B
:10403000284600F0A3FF70BD2DE9F04706460F4665
:1040400000BF00F097FF8146FEF76CFE48B165495E
:1040500065A0FFF73AFA40F2451262496CA0FFF7FB
:10406000E4FA484600F08AFF00BF3046FFF799FFA8
:1040700005462DB940F251125A494EA0FFF7D5FA24
:10408000E868FFF70FFC044614B90020BDE8F0878C
:10409000267200206072082239462046FEF74DFF46
:1040A00000F068FF804604F10C01281DFFF768FF4F
:1040B000404600F063FF2046E8E770B504462CB99F
:1040C00040F28712534942A0FFF7AFFA207A00F07E
:1040D000800028B14FF4C4724E494FA0FFF7A5FAF3
:1040E00000F048FF054604F10C00FFF750FF28469A
:1040F00000F044FF2046FFF7CFFC70BD10B504462A
:104100002CB94FF4D6724F4931A0FFF78EFA207ABE
:1041100000F0800008B1012010BD0020FCE72DE96F
:10412000F04705460E464FF00008002700240DB169
:104130000B2E02DD0020BDE8F08700BF00F01AFF63
:104140008146FEF7EFFD48B13F4927A0FFF7BDF9D3
:1041500040F2CB123C492EA0FFF767FA484600F028
:104160000DFF00BF00F06AF954B93046FFF719FFA0
:1041700004462CB940F20F2233490EA0FFF755FA3E
:1041800067680CE0A7F10C08082229464046FEF7B4
:10419000EEFE18B900F060F94046CCE73F68201DFC
:1041A0008742EFD100F058F90020C4E770000020EA
:1041B0008B560008696E666F726D6174696F6E2050
:1041C000213D2052545F4E554C4C00009A56000839
:1041D0006F626A65637420213D2052545F4E554CD6
:1041E0004C000000AB56000846756E6374696F6E34
:1041F0005B25735D207368616C6C206E6F74206E3C
:1042000065207573656420696E204953520A000069
:1042100030000000BE56000821286F626A65637492
:104220002D3E7479706520262052545F4F626A6576
:1042300063745F436C6173735F5374617469632962
:1042400000000000CF560008E956000870B504468B
:1042500024B95A22914992A0FFF7E7F9A06A0078A1
:10426000232809D1A16AE069884205D9D4E90A0165
:104270000844E16988420AD221468EA0FFF725F959
:1042800000F078FE054600BF002DFDD108E0A06AD1
:104290002030E169814203D821468DA0FFF715F94E
:1042A00070BD10B500209849088000BF00BF0024F1
:1042B00005E0964901EBC40000F0EDF8641C202CE9
:1042C000F7DB1F209249087000209249086092494C
:1042D0000860924800F0DFF810BD70B58E480068A5
:1042E000FFF77DF9451E894850F83500A0F1140408
:1042F0008848046004F11C0000F071FE70BD2DE9D7
:10430000F04100F037FE07467F480088002834D18E
:1043100081480068FFF763F9461E7C4850F8360074
:10432000A0F114047B480068844222D078490E70C2
:1043300078480568046000BF00BF2046FFF786FF8D
:104340007748007848B904F11C0105F11C0000F021
:1043500018FE384600F012FE0EE000BF00BF04F168
:104360001C0105F11C0000F00CFE384600F006FEB2
:1043700002E0384600F002FE02E0384600F0FEFDA2
:10438000BDE8F08170B504462CB940F223126549AE
:1043900043A0FFF74AF900F0EDFD054614F8340F8D
:1043A00020F00F0040F0010020706278343C574B41
:1043B00003EBC20004F114014268116042684A60D4
:1043C0004160086000BF00BF00BF5349A06B09688F
:1043D000084351490860284600F0D0FD70BD70B513
:1043E00004462CB940F251124F492DA0FFF71DF998
:1043F00000F0C0FD054600BF00BF04F11400D0E985
:1044000000215160D0E9001211604060006000BFDF
:1044100094F835103D4A02EBC1000168814201D198
:10442000012100E0002129B13B48A16B00688843CD
:1044300039490860284600F0A1FD70BD10B500F0B4
:1044400099FD044630480088401C00B22E4908807F
:10445000204600F093FD10BD10B500F08BFD044622
:1044600029480088401E00B2274908800846B0F954
:104470000000002807DC00200880204600F07EFDB8
:10448000FFF73DFF02E0204600F078FD10BD1E481A
:10449000008880B27047406000607047F85600089E
:1044A00074687265616420213D2052545F4E554C02
:1044B0004C0000007468726561643A25732073745F
:1044C00061636B206F766572666C6F770A0000001F
:1044D0007761726E696E673A202573207374616329
:1044E0006B20697320636C6F736520746F20656E39
:1044F00064206F6620737461636B2061646472650D
:1045000073732E0A00000000E000002034830020B6
:10451000E8000020E4000020EC000020F000002073
:104520004C000020125700082C5700080268516008
:1045300002680A60016048607047D0E9002151605C
:10454000D0E90012116040600060704770B5FE480D
:10455000046800F00FFD05462046FFF740FF0420E9
:1045600084F8340004F14C0000F064FB2046FFF7AF
:10457000C5FD012805D1A06F18B92046FFF748FDF9
:1045800004E004F11401F148FFF7D0FF284600F0E1
:10459000F5FCFFF7B4FE70BD70B505462C462CB98E
:1045A00040F2D122EA49EBA0FFF73FF894F834003B
:1045B00000F00F00022805D040F2D222E449EAA020
:1045C000FFF733F86FF00100206304F11400FFF7E8
:1045D000B4FF2046FFF7D6FEFFF791FE70BD2DE930
:1045E000FC5F04468B4616461F46DDE90C9ADDE962
:1045F0000E5804F114004060006000BF266267623C
:10460000C4F82890C4F82CA02321D4E90A02FEF7AC
:10461000C0FBD4E90A3C63441A1FAFF2CF03D4E9CC
:10462000080100F01FFDE061202D04DB9E22DD4922
:10463000DDA0FEF7FAFF3034A57165710020A0609F
:10464000C4F81480C4F8188020602071A064E0646D
:10465000303C00902346AFF2BF022146019004F1A6
:104660004C0000F0CAFA0020BDE8FC9F2DE9FF5F76
:1046700004460D46174698460EAE96E8400E24B9FD
:10468000EE22D249B3A0FEF7D0FF26B9EF22CF49E0
:10469000CFA0FEF7CAFF2A4600212046FFF793FC71
:1046A00043463A46294620468DE8400EFFF797FFDD
:1046B00004B0BDE8F09FA4480068704770B5044698
:1046C0002CB940F2A522C849A2A0FEF7AEFF00BF58
:1046D00000BF94F8340000F00F00022804D000BF9F
:1046E00000BF4FF0FF3070BD00F044FC054604F100
:1046F0001400FFF722FF04F14C0000F06CFB284689
:1047000000F03CFC2046FFF73DFE0020EBE710B533
:1047100004462CB94FF48A72B4498EA0FEF785FF87
:1047200094F8340000F00F0028B140F21512AF49A0
:10473000AFA0FEF77AFF94F8360084F8350094F8BD
:10474000351001208840A06300BF00BF022084F81C
:1047500034002046FFF7B2FFFFF7ADFF08B1FFF7C7
:10476000CEFD002010BD70B504462CB94FF4A072E8
:10477000AD4978A0FEF759FF94F8340000F00F001F
:1047800010B12046FFF72BFE04F14C0000F052FA66
:10479000042084F834002046FFF73AFCA06F50B1A3
:1047A00000F0E8FB054604F114016848FFF7BEFE7F
:1047B000284600F0E3FB002070BD2DE9FF5F0646B0
:1047C0000F4690461D46DDE90EAB31460020FFF74F
:1047D00033FC8146B9F1000F03D1002004B0BDE8DD
:1047E000F09F2846FFF75EF8044624B94846FFF7D5
:1047F00064FC0020F2E743463A46314648468DE8DD
:10480000300CFFF7ECFE4846E8E770B504462CB9DB
:104810004FF4D17285494FA0FEF707FF94F834009A
:1048200000F00F0010B12046FFF7D9FD04F14C0055
:1048300000F000FA042084F8340000F09BFB0546E9
:1048400004F114014148FFF771FE284600F096FB81
:10485000002070BD70B500F08DFB05463A48046835
:1048600094F8340000F00F0001281CD1D4E90510A1
:10487000814218D004F11400FFF75FFE94F8352050
:104880006B4B03EBC20004F11401426811604268F3
:104890004A604160086000BF284600F06FFBFFF7E8
:1048A0002EFD002070BD284600F068FB0020F9E7CF
:1048B00070B504462CB940F27B225E4925A0FEF774
:1048C000B4FE00BF00BF94F8340000F00F000128D0
:1048D00004D000BF00BF4FF0FF3070BD00F04AFBB6
:1048E000054694F8340020F00F0040F0020084F8F0
:1048F00034002046FFF773FD04F14C0000F06BFA22
:10490000284600F03BFB0020E7E731B500F032FB22
:1049100005460D4804682CB94FF4FD7246490DA0B8
:10492000FEF783FE2046FFF7C3FF6A46002104F12D
:104930004C0000F06FFA04F14C0000F0C3F9284677
:1049400000F01CFB7AE00000E4000020F0000020F2
:10495000DE57000874687265616420213D2052545E
:104960005F4E554C4C000000287468726561642DE0
:104970003E7374617420262052545F54485245415E
:10498000445F535441545F4D41534B29203D3D20DA
:1049900052545F5448524541445F53555350454E1D
:1049A00044000000465700087072696F726974799C
:1049B000203C2052545F5448524541445F50524974
:1049C0004F524954595F4D41580000005657000856
:1049D000737461636B5F737461727420213D205244
:1049E000545F4E554C4C0000CD57000865570008E9
:1049F000287468726561642D3E737461742026208A
:104A000052545F5448524541445F535441545F4DA2
:104A100041534B29203D3D2052545F54485245415B
:104A2000445F494E495400007757000888570008F2
:104A300034830020BB57000899570008FFF75FFC3C
:104A4000206B801C08B900202063002038BD10B501
:104A500004462046FFF759FF10BD2DE9F0410446FA
:104A60000E46154634B940F22D223549AFF21C10DE
:104A7000FEF7DBFD3EB3012E2AD0022E2CD100F032
:104A800079FA074694F8340000F00F0001280ED19F
:104A90002046FFF7A4FC287884F8350094F83510F8
:104AA00001208840A0632046FFF76CFC07E02878CF
:104AB00084F8350094F8351001208840A06338460A
:104AC00000F05CFA09E02046FFF721FEBDE8F08126
:104AD0002046FFF79AFEF9E700BF00BF0020F5E788
:104AE0002DE9F0410646FFF7E6FD08B1FFF7A6FC09
:104AF0000020FFF756FA04462CB940F2F72211497C
:104B000011A0FEF792FD656810E0A5F10C070822E0
:104B100031463846FEF72BFA38B9FFF7CCFD08B11D
:104B2000FFF79AFC3846BDE8F0812D68201D8542CC
:104B3000EBD1FFF7C0FD08B1FFF78EFC0020F2E7D4
:104B4000A9570008F0570008696E666F726D6174AE
:104B5000696F6E20213D2052545F4E554C4C000031
:104B60000268516002680A600160486070472DE980
:104B7000F04704460E4617469846DDF8209084F824
:104B80000990607A20F001006072E66127620020DF
:104B9000A062C4F82480002506E004F1140101EBB2
:104BA000C50000F0B0F96D1C012DF6DBBDE8F08703
:104BB00070B50446204600F0A9F910B14FF0FF305F
:104BC00070BD2068A0F11405A86AF9E710B5024687
:104BD000002001460EE002F1140303EBC100D0E90E
:104BE00000436360D0E9003423604060006000BF90
:104BF000481C01460129EEDB10BD2DE9F8430446AF
:104C00000D4616461F46DDE9088924B9BC22C34972
:104C1000C3A0FEF70AFD2A4609212046FFF7D3F973
:104C200043463A4631462046CDF80090FFF79FFFB5
:104C3000BDE8F88370B5044624B9D122BD49B8A0B7
:104C4000FEF7F3FC00F096F905462046FFF7BEFF9D
:104C5000284600F093F92046FFF7DAF9002070BDEE
:104C60002DE9F84304460E4617469846DDF8209095
:104C700021460920FFF7E0F9054615B90020BDE8F7
:104C8000F88343463A4631462846CDF80090FFF770
:104C90006EFF2846F3E770B504462CB94FF48772CF
:104CA000A5499FA0FEF7C1FC00F064F90546204627
:104CB000FFF78CFF284600F061F92046FFF7FDF969
:104CC000002070BD2DE9F84305462DB94FF49872C8
:104CD0009A4993A0FEF7A9FC00F04CF980462846BB
:104CE000FFF774FF687A20F001006872404600F018
:104CF00045F96FF00041686A884205D34FF4A0720D
:104D00008E498FA0FEF791FCFCF74BFC696A0844C2
:104D1000A86200F02FF98046924E009600242AE007
:104D200019E05DF824201168142202EBC402881AED
:104D3000826AAB6AD21A00D108E0826AAB6AD21AE0
:104D40006FF000439A4200D20CE000BF5DF82400EF
:104D500000684DF824005DF8240006EBC4014968A2
:104D60008842DED100BF2CB15DF824000830611C00
:104D70004DF82100641C002CD2D07B480068401CF8
:104D8000794908600846076805F114010098FFF7A3
:104D9000E7FE022412E007F0030060B9C4F101034A
:104DA00005F1140202EBC301C4F101025DF8220017
:104DB000FFF7D6FE00E003E0BF08641C012CEAD92F
:104DC00000BF687A40F001006872404600F0D6F8F3
:104DD0000020BDE8F88370B504462CB94FF4D472B6
:104DE00062494FA0FEF721FC607A00F0010010B983
:104DF0004FF0FF3070BD00F0BDF805462046FFF7CC
:104E0000E5FE284600F0BAF8607A20F001006072F2
:104E10000020EFE770B504460E4615462CB940F267
:104E2000C91253493EA0FEF700FC4EB1012E04D03A
:104E3000022E08D0032E10D10AE0606A28600CE030
:104E40002868606209E0607A20F00200607204E085
:104E5000607A40F00200607200BF00BF002070BDA9
:104E600070B500BF00BFFCF79CFB054600F082F860
:104E700006462AE03B480068A0F11404A06A281AFC
:104E80006FF0004188421FD22046FFF79FFED4E911
:104E900007108847FCF785FB054600BF00BF607A16
:104EA00000F0020058B1607A00F0010038B1607A79
:104EB00020F0010060722046FFF704FF05E0607AF1
:104EC00020F00100607200E004E0264800F01EF8C7
:104ED0000028CFD000BF304600F050F800BF00BF20
:104EE00070BD10B51F48FFF763FE10BD10B500245C
:104EF00005E01C4901EBC40000F005F8641C002C1F
:104F0000F7D010BD704740600060704701460868E8
:104F1000884201D1012070470020FCE7FF570008BC
:104F200074696D657220213D2052545F4E554C4C82
:104F3000000000000D5800081D5800082D580008FA
:104F400074696D65722D3E696E69745F7469636B17
:104F5000203C2052545F5449434B5F4D4158202F11
:104F600020320000F8000020000100203C5800081A
:104F70004A580008EFF3108072B6704780F310882B
:104F80007047324A1368012B04D04FF001031360BD
:104F90002F4A10602F4A11602F484FF08051016056
:104FA0007047EFF3108272B62848016891B14FF054
:104FB000000101602648016829B1EFF3098121E968
:104FC000F00F00680160234909680968B1E8F00F33
:104FD00081F3098882F310884EF0040E70471D4952
:104FE00008601B494FF00000086018494FF00100AD
:104FF00008601A484FF47F01D0F8002041EA02010E
:10500000016015484FF08051016015480068006844
:1050100080F3088861B662B670471EF0040F14BFB3
:10502000EFF30880EFF3098020E9F00F40F804ED7A
:1050300014BF80F3088880F3098800B500F038F8C1
:105040005DF804EB4EF0040E704700000C010020E8
:10505000040100200801002004ED00E020ED00E044
:1050600008ED00E0F0B504460D461646301D20F070
:10507000070040380146002203E0424F41F8227009
:10508000521C102AF9D30D624FF0000CC1F824C055
:10509000C1F828C0C1F82CC0C1F830C04B638C6384
:1050A0004FF0807CC1F83CC0F0BD374908607047C4
:1050B00070B505462C1D3448006838B12846324981
:1050C00009688847064606B970BD00BF2FA0E16B8E
:1050D000FEF7FBF931A0216AFEF7F7F933A0616A08
:1050E000FEF7F3F935A0A16AFEF7EFF937A0E16A00
:1050F000FEF7EBF939A02168FEF7E7F93BA06168FC
:10510000FEF7E3F93DA0A168FEF7DFF93FA0E168F3
:10511000FEF7DBF941A02169FEF7D7F943A06169E9
:10512000FEF7D3F945A0A169FEF7CFF947A0E169E1
:10513000FEF7CBF949A0216BFEF7C7F94BA0616BD5
:10514000FEF7C3F94DA0A16BFEF7BFF9287800F078
:10515000040038B1FFF7AFFA064631464BA0FEF720
:10516000B4F902E051A0FEF7B0F900BFFEE710B5B8
:1051700055A0FEF7AAF94FF4B072574957A0FEF7B1
:1051800054FA10BDEFBEADDE100100207073723A0C
:10519000203078253038780A000000007230303A2C
:1051A000203078253038780A000000007230313A1B
:1051B000203078253038780A000000007230323A0A
:1051C000203078253038780A000000007230333AF9
:1051D000203078253038780A000000007230343AE8
:1051E000203078253038780A000000007230353AD7
:1051F000203078253038780A000000007230363AC6
:10520000203078253038780A000000007230373AB4
:10521000203078253038780A000000007230383AA3
:10522000203078253038780A000000007230393A92
:10523000203078253038780A000000007231303A8A
:10524000203078253038780A000000007231313A79
:10525000203078253038780A000000007231323A68
:10526000203078253038780A00000000206C723A2F
:10527000203078253038780A000000002070633A2A
:10528000203078253038780A0000000068617264A8
:10529000206661756C74206F6E207468726561643D
:1052A0003A2025730D0A0D0A00000000686172643F
:1052B000206661756C74206F6E2068616E646C6529
:1052C000720D0A0D0A00000073687574646F776EC2
:1052D0002E2E2E0A000000005B580008300000004F
:1052E000064C074D06E0E06840F0010394E8070033
:1052F00098471034AC42F6D3FAF71EFF70590008F5
:105300009059000802E008C8121F08C1002AFAD10B
:1053100070477047002001E001C1121F002AFBD135
:10532000704772745F6170706C69636174696F6EED
:105330005F696E69740072745F7468726561645F3E
:1053400069646C655F6578637574650072745F731A
:10535000656D5F696E69740072745F73656D5F641B
:1053600065746163680072745F73656D5F63726515
:105370006174650072745F73656D5F64656C6574FC
:10538000650072745F73656D5F74616B6500727444
:105390005F73656D5F636F6E74726F6C0072745FC4
:1053A0006D757465785F696E69740072745F6D7590
:1053B0007465785F6465746163680072745F6D75AD
:1053C0007465785F6372656174650072745F6D7592
:1053D0007465785F64656C6574650072745F6D7583
:1053E0007465785F74616B650072745F6D75746568
:1053F000785F72656C656173650072745F65766570
:105400006E745F696E69740072745F6576656E7440
:105410005F6465746163680072745F6576656E745D
:105420005F6372656174650072745F6576656E7442
:105430005F64656C6574650072745F6576656E7433
:105440005F73656E640072745F6576656E745F721B
:105450006563760072745F6576656E745F636F6E08
:1054600074726F6C0072745F6D625F696E69740054
:1054700072745F6D625F6465746163680072745F0B
:105480006D625F6372656174650072745F6D625F07
:1054900064656C6574650072745F6D625F73656EE0
:1054A000645F776169740072745F6D625F726563D7
:1054B000760072745F6D625F636F6E74726F6C0002
:1054C00072745F6D715F696E69740072745F6D7183
:1054D0005F6465746163680072745F6D715F6372AD
:1054E000656174650072745F6D715F64656C65748D
:1054F000650072745F6D715F73656E640072745FD6
:105500006D715F757267656E740072745F6D715F47
:10551000726563760072745F6D715F636F6E747233
:105520006F6C000000010002000100030001000296
:10553000000100040001000200010003000100025C
:10554000000100050001000200010003000100024B
:10555000000100040001000200010003000100023C
:10556000000100060001000200010003000100022A
:10557000000100040001000200010003000100021C
:10558000000100050001000200010003000100020B
:1055900000010004000100020001000300010002FC
:1055A00000010007000100020001000300010002E9
:1055B00000010004000100020001000300010002DC
:1055C00000010005000100020001000300010002CB
:1055D00000010004000100020001000300010002BC
:1055E00000010006000100020001000300010002AA
:1055F000000100040001000200010003000100029C
:10560000000100050001000200010003000100028A
:10561000000100040001000200010003000100027B
:105620000001003031323334353637383961626346
:1056300064656600303132333435363738394142AB
:105640004344454600706C75675F686F6C65730016
:1056500072745F73797374656D5F686561705F699B
:105660006E69740072745F6D616C6C6F630072744C
:105670005F7265616C6C6F630072745F63616C6C08
:105680006F630072745F667265650072745F6F624B
:105690006A6563745F696E69740072745F6F626AD1
:1056A0006563745F6465746163680072745F6F62E0
:1056B0006A6563745F616C6C6F63617465007274BA
:1056C0005F6F626A6563745F64656C6574650072C0
:1056D000745F6F626A6563745F69735F7379737413
:1056E000656D6F626A6563740072745F6F626A658C
:1056F00063745F66696E64005F72745F736368658C
:1057000064756C65725F737461636B5F6368656316
:105710006B0072745F7363686564756C655F696E56
:10572000736572745F7468726561640072745F732C
:1057300063686564756C655F72656D6F76655F74CF
:105740006872656164005F72745F74687265616439
:105750005F696E69740072745F7468726561645F1A
:10576000696E69740072745F7468726561645F73F6
:105770007461727475700072745F746872656164CC
:105780005F6465746163680072745F7468726561F8
:10579000645F64656C6574650072745F74687265DB
:1057A00061645F736C6565700072745F74687265C4
:1057B00061645F636F6E74726F6C0072745F7468A3
:1057C000726561645F73757370656E640072745F97
:1057D0007468726561645F726573756D650072747B
:1057E0005F7468726561645F74696D656F7574007C
:1057F00072745F7468726561645F66696E6400727A
:10580000745F74696D65725F696E69740072745F4C
:1058100074696D65725F6465746163680072745F5A
:1058200074696D65725F64656C6574650072745F40
:1058300074696D65725F73746172740072745F7401
:10584000696D65725F73746F700072745F74696DF7
:1058500065725F636F6E74726F6C0072745F6877ED
:105860005F6370755F73687574646F776E000000B6
:105870002872745F75696E7433325F7429282872D8
:10588000745F75696E74385F74202A296D656D20A8
:105890002B2053495A454F465F5354525543545F4A
:1058A0004D454D2920252052545F414C49474E5FBC
:1058B00053495A45203D3D20300000002872745F56
:1058C00075696E74385F74202A29726D656D203E8B
:1058D0003D202872745F75696E74385F74202A29C0
:1058E000686561705F707472202626202872745F6C
:1058F00075696E74385F74202A29726D656D203C5D
:10590000202872745F75696E74385F74202A296864
:105910006561705F656E64002872745F75696E748E
:1059200033325F74296D656D202B2053495A454FE2
:10593000465F5354525543545F4D454D202B2073C1
:10594000697A65203C3D202872745F75696E7433F6
:10595000325F7429686561705F656E6400000000E5
:105960000D16000811160008151600081916000873
:1059700090590008000000201401000004530008A2
:10598000A45A0008140100202487000014530008C2
:1059900000A24A040000000000000000010203040D
:1059A00006070809000000000102030401020304C5
:1059B00006070809020406080000000000000000B5
:1059C00000000000000000000000000000000000D7
:1059D00000000000010000000000000000000000C6
:1059E00000000000000000000000000000000000B7
:1059F00000000000000000000000000000000000A7
:105A000000000000740000207400002080000000EE
:105A1000010000008400002084000020200000001D
:105A200002000000940000209400002024000000E8
:105A300003000000A4000020A400002020000000BB
:105A400004000000B4000020B4000020300000007A
:105A500005000000C4000020C40000203400000045
:105A600009000000D4000020D40000202C00000019
:105A70000000000000000000000000000000000026
:105A80000000000000000000000000000000000016
:105A90000000000000000000000000000000000006
:045AA0000000000002
:0400000508000131BD
:00000001FF
